:020000040800F2
:10000000884F00208102000819560008194B00088B
:1000100099550008111C0008356300080000000015
:10002000000000000000000000000000C101000806
:100030007B220008000000001D020008615C00082F
:100040009B0200089B0200089B0200089B0200081C
:100050009B0200089B0200089B0200089B0200080C
:100060009B0200089B0200089B0200089B020008FC
:100070009B0200089B0200089B0200089B020008EC
:100080009B020008392100089B020008ED1C0008B3
:10009000C11C00089B0200089B0200089B0200088C
:1000A0009B020008B55D00089B0200089B02000847
:1000B0009B0200089B0200089B0200089B020008AC
:1000C0009B0200089B0200089B0200089B0200089C
:1000D0009B0200089B0200089B0200089B0200088C
:1000E0009B0200089B0200089B0200089B0200087C
:1000F0009B0200089B0200089B0200089B0200086C
:100100009B0200089B0200089B0200089B0200085B
:100110009B0200089B0200089B0200089B0200084B
:100120009B0200089B0200084D2100089B0200086A
:100130009B0200089B0200089B0200089B0200082B
:100140009B0200089B0200089B0200089B0200081B
:100150009B0200089B0200089B0200089B0200080B
:100160009B0200089B0200089B0200089B020008FB
:100170009B0200089B0200089B0200080000000090
:100180009B0200089B0200089B0200089B020008DB
:100190009B0200089B0200089B0200089B020008CB
:1001A00000000000000000009B020008DFF80CD0F7
:1001B00001F0ECF800480047E5770008884F002080
:1001C0002C4B19680868B0E8F04F80F30988BFF33A
:1001D0006F8F4FF0000080F311887047000000001F
:1001E00008480068006880F308884FF0000080F33A
:1001F000148862B661B6BFF34F8FBFF36F8F00DF15
:1002000000BF00BF08ED00E0DFF80C00016841F41A
:1002100070010160704700BF88ED00E0EFF30980D6
:10022000BFF36F8F134B1A681EF0100F08BF20ED3D
:10023000108A20E9F04F106009B44FF0500080F3AD
:100240001188BFF34F8FBFF36F8F08F0DBF84FF0CB
:10025000000080F3118809BC19680868B0E8F04F05
:100260001EF0100F08BFB0EC108A80F30988BFF3AE
:100270006F8F704734000020EFF305807047000057
:100280000648804706480047FEE7FEE7FEE7FEE730
:10029000FEE7FEE7FEE7FEE7FEE7FEE7515D00084A
:1002A000AD0100089FED1A1AF5EE000A40EE010AB2
:1002B000BDEEE00AF5EEC00A10EE100AF1EE10FAFB
:1002C00038BF401E00EE100A1349F7EE001AB8EED0
:1002D000C00A30EEC00ADFED0F0A20EE200AFCEE65
:1002E000C00A10EE900AC0F3080000EE900A01EB7D
:1002F0008000F8EE600A90ED011A70EE600A90ED51
:10030000000A71EEE01A21EE800A00EE810A7047C1
:1003100083F9223E00000044888A0008DFED190AB4
:10032000B5EEC00A60EE200ABDEEE01A11EE100A2A
:10033000F1EE10FA38BF401E00EE100A1349F7EE36
:10034000001AB8EEC00A30EEC00ADFED0F0A60EE08
:10035000200ABCEEE00A10EE100AC0F3080000EE1E
:10036000100A01EB8000B8EE400A90ED011A70EE21
:10037000C00A90ED000A71EEE01A21EE800A00EE4C
:10038000810A704783F9223E00000044888A0008F1
:1003900070B405880E884468D1F804C05368B5422B
:1003A00008D140884988884201BF11888D42518810
:1003B000884203D070BC6FF00200704705FB00F16B
:1003C000880827D094ED001ADCED000A94ED010AAC
:1003D000DCED011A31EE201AD4ED020A70EE211A7A
:1003E0009CED020A83ED001AC3ED011A94ED031A85
:1003F000DCED031A30EE800A401E71EE210A83ED17
:10040000020A04F11004C3ED030A03F110030CF116
:10041000100CD7D111F0030030D0B0F1004F30D222
:1004200000282BDD211F1B1FACF1040210F0010F6F
:100430000AD091ED010AD2ED010A091D121D30EE1C
:10044000200A83ED010A1B1D400817D091ED010A17
:10045000D2ED010A401E30EE200A83ED010A91ED33
:10046000020AD2ED020A01F1080102F1080230EE9F
:10047000200A83ED020A03F10803E7D170BC0020D3
:100480007047B4EC010A401EFCEC010A30EE200A71
:10049000A3EC010AF5D1F1E7018042804360704787
:1004A0002DE9F34F84B004984068009048680190AB
:1004B0000498B0F800E04588DFEDFE0A00200290C5
:1004C000B0EE600AAE4506D108884988884204BF6C
:1004D0007146864504D06FF0020006B0BDE8F08F8B
:1004E00001985FEA010C18BFB7EE001A3DD000BFBB
:1004F000BEEB0C0117D0B1F1004F80F01F82002934
:1005000011DD021F11F0010F1CBFC2ED010A121D07
:100510004B1006D0C2ED010AC2ED020A08325B1E82
:10052000F8D100EB8100BCF10102A0EC011A19D056
:10053000B2F1004F80F00882002A13DD031F12F091
:10054000010F1CBFC3ED010A1B1D511008D000BFD5
:10055000C3ED010AC3ED020A491E03F10803F7D1F6
:1005600000EB8200BCF1010CC2D14FF000080395F2
:10057000002D14BFB0EE602A002000F0BF8100BF44
:10058000009908FB05F001EB800B0199DBED002AD7
:1005900001EB80000346F0EE421AC64552D9AEEB9D
:1005A0000802ABEB850112F0010F17D001EB8501BA
:1005B00091ED000AB5EEC00AF1EE10FA07DDB4EED7
:1005C000E10AF1EE10FA09DDF0EE401A06E0B1EEB4
:1005D000400AF4EEC01AF1EE10FAF5D3521031D001
:1005E00001EB850C9CED000AB5EEC00AF1EE10FAA5
:1005F00005DDB4EEE10AF1EE10FA09DD06E0B1EE38
:10060000400AF4EEC01AF1EE10FA01D2F0EE401AF0
:1006100001EBC50191ED000AB5EEC00AF1EE10FA4A
:1006200005DDB4EEE10AF1EE10FA09DD06E0B1EE07
:10063000400AF4EEC01AF1EE10FA01D2F0EE401AC0
:10064000521ECDD1F5EEC01AF1EE10FA00F0738112
:10065000F5EEC02A0126F1EE10FA0099D4BFB1EEF2
:10066000620AB0EE620AB4EE610AF1EE10FA1CBF43
:10067000AEEB0802B2F1010C47D005FB08F201EB2A
:10068000820292ED001A00BFB0EE410A05FB06F4AB
:10069000B5EEC00A00EB8404F1EE10FACCBFF0EE28
:1006A000400AF1EE400AF4EE610AF1EE10FA28D1A8
:1006B000B5EB080C11D0BCF1004F7DD2BCF1000F9E
:1006C0000BDD00BF92ED000AD1ED000ABCF1010C78
:1006D000E2EC010AA1EC010AF4D129000ED0B1F13B
:1006E000004F6AD2002909DD94ED000AD0ED000A1E
:1006F000491EE4EC010AA0EC010AF5D101200290A8
:100700000BE0761CBCF1010CBED10298012804D08C
:10071000F5EEC02AF1EE10FA7ED09BED000AB5EBA3
:1007200008009A465946064622D0B0F1004F74D2CE
:1007300000281DDD091F10F0010F06D0F0EE400A61
:1007400080EEA01A81ED011A091D401010D000BFE3
:10075000D1ED010A401E80EE801A81ED011A91ED63
:10076000021AC1EE000AC1ED020A01F10801EFD13F
:10077000280026D0B0F1004F7ED2002821DDAAF15A
:10078000040110F0010F06D0D1ED010A80EE801AAD
:1007900081ED011A091D401013D000BFD1ED010AEF
:1007A000401E80EE801A81ED011AD1ED020A80EE22
:1007B000801A81ED021A01E0CBE0D6E001F10801D8
:1007C000ECD1DDE900124FF000095FEA0E0773D0AB
:1007D000C14504BF01EB860102EB850274D091EDA7
:1007E000000ADC465046330035D01C46B6F1004FB7
:1007F0007ED2002C2FDD0B1FABF1040C16F0010F85
:100800000FD0F0EE400ADCED011AB0EE601A00EEF7
:10081000E11A83ED011A01E08DE0B1E01B1D0CF13E
:10082000040C741015D000BFD3ED010A9CED011A21
:1008300040EE410AC3ED010AD3ED020A9CED021A13
:100840000CF1080C40EE410AC3ED020A0833641EA5
:10085000EAD101EB86012B0036D0B3F1004F72D202
:10086000002B31DDA2F1040CAAF1040013F0010FFA
:100870000CD0DCED010A00E08BE090ED011A001DC8
:1008800040EE410ACCED010A0CF1040C5C1019D0C9
:10089000DCED010A90ED011A40EE410ACCED010AAF
:1008A000DCED020A90ED021A083040EE410ACCED70
:1008B000020A03E0000000000DE005E0641E0CF1F8
:1008C000080CE5D102EB830201EB88017F1E09F1E0
:1008D00001097FF47DAF009808F10108001D009028
:1008E0000398401E03907FF44BAE0299012900E06B
:1008F00058E004BF06B0BDE8F08F00BFB5EEC00AF7
:10090000F1EE10FA7FF4E9AD04990EFB05F3002B2C
:100910004A684FF000010BD902EB810C9CED000AF4
:10092000B5EEC00AF1EE10FA02D1491C8B42F3D8A1
:100930008B427FF4D2AD6FF00400CEE5E0EC010A0B
:10094000491EFBD1EFE538E0E0EC010A521EFBD175
:1009500008E692ED000AD1ED000ABCF1010CE2ECD0
:10096000010AA1EC010AF4D1B7E694ED000AD0ED3A
:10097000000A491EE4EC010AA0EC010AF5D1BDE62B
:10098000D1ED000A401E80EE801AA1EC011AF7D1C9
:10099000EEE6D3ED000A401E80EE801AA3EC011AA9
:1009A000F7D10EE7BCEC011AD1ED000A5B1E40EE58
:1009B000410AE1EC010AF5D14DE7B0EC011AD2EDA4
:1009C000000A5B1E40EE410AE2EC010AF5D17BE72A
:1009D0002DE9F04F82B04668536801930588478837
:1009E0004B88002000900888874201BFB2F800C001
:1009F0006545528893421EBF6FF0020002B0BDE809
:100A0000F08F9FED412A4FEA970EC7F3400B00BFCE
:100A1000DDE9000202EB800A4A6898464FF00009BF
:100A2000B0EE420AB4465FEA0E0025D092ED001AFD
:100A3000DCED001A02EB8302DCED010A01EE810A13
:100A400092ED001A02EB8302401ED2ED001A02EB77
:100A5000830200EE810A9CED021ADCED030A000419
:100A60000CF1100C000C01EE210A92ED001A02EBC1
:100A7000830200EE810AD9D117F0030026D0ACF131
:100A80000404A2EB830210F0010F08D002EB8302F2
:100A9000D4ED010A92ED001A241D00EE810A5FEAEE
:100AA0000B0013D002EB830CD4ED010A9CED001A6D
:100AB00002EBC302401E00EE810AD4ED020A92ED61
:100AC000001A04F1080400EE810AEBD109F10100DB
:100AD000AAEC010A1FFA80F9486800EB8902A8F124
:100AE00001001FFA80F8B8F1000F99D1009806EBC9
:100AF0008706184480B20090681E05042D0C87D12B
:100B000002B00020BDE8F08F0000000070B405883E
:100B10000E884468D1F804C05368B54208D14088B3
:100B20004988884201BF11888D425188884203D08C
:100B300070BC6FF00200704705FB00F1880827D0F9
:100B400094ED001ADCED000A94ED010ADCED011AC7
:100B500031EE601AD4ED020A70EE611A9CED020AC1
:100B600083ED001AC3ED011A94ED031ADCED031AAC
:100B700030EEC00A401E71EE610A83ED020A04F1F4
:100B80001004C3ED030A03F110030CF1100CD7D1CC
:100B900011F0030030D0B0F1004F30D200282BDD2F
:100BA000211F1B1FACF1040210F0010F0AD091EDC0
:100BB000010AD2ED010A091D121D30EE600A83ED13
:100BC000010A1B1D400817D091ED010AD2ED010A60
:100BD000401E30EE600A83ED010A91ED020AD2ED6B
:100BE000020A01F1080102F1080230EE600A83ED09
:100BF000020A03F10803E7D170BC00207047B4EC8F
:100C0000010A401EFCEC010A30EE600AA3EC010A66
:100C1000F5D1F1E72DE9F04F02884768B0F802807E
:100C20004888D1F8049082B04FF0000A16468242FC
:100C300007BF098888456FF0020002B018BFBDE801
:100C4000F08F4FEA980B02EB42000190C8F340008E
:100C5000CDF8000009EB8A01BBF1000F33D00198F9
:100C600001EB820C01EB80043B46E64601EBC2053A
:100C70004FEA0B0093ED000A401E81ED000A93ED50
:100C8000010A01EB02118CED000A93ED020A0CEB54
:100C9000021C85ED000A93ED030A05EB021584EDB5
:100CA000000A04EB021403F11003E3D10EEB8200FF
:100CB00000EB820000EB8201ABF10100504307EB37
:100CC0000B1701EB001118F0030C21D03B1FA1EB17
:100CD00082011CF0010F06D093ED010A01EB8201A5
:100CE0001B1D81ED000A009880B100BF93ED010A41
:100CF00001EB820401EBC20184ED000A93ED020ACC
:100D0000401E81ED000A03F10803EFD107EB8C07C9
:100D10000AF101001FFA80FA701E0604360C99D100
:100D200002B00020BDE8F08F2DE9F05F05460020FD
:100D300092469B4688460646814640241BE028464C
:100D400041464746224600F06AFA53465A46C01AC0
:100D5000914110D311461846224600F051FA2D1A3F
:100D600067EB01084F4622460120002100F048FAB7
:100D700017EB00094E41201EA4F10104DFDC4846B8
:100D800031462A464346BDE8F09F40EA01039B07EF
:100D900003D009E008C9121F08C0042AFAD203E0F0
:100DA00011F8013B00F8013B521EF9D27047D2B254
:100DB00001E000F8012B491EFBD270470022F6E744
:100DC00010B513460A4604461946FFF7F0FF2046C1
:100DD00010BD2DE9FE4F804681EA0300C00F0C468E
:100DE000009021F0004123F00045B8EB0200A9413A
:100DF00005D24046214690461C460B46024623F04B
:100E00000040104347D0270DC7F30A00C3F30A512F
:100E10000290401A019040286BDAC3F3130040F4AB
:100E2000801B0098924620B10023D2EB030A63EBAB
:100E30000B0B01985946C0F14002504600F0E0F912
:100E400006460D4650465946019A00F0F8F910EB57
:100E500008006141002487EA115284EAE7731A43CB
:100E600040D0009A62B3019A012A4FEA075215DC7A
:100E7000001B61EB02014FF0004202EA0752CDE98C
:100E80000042001C41F5801132462B4600F02FFA3B
:100E900003B0BDE8F08F40462146F9E7001B61EB47
:100EA0000201001C41F5801300185B412018A2F5D7
:100EB000001747EB030140EAD570B6196D4111E008
:100EC0006D084FEA360645EAC0754FEA0752001B27
:100ED00061EB0201001C41F5801149084FEA300026
:100EE0000019514132462B4603B0BDE8F04F00F0E7
:100EF000EFB90098012240000023D0EB020263EB1F
:100F0000E073009821464FEAE074B8EB000061EB13
:100F10000401E9E783F000435BE781F0004158E713
:100F20002DE9FE4F81EA030404F0004421F0004162
:100F300000944FF0000B23F0004350EA01045ED010
:100F400052EA03045BD0C3F30A54C1F30A552C449C
:100F5000A4F2F3340194A0FB0254C1F3130141F451
:100F60008011C3F3130343F4801301FB024400FB1D
:100F7000034E840A970A44EA815447EA8357A4FB44
:100F8000076802958D0A05FB07854FEA932C04FB41
:100F90000C542705029D4FEA065847EA1637B5EB71
:100FA00008056EEB070C870E920E47EA811742EA9E
:100FB0008312A7FB0201B6EB0B0164EB00042B0DBF
:100FC00043EA0C335E1844EB1C50DA465146E7FB0B
:100FD0000201C5F313044FEA0B3343EA14534FEAFB
:100FE0000432019C43EA0603A4F10C040294009C21
:100FF000CDE900B400F07BF903B0BDE8F08F00202C
:101000000146F9E72DE9F04D81EA030404F0004BB5
:1010100021F0004514464FF0000A23F0004150EA49
:10102000050220D054EA01021DD0C5F30A5702463A
:10103000C5F31303C1F31300C1F30A5640F480153E
:1010400043F48013A7EB0608101BD64608F2FD38C0
:1010500073EB050002D308F1010801E092185B412F
:10106000B8F1000F03DA00200146BDE8F08D002042
:101070004FF48011064684460EE0171B73EB0507FC
:1010800005D3121B63EB050306434CEA010C490828
:101090004FEA300092185B4150EA0107EDD152EA65
:1010A000030012D082EA040083EA0501084305D058
:1010B000101BAB4106D20122002306E000224FF0B4
:1010C000004302E06FF0010253101AEB06004CEBF4
:1010D000085110EB0A0041EB0B01BDE8F04D00F0A8
:1010E000F7B80EB5C10F80EAE0700844CA070021C6
:1010F00040F233438DE80E000A460B4600F0F7F845
:1011000003B000BD70B5C1F30A5201F000450024E0
:10111000C1F3130140F2FF3341F480119A4201DA26
:10112000002070BD40F233439A42A2F2334203DC06
:10113000524200F074F800E090402C43F1D040425D
:1011400070BD00F0004230F000400AD0C10D01F542
:101150006071C0F3160042EA0151C2084007114312
:10116000704700200146704730B5041E71F100043D
:1011700004DB4FF00044404264EB0101141E73F1A4
:10118000000405DB1C464FF00043524263EB0403AE
:101190008B4208BF824230BD30B5041E71F100049D
:1011A00004DB4FF00044404264EB0101141E73F174
:1011B000000405DB1C464FF00043524263EB04037E
:1011C000994208BF904230BD01F0004330B421F095
:1011D000004150EA010206D00A0DA2F56072C1F387
:1011E0001301002A02DC30BC00207047440F44EA9F
:1011F000C104C100E01830BC00EBC25000F031B8AF
:10120000202A04DB203A00FA02F1002070479140C6
:10121000C2F1200320FA03F3194390407047202ABB
:1012200004DB203A21FA02F00021704721FA02F390
:10123000D040C2F120029140084319467047202A4D
:1012400006DBCB17203A41FA02F043EAE07306E0EE
:1012500041FA02F3D040C2F12002914008431946FE
:1012600070470029A8BF7047401C490008BF20F004
:101270000100704710B4B0FA80FC00FA0CF050EA9C
:10128000010404BF10BC704749B1CCF1200421FA1D
:1012900004F411FA0CF118BF012121430843A3EB18
:1012A0000C01CB1D4FEA00614FEA102042BF002025
:1012B00010BC704700EBC35010440029A4BF10BC01
:1012C0007047401C490008BF20F0010010BC704767
:1012D00010B5141E73F1000408DA401C41F100013E
:1012E00092185B411A4301D120F0010010BD2DE995
:1012F000F04D92469B4611B1B1FA81F202E0B0FA8C
:1013000080F220329046FFF77BFF04460F4640EA0A
:101310000A0041EA0B0153465A46084313D01146CE
:1013200053EA010019D0C8F140025046FFF777FF99
:1013300005460E46504659464246FFF761FF0843B0
:1013400005D0012004E020463946BDE8F08D00209C
:10135000054346EAE0762C4337430A986305E40ADE
:10136000A0EB08000022FD0A44EA47540A3002D5E7
:1013700000200146E9E7010510196941DDE908454A
:1013800000196941BDE8F04DA2E70000064C074D89
:1013900006E0E06840F0010394E807009847103445
:1013A000AC42F6D3FEF706FF80930008A093000836
:1013B00070B58C1810F8015B15F0070301D110F817
:1013C000013B2A1106D110F8012B03E010F8016B44
:1013D00001F8016B5B1EF9D12B0705D40023521EC7
:1013E0000DD401F8013BFAE710F8013BCB1A921C2F
:1013F00003E013F8015B01F8015B521EF9D5A1422D
:10140000D8D3002070BD10B52DED028BB0EE408A10
:10141000B0EE480A04F0D8FFBDEC028B10BD10B549
:101420002DED028BB0EE408AF0EE608AF0EE680A95
:10143000B0EE480A05F0CCF9BDEC028B10BD10B53A
:101440002DED028BB0EE408AB0EE480AFEF72AFF7F
:10145000BDEC028B10BDF0EE400AF5EEC00AF1EED5
:1014600010FA02DDB0EE600A7047B1EE600AFBE7E9
:1014700018B19FED020A80ED000A704700000000DD
:1014800018B19FED020A80ED000A7047DF8FB4416A
:1014900070B52DED0C8B84B006460C4615469FEDBD
:1014A000990AF0EE408A9FED970AB0EE409A9FEDC0
:1014B000950AF0EE40BA9FED930AF0EE409A9FED48
:1014C000910AB0EE40AA0EB104B11DB904B0BDEC52
:1014D0000C8B70BD8C48FFF7CBFF8C48FFF7D0FF1B
:1014E0008A48D0ED000A9FED8A1A60EE810AB0EEBC
:1014F000600A00F039F9F0EE408A28EEA80AF0EE12
:10150000408A8248D0ED000AB0EE001A60EE810AEF
:101510009FED7F1A60EE810AB0EE600A00F024F9B8
:10152000B0EE409A29EE090AB0EE409ADFED790A52
:10153000B7EE000A00EEA80ADFED770A00EEC90A4E
:10154000DFED760A20EE200A754880ED000A6E482D
:1015500090ED000ADFED730A80EE201AB7EE000A64
:1015600031EE000A20EE000A6D48D0ED000A80EE50
:10157000801A6D4880ED001A94ED000AB5EEC00A9D
:10158000F1EE10FA0DD194ED010AB5EEC00AF1EEBC
:1015900010FA06D194ED020AB5EEC00AF1EE10FA87
:1015A00046D09FED580AB0EE408A0020019002908C
:1015B0000390D4ED000A60EEA00A94ED011AD4ED78
:1015C000011A41EE210A94ED021AD4ED021A41EEFD
:1015D000210AB0EE600A00F0A9F8B0EE408A94ED5E
:1015E000000A20EE080A8DED010A94ED010A20EEB2
:1015F000080A8DED020A94ED020A20EE080A8DED2C
:10160000030ADDED010AF1EE600AB0EE600AFFF7B1
:10161000FAFEF0EE409A9DED031AF0EE410A9DEDC0
:10162000021AB0EE410AFFF7FAFEB0EE40AA07E058
:101630009FED340AF0EE409A9FED320AB0EE40AAD8
:1016400095ED000AB5EEC00AF1EE10FA0DD195ED58
:10165000010AB5EEC00AF1EE10FA06D195ED020AC4
:10166000B5EEC00AF1EE10FA3CD0B0EE690A00F017
:101670007BF8B0EE408AB0EE690AFFF7E0FEB0EE0C
:1016800040DAB0EE4A0A00F06FF8F0EE40AAB0EE91
:101690004A0AFFF7D4FEB0EE40BA28EE2A0AD5ED8A
:1016A000010A20EE200AD5ED000A0DEE200A68EEB0
:1016B0000B0A95ED021A00EE810AB0EE40CA95EDD4
:1016C000010A20EE0B0AD5ED020A0AEEE00AF0EE5E
:1016D00040CAF0EE6C0AB0EE4C0AFFF7A0FEF0EE46
:1016E00040BA03E09FED070AF0EE40BAB0EE4A1AA6
:1016F000F0EE690AB0EE6B0A304605F003FC00BF5D
:10170000E4E60000000000008402002088020020BF
:1017100035FA8E3CC1BFAD3B9DF8C5362F7C1C41D0
:101720008C020020506CC24A90020020F0EE400A69
:10173000F6EE001A60EEA11AB0EE611AB0EE600A81
:1017400010EE100A0749A1EB600000EE100A21EE2E
:10175000002AF7EE081A42EE401A61EE801AB0EE47
:10176000610A7047DF59375F10B52DED028BB0EE7F
:10177000408AB0EE480AFEF7D1FDBDEC028B10BDE9
:101780002DE9F0412DED028B9AB00546B0EE408A6E
:101790000E461746984600201790189019901490FE
:1017A000159016904DB146B13FB1B8F1000F04D07D
:1017B000B5EEC08AF1EE10FA05D100201AB0BDECEA
:1017C000028BBDE8F08196ED000A8DED170A96EDCB
:1017D000010A8DED180A96ED020A8DED190A97EDB2
:1017E000000A8DED140A97ED010A8DED150A97EDAB
:1017F000020A8DED160A17AA14A9284605F0D4F995
:10180000402104A8FFF7DAFA00200090019002902E
:101810000390002417A904A806F0C3FB00BF30E022
:1018200004A800EB041090ED000AD5ED000A20EEAC
:10183000200A04A800EB0410D0ED010A95ED011A6E
:1018400000EE810A04A800EB0410D0ED020A95ED29
:10185000021A00EE810A04A800EB0410D0ED030A7E
:1018600095ED031A00EE810A20EE080AF0EE000A58
:1018700080EE201A684600EB840080ED001A601CA0
:10188000C4B2042CCCDB002410E005EB840090ED06
:10189000000A684600EB8400D0ED000A30EE200A12
:1018A00005EB840080ED000A601CC4B2042CECDB64
:1018B000284606F015FB012080E710B5044694ED9C
:1018C000030A84ED040A94ED0C0A84ED0D0AA06C61
:1018D00090ED020A84ED030AA06C90ED000AB1EECF
:1018E000400A84ED0C0A94ED030AD4ED040A30EEAC
:1018F000600A84ED060A94ED0C0AD4ED0D0A30EE70
:10190000600A84ED0F0A204600F074FD208830B98B
:10191000A08C20B9002060800021E18409E02088AB
:10192000A0F5347000B26080A08CA0F5077001B201
:10193000E18494ED010A84ED020A94ED0A0A84ED33
:101940000B0AB4F9020000F091F884ED010AB4F931
:10195000260000F08BF884ED0A0A94ED010AD4ED1C
:10196000020A30EE600AD4ED130A80EE201A84EDEC
:10197000051A94ED010AD4ED020A30EE600AD4EDA6
:10198000130A80EE201A84ED0E1A10BD70B50546BC
:101990000C4605F011FCA8649FED300A85ED130A92
:1019A00005F0A6FC2865B7EE000A84ED210A95ED46
:1019B000130A84ED220A9FED2A0A84ED230AB7EE6A
:1019C000000A84ED240A95ED130AF0EE000A80EE79
:1019D000201A84ED311A9FED220A84ED320A9FED20
:1019E000200A84ED330AB7EE000A84ED330A9FED36
:1019F0001B0A84ED290A9FED1A0A84ED2A0A9FED3D
:101A0000180A84ED2B0A9FED150A84ED2C0A9FED30
:101A1000130A84ED2D0A9FED120A84ED2E0A9FED24
:101A2000100A84ED2F0A9FED0D0A84ED300AB7EEFF
:101A3000000A84ED250A9FED0A0A84ED260A9FED2F
:101A4000080A84ED270AB7EE000A84ED280A01226D
:101A50000449054802F0FCFF70BD00006F12833A94
:101A60000000000048020020AC05002010B52DED5C
:101A7000108B86B00446002C01DD204600E0604259
:101A8000B0F5967F25DD2046FFF72BFB41EC1C0BC4
:101A90009FED570B53EC102BFFF742FA41EC1B0B59
:101AA0009FED550B53EC102BFFF7ACFA41EC1A0BE2
:101AB000B0EE4A0AF0EE6A0A04F01EFDB0EE409A5B
:101AC000F0EE609A51EC190BFFF77EFB08EE100A5E
:101AD00087E0002C01DD204600E06042642825DD1F
:101AE0002046FFF7FEFA41EC1C0B9FED410B53EC37
:101AF000102BFFF715FA41EC1B0B9FED410B53EC3C
:101B0000102BFFF77FFA41EC1A0BB0EE4A0AF0EE09
:101B10006A0A04F0F1FCB0EE409AF0EE609A51ECE3
:101B2000190BFFF751FB08EE100A5AE0002C01DDFB
:101B3000214600E061420846FFF7D3FA41EC190B59
:101B4000002C01DD214600E061420846FFF7C9FA9A
:101B500041EC1C0B2046FFF7C4FA41EC1F0B9FED34
:101B6000240B53EC102BFFF7DBF941EC1E0B9FED20
:101B7000240B53EC102BFFF745FACDE900019DED46
:101B8000000B04F0B9FCB0EE40DAF0EE60DA9FED45
:101B90001E0B53EC102B51EC1D0BFFF7C1F953EC4E
:101BA0001C2BCDE902019DED020B51EC100BFFF750
:101BB000B7F941EC1B0B9FED140B53EC102BFFF707
:101BC000AFF941EC1A0B53EC192BFFF7A9F9CDE94A
:101BD00004019DED040B51EC100BFFF7F5FA08EE34
:101BE000100AB0EE480A06B0BDEC108B10BD000024
:101BF000000000000000F03F00000000007097406F
:101C00000000000000E095407B14AE47E17A843F7D
:101C100000BFFEE730B504460D462068A0F2012063
:101C200006281FD2DFE800F00D0E0F10080329462A
:101C30000E4805F041FB16E029460D4805F03CFB37
:101C400011E000BF00BF00BF2078401E09490870A6
:101C5000097801EB8101084A02EB4100294605F0B1
:101C60002BFB00E000BF00BF30BD0000504500204E
:101C70005A4500201C0100206E45002000B58BB0A5
:101C8000002007900120089000200190029003900E
:101C900004900590012009900E200A9000200690E3
:101CA00001A9064800F016FF0221044800F052FE88
:101CB000024801F09AFA0BB000BD00009802002023
:101CC00010B5074B074A0021074800F096FF04496A
:101CD0000448FFF79FFF044801F04DF810BD0000D5
:101CE0001C000020984500209802002010B50348F1
:101CF00001F041F800F0C4FA10BD00009802002085
:101D000070B505460C4640F2FF100A4908600020F5
:101D10008860C86008200861280A074908704D706B
:101D2000200A8870CC70054B0A460249044800F02E
:101D300026FE70BDB44500202501002018010020BA
:101D400098020020014601B97047002019E000EB1D
:101D5000400202EB001301F10C0252F82320B2F909
:101D6000022000EE102AB8EEC00A00EB400202EB9F
:101D7000001301F10C0202EB830282ED020A421C05
:101D8000D0B20428E3DB00BFDEE7000070B50446F4
:101D900004B970BD05F0ACFAA06005F0B5FA20609A
:101DA00005F0A2FA6060002523E0284605F0F4F96A
:101DB00005EB450101EB051204F10C0141F822008D
:101DC00005EB450101EB051204F10C0101EB820169
:101DD00001F110009FED092ADFED081A9FED071AA7
:101DE000DFED060A9FED050A002103F0B9FD681C2E
:101DF000C5B2042DD9DB00BFCBE700000000000016
:101E000070B5054605B970BD002425E004EB44011A
:101E100001EB041205F10C0101EB820191ED031AB3
:101E2000F0EE410A04EB440101EB041205F10C0150
:101E300001EB820191ED021AB0EE410A04EB44017C
:101E400001EB041205F10C0101EB820101F110001C
:101E500003F0A6FC601CC4B2042CD7DB00BFD2E7A1
:101E6000014601B9704700200DE09FED090A00EB23
:101E7000400202EB001301F10C0202EB830282ED3F
:101E8000030A421CD0B20428EFDB00BFEAE70000DF
:101E900000803B4570B52DED068B0446042517E008
:101EA000681E04F1300101EBC00090ED000B084604
:101EB00000EBC50080ED000B681E283901EBC00067
:101EC00090ED000B084600EBC50080ED000B6D1E89
:101ED000002DE5DC94ED000B84ED020B94ED022B5C
:101EE000B0EE420AF0EE620A314890ED002BB0EEFF
:101EF000421AF0EE621A53EC102B51EC110BFFF763
:101F00000FF8C4E90C01012548E004F1300000EBB2
:101F1000C50090ED002BB0EE420AF0EE620A2548B3
:101F200000EBC50090ED002BB0EE421AF0EE621A05
:101F300053EC102B51EC110BFEF7F2FF41EC180B98
:101F400004F1080000EBC50090ED002BB0EE420A52
:101F5000F0EE620A164800EBC50090ED002BB0EEE3
:101F6000421AF0EE621A53EC102B51EC110BFEF7F3
:101F7000D7FF41EC1A0B94ED0C1BB0EE410AF0EECA
:101F8000610A53EC102BFEF724FF41EC190B53ECC4
:101F9000182BFEF7BFFFC4E90C016D1C052DB4DB47
:101FA00094ED0C0B84ED160BBDEC068B70BD0000A0
:101FB000C8010020F001002070B52DED068B04460D
:101FC000032517E0681E04F1300101EBC00090ED1D
:101FD000000B084600EBC50080ED000B681E283999
:101FE00001EBC00090ED000B084600EBC50080ED52
:101FF000000B6D1E002DE5DC94ED000B84ED020B53
:1020000094ED022BB0EE420AF0EE620A444890EDE5
:10201000002BB0EE421AF0EE621A53EC102B51EC8A
:10202000110BFEF77DFFC4E90C01012548E004F126
:10203000300000EBC50090ED002BB0EE420AF0EE50
:10204000620A384800EBC50090ED002BB0EE421A52
:10205000F0EE621A53EC102B51EC110BFEF760FFFF
:1020600041EC180B04F1080000EBC50090ED002BCB
:10207000B0EE420AF0EE620A294800EBC50090ED8E
:10208000002BB0EE421AF0EE621A53EC102B51EC1A
:10209000110BFEF745FF41EC1A0B94ED0C1BB0EE53
:1020A000410AF0EE610A53EC102BFEF792FE41EC70
:1020B000190B53EC182BFEF72DFFC4E90C016D1C16
:1020C000032DB4D394ED0C1BB0EE410AF0EE610A7F
:1020D0009FED151B53EC112B51EC100BFFF75CF827
:1020E00004D29FED110B84ED0C0B12E094ED0C1B50
:1020F000B0EE410AF0EE610A9FED0D1B53EC112B7F
:1021000051EC100BFFF730F803D29FED090B84ED73
:102110000C0B94ED0C0B84ED160BBDEC068B70BD17
:1021200018020020300200200000000000001840CB
:1021300000000000000018C010B5034801F08CF842
:1021400000F09EF810BD00002C06002010B50548D8
:1021500001F082F803F026FC0349044803F06CFC0C
:1021600010BD00008C060020584400206E44002062
:102170000146087810381823B0FBF3F20848805C59
:10218000C865032A05D908686FF30900001D886532
:1021900003E008686FF309008865886D70470000E8
:1021A000308A0008014600208A6A8B69CBB932B1B7
:1021B000012A0DD0022A03D0032A10D10EE000BF5D
:1021C000CB6A03F08073B3F1807F00D1012007E078
:1021D000CB6AB3F1C07F00D1012001E000E000BF75
:1021E00034E08B69B3F5005F1AD132B1012A07D010
:1021F000022A03D0032A11D10AE000BF01200EE019
:10220000CB6A03F08073B3F1807F00D1012006E038
:10221000CB6AB3F1C07F00D1012000E000BF15E020
:1022200032B1012A05D0022A04D0032A0CD103E0DE
:1022300000BF00BF012008E0CB6A03F08073B3F158
:10224000807F00D1012000E000BF00BF704730B5A3
:102250000468246824F4802405682C6004686360A2
:102260008468402C04D10468A2600468E16003E043
:102270000468A1600468E26030BD704770470000E8
:10228000584890F85D00072816D2DFE800F00416E1
:102290002436536683000021524880F85E1052486D
:1022A0000078262804D101214E4880F85D1003E013
:1022B00000214C4880F85D1092E04B4800782528BA
:1022C00004D10221474880F85D1003E00021454811
:1022D00080F85D1084E04348007842490880084651
:1022E00000884149097840EA012000B23D49088050
:1022F00003213C4880F85D1072E03A48008800F401
:102300007F4000B237490880084690F85E003649A1
:1023100009780844C1B2334880F85E10B0F9000073
:102320003149097808432F49088004212D4880F855
:102330005D1055E02B4890F824002A49888408460F
:10234000808C2949097840EA012000B22549888417
:102350000521244880F85D1042E02248808C00F47A
:102360007F4000B21F498884084690F85E001E49ED
:1023700009780844C1B21B4880F85E10B0F9240007
:10238000194909780843174988840621154880F8B7
:102390005D1025E0134890F85E00134909788842E3
:1023A00006D04FF434700F4908804FF407708884CA
:1023B00000210C4880F85D10B0F9000000EE100A12
:1023C000B8EEC00A094880ED000A0648B0F92400BA
:1023D00000EE100AB8EEC00A054880ED000A00BF02
:1023E00000BF7047284B0020480200204C0200200C
:1023F0005002002070470000F0EE401A10B99FED27
:10240000660A704790ED070A80ED080A90ED060A0B
:1024100080ED070AC0ED040AC0ED051A90ED040A2C
:1024200090ED052A30EE420A80ED060A0178E9BBFC
:1024300090ED010A90ED062A20EE020A80ED090ACD
:1024400090ED0A0A90ED022AD0ED062A02EE220A49
:1024500080ED0A0A90ED030A20EE010A80ED0B0AD6
:1024600090ED0A0A90ED0D2AB4EEC20AF1EE10FAD0
:1024700004DD90ED0D0A80ED0A0A10E090ED0A0AE5
:1024800090ED0D2AB1EE422AB4EEC20AF1EE10FA36
:1024900005D290ED0D0AB1EE400A80ED0A0A90EDEA
:1024A000090A90ED0A2A30EE020A00E025E090EDDC
:1024B0000B2A30EE020A80ED0C0A90ED0C0A90ED2A
:1024C0000E2AB4EEC20AF1EE10FA04DD90ED0E0A07
:1024D00080ED0C0A5DE090ED0C0A90ED0E2AB1EE55
:1024E000422AB4EEC20AF1EE10FA52D290ED0E0A70
:1024F000B1EE400A80ED0C0A4BE00178012948D189
:1025000090ED060A90ED072A30EE420A90ED012A7E
:1025100020EE020A80ED090A90ED020A90ED062AEB
:1025200020EE020A80ED0A0A90ED030A20EE010A6D
:1025300080ED0B0A90ED090A90ED0A2A30EE020AAE
:1025400090ED0B2A30EE020A90ED0C2A30EE020AD2
:1025500080ED0C0A90ED0C0A90ED0E2AB4EEC20A42
:10256000F1EE10FA04DD90ED0E0A80ED0C0A10E099
:1025700090ED0C0A90ED0E2AB1EE422AB4EEC20A9A
:10258000F1EE10FA05D290ED0E0AB1EE400A80EDA0
:102590000C0A90ED0C0A34E70000000010B5044668
:1025A00004B910BDA06890ED000A84ED040AA0688B
:1025B00090ED020A84ED2C0A606890ED020A84ED29
:1025C000060A94ED0A1AF0EE410A94ED061AB0EEEE
:1025D000410A02F0E3FF84ED060A606890ED000A0C
:1025E00084ED2E0A94ED321AF0EE410A94ED2E1A83
:1025F000B0EE410A02F0D2FF84ED2E0AB4F8A41026
:10260000E268108802F0F0FF84ED080AB4F8441183
:10261000D4F8AC20108802F0E7FF84ED300A00BF48
:10262000BFE7000010B5044604F0CAFDE06004F006
:10263000CBFDC4F8AC0004F0BBFD606004F0BCFD51
:10264000A06004F055FE206004F056FEC4F8480176
:1026500004F056FEC4F8A8009FED222AF2EE041AF8
:102660009FED211ADFED210A9FED210A002104F1DF
:10267000CC0003F075F9BFEE002AF0EE001A9FEDD2
:102680001D1AF7EE000AB2EE080A002104F5847064
:1026900003F066F99FED132AF2EE041A9FED161A65
:1026A000DFED120A9FED120A002104F12C0003F065
:1026B00057F99FED122ADFED0B1AB3EE041AF7EE6D
:1026C000000A9FED0F0A002104F1680003F048F9A9
:1026D00040F28A21A4F8A4104FF41671A4F8441112
:1026E00010BD0000000000000080BB450000C84293
:1026F00000409C4600000C4200409C45333333BFF1
:102700009A99214110B52DED028B0446D4ED041A9F
:10271000B0EE611AD4ED091AF0EE610AD4ED081A90
:10272000B0EE610A04F16800FFF766FE94ED260A38
:1027300084ED050A94ED051AF0EE410A94ED041AB1
:10274000B0EE410A04F12C0003F02AF8D4ED2C1A63
:10275000B0EE611AD4ED311AF0EE610AD4ED301A00
:10276000B0EE610A04F58470FFF746FE94ED4E0A60
:10277000D4ED2C0A30EE600A10EE101A0846FEF76F
:10278000E0FC114A03C21048FFF716FC0E4890ED1A
:10279000161BB0EE410AF0EE610A51EC100B81F00D
:1027A000004141EC180BFEF70FFDB4210851D4EDA8
:1027B0002D0AB0EE600ADFED050A04F1CC0002F04C
:1027C000EFFFBDEC028B10BD184900200000000097
:1027D00038B5044605F09EFF00909FED2C0A84ED6D
:1027E0000A0A9FED2A0A84ED320A29E02046FFF703
:1027F000D5FE274800F050F82548FFF783FF24480E
:1028000090ED170A10EE101A0846FEF79AFC214ABE
:1028100003C22048FFF73EFB1E4890ED161BB0EEAA
:10282000410AF0EE610A51EC100BFEF76BFC05B2A9
:1028300000212846FFF764FA0121684605F01EF8DA
:10284000E0680188B4F8A400081A002805DDE068F3
:102850000188B4F8A400081A04E0B4F8A400E16800
:102860000988401A3228C1DC94ED060AD4ED080A22
:1028700030EE600A84ED0A0A94ED2E0AD4ED300A97
:1028800030EE600A84ED320A38BD0000000000001E
:10289000084700205848002010B52DED068B04464F
:1028A0002068007A38B99FED250A84ED090AB0EE58
:1028B000000A84ED310A22480078401C2049087043
:1028C00008460078082813D1002008702068007A94
:1028D00001280DD19FED190A84ED090A94ED300A03
:1028E000D4F84801D0ED070A30EE600A84ED310AD1
:1028F0002068007A03281ED19FED100A84ED090A92
:102900002168B1F90000FEF7ECFB41EC1A0B9FEDDA
:102910000D0B53EC102BFEF703FB41EC190B9FED55
:102920000B0B53EC102BFEF76DFB41EC180BFEF775
:102930004BFCC4210851BDEC068B10BD000000000B
:102940004C010020000000000000F03F00000000EB
:1029500000407F4010B5024692F82030012B01D094
:10296000022B06D11068406908431468606100209A
:1029700010BD506A40F4802050620120F8E7F0B5A5
:1029800004460D461E4694F8207020688368A868A7
:1029900000B900E000BF012F01D0022F7CD103F06D
:1029A000806030B903F0006018B903F0805000284F
:1029B00073D0C3F30161022905D9606A40F40000B5
:1029C00060620120F0BD012088403060A86860B9D5
:1029D000B5F800C0E86840EA4C5C206800F5C070BB
:1029E00000EB0110C0F800C00FE0D5E901C040EADB
:1029F000CC00D5F80CC040EA0C00D4F800C00CF5AF
:102A0000C07C0CEB011CCCF80000D5F810C020688D
:102A100000F5C07000EB0110C0F804C0287D01284B
:102A20000ED1206800F5C07000EB0110406840F442
:102A3000807C206800F5C07000EB0110C0F804C075
:102A4000D079000692F806C040EA0C4092F805C022
:102A500040EA0C2C10794CEA000C206800F5C0709C
:102A600000EB0110C0F80CC0D078000692F802C04C
:102A700040EA0C4092F801C040EA0C2092F800C0F5
:102A800040EA0C00D4F800C00CF5C07C0CEB011C33
:102A9000CCF80800206801E016E00FE000F5C070F7
:102AA00000EB0110006840F0010C206800F5C070D8
:102AB00000EB0110C0F800C0002083E7606A40F41A
:102AC0000010606201207DE7606A40F4802060624F
:102AD000012077E7F0B504460A46216894F82050B3
:102AE000012D01D0022D7ED1424901F50071086807
:102AF00040F001000860086820F47C500860086815
:102B0000566A40EA06200860107D00F01F0601208A
:102B100000FA06F3C8699843C861A1F50071D0694D
:102B2000C8B9D1F80C029843C1F80C02908880B261
:102B3000968940EA064601F51070576940F83760FB
:102B4000108880B2168940EA064601F51070576970
:102B500000EBC7004660D069012819D1D1F80C02FA
:102B60001843C1F80C02908880B2168840EA0646E5
:102B700001F51070576940F83760908980B2168966
:102B800040EA064601F51070576900EBC700466041
:102B9000906928B9D1F804029843C1F8040204E00E
:102BA000D1F804021843C1F80402106928B9D1F819
:102BB00014029843C1F8140204E0D1F81402184337
:102BC000C1F81402106A012804D1D1F81C0218437C
:102BD000C1F81C02D1F8000220F00100C1F8000287
:102BE0000020F0BDFFE7606A40F4802060620120B1
:102BF000F7E7000000640040704770B5044694F8A1
:102C00002050012D01D0022D7CD151B92068C0681F
:102C100000F0030080B9606A40F400106062012097
:102C200070BD2068006900F0030028B9606A40F4B4
:102C3000001060620120F3E7206800F5D87000EB17
:102C40000110006800F004009060906840B92068AE
:102C500000F5D87000EB01100068400D106007E02F
:102C6000206800F5D87000EB01100068C0085060C3
:102C7000206800F5D87000EB0110006800F0020039
:102C80004008D060206800F5D87000EB0110406863
:102C900000F00F001061206800F5D87000EB011003
:102CA000406800F47F40000A9061206800F5D87009
:102CB00000EB01104068000C5061206800F5D870EE
:102CC00000EB011080681870206800F5D87000EBE8
:102CD0000110806800F47F40000A5870206800F5F9
:102CE000D87000EB0110806800F47F00000C987031
:102CF000206800F5D87000EB01108068000ED870D5
:102D0000206800E031E000F5D87000EB0110C068E9
:102D10001871206800F5D87000EB0110C06800F44D
:102D20007F40000A5871206800F5D87000EB011050
:102D3000C06800F47F00000C9871206800F5D8701E
:102D400000EB0110C068000ED87131B92068C0686E
:102D500040F020002668F06005E02068006940F03F
:102D600020002668306100205AE7606A40F4802025
:102D70006062012054E72DE9F05F044600252068D9
:102D800046692068D0F80490206887682068D0F8E9
:102D90000CA02068D0F810B02068D0F8188006F099
:102DA0000100002855D007F00100C0B101202168C2
:102DB000886007F0020018B1204600F046FA0EE0E5
:102DC00007F0040010B145F4006508E007F00800C2
:102DD00010B145F4805502E0204600F035FA07F4C2
:102DE0008070C8B14FF480702168886007F400706B
:102DF00018B1204600F02BFA0EE007F4806010B105
:102E000045F4005508E007F4006010B145F4804532
:102E100002E0204600F01AFA07F48030C8B14FF4FF
:102E200080302168886007F4003018B1204600F037
:102E300010FA0EE007F4802010B145F4004508E0D8
:102E400007F4002010B145F4803502E0204600F080
:102E5000FFF906F0080038B10AF0100020B145F47F
:102E6000007510202168C86006F0040040B10AF027
:102E7000080028B108202168C860204600F0B0F999
:102E800006F0020038B12068C06800F0030010B1FD
:102E9000204600F0A6F906F0400038B10BF0100013
:102EA00020B145F4806510202168086106F02000FB
:102EB00040B10BF0080028B10820216808612046C5
:102EC00000F090F906F0100038B12068006900F0B9
:102ED000030010B1204600F086F906F4003040B13E
:102EE00009F0100028B1102021684860204600F049
:102EF0007BF906F4803040B109F0080028B10820C1
:102F000021684860204600F0A5F906F4004088B327
:102F100009F0040078B306F4807020B108F00100D5
:102F200008B145F0010506F4007020B108F0020078
:102F300008B145F0020506F4806020B108F00400F5
:102F400008B145F0040506F40060A0B108F0700077
:102F500088B108F07000402817D006DC10280BD08C
:102F600020280CD0302819D10CE0502810D060282F
:102F700014D110E01DE019E045F008050FE045F020
:102F800010050CE045F0200509E045F0400506E09D
:102F900045F0800503E045F4807500E000BF00BF08
:102FA0002068806920F07000216888610420216811
:102FB00048602DB1606A284360622046FFF71CFE1E
:102FC000BDE8F09F70B504460CB9012070BD94F8BF
:102FD000200010B9204600F0AFF82068006820F00B
:102FE00002002168086000F031FC05460DE000F0A9
:102FF0002DFC401B0A2808D9606A40F4003060624A
:10300000052084F820000120E0E72068406800F0F7
:1030100002000028EBD12068006840F00100216820
:10302000086000F013FC05460DE000F00FFC401BAB
:103030000A2808D9606A40F400306062052084F8EC
:1030400020000120C2E72068406800F0010000284D
:10305000EBD0207E012806D12068006840F0800077
:103060002168086005E02068006820F08000216881
:103070000860607E012806D12068006840F04000AA
:103080002168086005E02068006820F040002168A1
:103090000860A07E012806D12068006840F020006A
:1030A0002168086005E02068006820F020002168A1
:1030B0000860E07E012806D12068006820F010003A
:1030C0002168086005E02068006840F01000216871
:1030D0000860207F012806D12068006840F00800C1
:1030E0002168086005E02068006820F00800216879
:1030F0000860607F012806D12068006840F0040065
:103100002168086005E02068006820F0040021685C
:103110000860D4E902010843216908436169084352
:103120006168491E08432168C8610020606201206F
:1031300084F82000002049E710B586B00446142129
:1031400001A8FDF73BFE2349206888423FD100BF1C
:10315000002000902048006840F000701E49086080
:103160000846006800F00070009000BF00BF00BF7C
:103170000020009018481038006840F008001649F8
:10318000103908600846006800F00800009000BF91
:1031900000BF032001900220029000200390032032
:1031A00004900920059001A90C4800F03BFA002288
:1031B0000521132000F047FC132000F034FC00220E
:1031C0000321142000F03FFC142000F02CFC06B07A
:1031D00010BD00000064004040380240000C024076
:1031E0007047704770477047704770B5044694F851
:1031F0002000012822D1022084F8200020680068E5
:1032000020F001002168086000F020FB05460DE079
:1032100000F01CFB401B0A2808D9606A40F400300B
:103220006062052084F82000012070BD206840689D
:1032300000F001000028EBD16062F6E7606A40F41C
:10324000002060620120F0E77047704770477047C8
:103250007047704770470000F8B5044600200090A2
:103260008C4800684FF41651B0FBF1F7A56D2E683D
:1032700094F85C1008208840304098B120680068BD
:1032800000F0040070B12068006820F0040021689C
:10329000086094F85C1008208840A860606D40F0D9
:1032A0000100606594F85C1001208840304068B1EE
:1032B0002068406900F0800040B194F85C10012063
:1032C0008840A860606D40F00200606594F85C1072
:1032D00004208840304068B12068006800F0020097
:1032E00040B194F85C1004208840A860606D40F004
:1032F0000400606594F85C1010208840304078B37A
:103300002068006800F0080050B394F85C101020AA
:103310008840A8602068006800F4802080B12068A0
:10332000006800F4002028B9206CC8B12046216C48
:10333000884715E0A06C98B12046A16C88470FE043
:103340002068006800F4807028B92068006820F0C8
:10335000080021680860206C10B12046216C884765
:1033600094F85C10202088403040002865D0206808
:10337000006800F0100000285FD094F85C10202056
:103380008840A86094F83500052828D12068006896
:1033900020F01600216808602068406920F0800055
:1033A00021684861206C08B9A06C28B120680068C9
:1033B00020F008002168086094F85C103F208840E5
:1033C000A86000BF002084F8340000BF012084F80A
:1033D0003500206D10B12046216D8847F8BD20686A
:1033E000006800F4802080B12068006800F40020AC
:1033F00028B9606C10B12046616C88471DE0E06B15
:10340000D8B12046E16B884717E02068006800F4D7
:10341000807068B92068006820F01000216808609A
:1034200000BF002084F8340000BF012084F835007C
:10343000E06B10B12046E16B8847606D38B3606D7A
:1034400000F00100F0B1052084F835002068006824
:1034500020F001002168086000BF0098401C009027
:10346000B84200D905E02068006800F0010000289B
:10347000F3D100BF00BF002084F8340000BF01205A
:1034800084F83500E06C10B12046E16C884700BF3D
:10349000A4E70000300000202DE9F041044600259B
:1034A00000F0D4F9074614B90120BDE8F081606A44
:1034B00000B100BF00BF002084F8340000BF02202C
:1034C00084F835002068006820F001002168086059
:1034D0000AE000F0BBF9C01B052805D92020606573
:1034E000032084F83500E0E72068006800F0010060
:1034F0000028EED12068056821480540D4E9010183
:103500000843E16808432169084361690843A169E8
:103510000843E1690843216A08430543606A0428B7
:1035200003D1D4E90B0108430543206805602068F6
:10353000456925F00705606A0543606A04280DD1D6
:10354000A06A0543E06A48B12046FEF72BFE28B189
:1035500040206065012084F83500A6E720684561B9
:103560002046FEF705FE064694F85C103F20884092
:10357000B06000206065012084F83500002094E7E9
:103580003F8010F02DE9F04704460D4616461F46D1
:103590004FF00008D4F8589000BF94F83400012888
:1035A00002D10220BDE8F087012084F8340000BF7A
:1035B00094F8350001282BD1022084F83500002032
:1035C00060653B46324629462046FEF740FE94F8A9
:1035D0005C103F208840C9F808002068006840F06F
:1035E0001600216808602068406940F0800021686A
:1035F0004861206C28B12068006840F0080021680C
:1036000008602068006840F001002168086006E05A
:1036100000BF002084F8340000BF4FF0020840468D
:10362000C0E70000F8B502460B4600250024002044
:103630000021E6E0012606FA01F51E6806EA050407
:10364000AC4273D15E68022E02D05E68122E13D196
:10365000CF0802F1200656F827004E07F70E0F2676
:10366000BE40B0434F07FF0E1E69BE403043CF0837
:1036700002F1200646F8270010684F000326BE40DE
:10368000B0431E7906F003064F00BE403043106081
:103690005E68012E08D05E68022E05D05E68112E8D
:1036A00002D05E68122E13D190684F000326BE40F0
:1036B000B0434F00DE68BE40304390605068012642
:1036C0008E40B0431E79C6F300168E4030435060E2
:1036D000D0684F000326BE40B0434F009E68BE40F6
:1036E0003043D0605E6806F08056B6F1805FA8D1A6
:1036F00000BF00260096454E366846F48046434F8C
:103700003E603E46366806F48046009600BF00BF25
:103710003F4E8F0856F827008E07370F0F26BE4002
:10372000B0433C4EB24202D100262EE068E03A4E51
:10373000B24201D1012628E0384EB24201D1022620
:1037400023E0374EB24201D103261EE0354EB2428D
:1037500001D1042619E0344EB24201D1052614E00D
:10376000324EB24201D106260FE0314EB24201D1B3
:1037700007260AE02F4EB24201D1082605E02E4E60
:10378000B24201D1092600E00A268F073F0FBE4052
:1037900030431F4E8F0846F82700284E3068A0435C
:1037A0005E6806F48036B6F5803F00D12043234E94
:1037B0003060361D3068A0435E6806F40036B6F50A
:1037C000003F00D120431D4E361D3060361D30684D
:1037D000A0435E6806F48016B6F5801F00D1204332
:1037E000164E08363060361D3068A0435E6806F419
:1037F0000016B6F5001F00D12043104E0C36306085
:10380000491C1029FFF416AFF8BD000044380240EF
:103810000838014000000240000402400008024055
:10382000000C024000100240001402400018024048
:10383000001C02400020024000240240003C0140E5
:103840000AB1816101E00B0483617047014800689F
:1038500070470000240000200348006803490978ED
:103860000844014908607047240000202C00002013
:1038700010B50D48006840F400700B490860084618
:10388000006840F4806008600846006840F480707A
:103890000860032000F016F9002000F007F800F09F
:1038A0004BF8002010BD0000003C024070B588B00D
:1038B00004460025002600222146192000F0C3F806
:1038C000192000F0B0F800BF0020019016480068F1
:1038D00040F00100144908600846006800F001004B
:1038E000019000BF00BF02A903A800F005FA00F094
:1038F0003BFA45000D48B5FBF0F0461E0C480D495B
:10390000086040F2E7310B48C16046600021016168
:10391000816000F056FE20B9064800F06DFE08B048
:1039200070BD0120FBE700004438024040420F0018
:1039300000000140EC06002008B500BF0020009008
:103940001148006840F480400F490860084600684C
:1039500000F48040009000BF00BF00BF0020009036
:10396000081F006840F08050091F08600846006882
:1039700000F08050009000BF00BF00220F21901E79
:1039800000F061F808BD00004438024070B50446FC
:103990000D4616460CB9012070BD94F8390028B9BF
:1039A000002084F83800204600F052FF242084F8DC
:1039B00039002068C06820F400502168C8602046A3
:1039C00002F0D8FA2068006920F49040216808616C
:1039D0002068406920F02A00216848612068006959
:1039E00020F00F00216808612068006928432168E1
:1039F00008612068C06820F400602168C860206801
:103A0000C06830432168C8602068C06840F4005036
:103A10002168C8600020E063202084F8390084F821
:103A20003A000020B8E701460846002809DB00F00C
:103A30001F0301229A4043099B0003F1E023C3F8CE
:103A4000002100BF70472DE9F05F80460D46164605
:103A5000002702F09DFC074639462A46334601F00E
:103A60000700C0F1070ABAF1040F02D94FF0040AA7
:103A700001E0C0F1070AD14600F1040ABAF1070FCC
:103A800002D24FF0000A01E0A0F1030AD4464FF041
:103A9000010A0AFA09FAAAF1010A0AEA020A0AFA6A
:103AA0000CFA4FF0010B0BFA0CFBABF1010B0BEA1C
:103AB000030B4AEA0B042146404602F071FCBDE8C4
:103AC000F09F000000BF00F00702064B19684FF698
:103AD000FF031940044B0B4343EA0221014B1960D9
:103AE00000BF70470CED00E00000FA0538B5002477
:103AF00000BF002000901D48006840F080501B4926
:103B000008600846006800F08050009000BF00BFC9
:103B1000012017490864FFF799FE044607E0FFF704
:103B200095FE001BB0F57A7F01D9032038BD1148FE
:103B3000406800F48030B0F5803FF0D101200C499E
:103B40004864FFF783FE044607E0FFF77FFE001B93
:103B5000B0F57A7F01D90320E8E70648406800F411
:103B60000030B0F5003FF0D10020DFE740380240E0
:103B700000000E420070004070B504460D460CB9BE
:103B8000012070BD5848006800F00F00A84209D21B
:103B900055490D700846006800F00F00A84201D09A
:103BA0000120EEE7207800F0020002281DD12078E5
:103BB00000F00400042805D14C48006840F4E050AF
:103BC0004A490860207800F00800082805D14748D5
:103BD000006840F46040454908604448006820F0AF
:103BE000F000A168084341490860207800F0010016
:103BF000A8B36068012807D13C4808380068C0F3C2
:103C00004040B8B90120BCE76068022802D0606873
:103C1000032807D1354808380068C0F3406048B928
:103C20000120AEE7314808380068C0F3400008B909
:103C30000120A6E72D48006820F0030061680843D2
:103C40002A490860FFF702FE064609E0FFF7FEFD7D
:103C5000801B41F28831884202D9032091E707E0B6
:103C60002248006800F00C006168B0EB810FEDD1D4
:103C70001D48006800F00F00A84209D91A490D70CC
:103C80000846006800F00F00A84201D0012078E744
:103C9000207800F00400042807D11448006820F4BC
:103CA000E050E168084311490860207800F00800FE
:103CB000082808D10D48006820F46040216940EAD6
:103CC000C1000A49086000F05FF808490968C1F3BB
:103CD0000311074A515CC840064908600020FFF7FD
:103CE000E5FD00204DE70000003C0240083802409E
:103CF000388A0008300000200F2202600D4A126846
:103D000002F0030242600B4A126802F0F002826085
:103D1000084A126802F4E052C260064A126802F4CD
:103D20006042D2080261044A126802F00F020A607F
:103D30007047000008380240003C0240014800681B
:103D4000704700003000002000B5FFF7F7FF04497E
:103D50000968C1F38221034A515CC84000BD0000DC
:103D600008380240488A000800B5FFF7E7FF044919
:103D70000968C1F34231034A515CC84000BD0000EC
:103D800008380240488A00082DE9F0470024002541
:103D90000026A1462548006800F00C0020B1042848
:103DA00005D008283AD105E0DFF8849039E0DFF843
:103DB000849036E01D48001F006800F03F041B4857
:103DC000001F006800F4800078B11A481749091FE5
:103DD0000968C1F38811A0FB017001462246002347
:103DE0003846FCF7A1FF05460EE011480F49091FB0
:103DF0000968C1F38811A0FB017001462246002327
:103E00003846FCF791FF05460848001F0068C0F3DC
:103E10000140401C4600B5FBF6F902E0DFF81090C7
:103E200000BF00BF4846BDE8F087000008380240E8
:103E30000024F400001BB700F8B504460CB90120BB
:103E4000F8BD207800F00100002874D0F94800681F
:103E500000F00C0004280DD0F648006800F00C00BB
:103E6000082813D1F348001F006800F48000B0F563
:103E7000800F0BD1EF4808380068C0F3404000289D
:103E800059D06068002856D10120D9E700BF60688A
:103E9000B0F5803F08D1E7480838006840F480302A
:103EA000E449083908601EE06068B0F5A02F0DD124
:103EB000E0480838006840F48020DE49083908608E
:103EC0000846006840F4803008600CE0D9480838A3
:103ED000006820F48030D749083908600846006837
:103EE00020F48020086000BF606890B1FFF7AEFC4E
:103EF000054606E0FFF7AAFC401B642801D9032011
:103F00009EE7CC4808380068C0F340400028F1D054
:103F100011E0FFF79BFC054606E0FFF797FC401B0E
:103F2000642801D903208BE7C24808380068C0F331
:103F300040400028F1D1207800F0020002285FD133
:103F4000BC48006800F00C0058B1BA48006800F0A6
:103F50000C0008281CD1B748001F006800F480003E
:103F6000B0B9B44808380068C0F3400020B1E06838
:103F7000012801D0012063E7AE480838006820F02E
:103F8000F800216940EAC100AA490839086037E011
:103F9000E06800B30120A8490860FFF757FC054618
:103FA00006E0FFF753FC401B022801D9032047E736
:103FB000A04808380068C0F340000028F1D09D48B0
:103FC0000838006820F0F800216940EAC1009949EA
:103FD0000839086014E0002097490860FFF736FCB4
:103FE000054606E0FFF732FC401B022801D90320FA
:103FF00026E7904808380068C0F340000028F1D157
:10400000207800F0080008282CD16069A8B10120B0
:104010008A490860FFF71AFC054606E0FFF716FC20
:10402000401B022801D903200AE782486C3000684F
:10403000C0F340000028F1D014E000207F49086060
:10404000FFF704FC054606E0FFF700FC401B0228D2
:1040500001D90320F4E677486C300068C0F34000D3
:104060000028F1D1207800F00400042870D1002647
:1040700070483830006800F0805090B900BF0020D0
:1040800000906C483830006840F080506949383101
:1040900008600846006800F08050009000BF00BF34
:1040A00001266748006800F48070B0B96448006871
:1040B00040F4807062490860FFF7C8FB054606E0DF
:1040C000FFF7C4FB401B022801D90320B8E65C4877
:1040D000006800F480700028F2D000BFA0680128BA
:1040E00008D154486830006840F0010051496831F7
:1040F00008601DE0A06805280DD14E4868300068B2
:1041000040F004004B49683108600846006840F000
:10411000010008600CE047486830006820F00100AA
:104120004449683108600846006820F004000860CF
:1041300000BFA068A8B1FFF789FB054609E0FFF7BB
:1041400085FB401B41F28831884202D9032077E683
:1041500026E0384868300068C0F340000028EED000
:1041600013E0FFF773FB054608E0FFF76FFB401B0A
:1041700041F28831884201D9032061E62D48683038
:104180000068C0F340000028EFD1012E07D1294874
:104190003830006820F0805026493831086000BF70
:1041A000A069B8B32348006800F00C0008285ED06E
:1041B000A069022846D100201F490866FFF746FB88
:1041C000054606E0FFF742FB401B022801D9032009
:1041D00036E6184808380068C0F340600028F1D17E
:1041E000D4E907010843616A40EA81110122A06A0B
:1041F000C2EB500041EA00412C20005D41EA006022
:104200000C49091F086001200B490866FFF71EFBD7
:10421000054607E02DE0FFF719FB401B022801D9F6
:1042200003200DE6034808380068C0F3406000280A
:10423000F1D01EE00838024000004742800E47429D
:104240000070004000200C490866FFF7FFFA0546A1
:1042500006E0FFF7FBFA401B022801D90320EFE537
:1042600006480068C0F340600028F2D101E0012058
:10427000E6E50020E4E50000000047420038024087
:1042800010B504460CB9012010BD606A00B900BF2A
:104290000021A16294F8510028B9002084F8500050
:1042A000204600F033F8022084F8510020680068AE
:1042B00020F0400021680860D4E901010843E1686A
:1042C00008432169084361690843218B01F40071A7
:1042D0000843E1690843216A0843A16A0843216849
:1042E00008600421A06901EA1040616A084321685E
:1042F00048602068C06920F400602168C86100201F
:104300006065012084F851000020BDE710B586B03B
:104310000446142101A8FCF751FD1B49206888427E
:1043200030D100BF002000901848006840F4801091
:10433000164908600846006800F48010009000BF2D
:1043400000BF00BF0020009010481438006840F003
:1043500020000E49143908600846006800F020006B
:10436000009000BF00BF4FF46070019002200290E7
:1043700000200390032004900520059001A9044823
:10438000FFF750F906B010BD00500140443802401C
:10439000001402402DE9FF5F0446884691461D4601
:1043A0000E9E012002900020019000BF94F8500062
:1043B000012803D1022004B0BDE8F09F012084F859
:1043C000500000BFFFF742FA074694F851B060680A
:1043D0000390AA46BBF1010F0BD00398B0F5827F82
:1043E00004D1A06810B9BBF1040F02D002200190E3
:1043F000DBE0B8F1000F03D0B9F1000F00D015B920
:1044000001200190D1E094F85100042802D0052049
:1044100084F8510000206065C4F83890E587A587CE
:10442000C4F83080E586A586206460642068006852
:1044300000F04000402805D02068006840F04000AF
:1044400021680860E068B0F5006F4AD1606810B17B
:10445000BAF1010F09D1206B00882168C860206B78
:10446000801C2063E08E401EE08633E02068806878
:1044700000F00200022810D1E08E70B102980128ED
:104480000BD1206B00882168C860206B801C2063E2
:10449000E08E401EE086002002902068806800F0D8
:1044A000010068B1E08F58B12068C068A16B088036
:1044B000A06B801CA063E08F401EE087012002906B
:1044C000FFF7C4F9C01BB04204D3701C10B1032025
:1044D00001906AE0E08E0028C8D1E08F0028C5D1A5
:1044E0004AE0606810B1BAF1010F09D1206B007881
:1044F00021680873206B401C2063E08E401EE0861C
:1045000034E02068806800F00200022810D1E08EBC
:1045100070B1029801280BD1206B007821680873D4
:10452000206B401C2063E08E401EE086002002903D
:104530002068806800F0010068B1E08F58B1206801
:10454000C068A16B0870A06B401CA063E08F401E88
:10455000E08701200290FFF779F9C01BB04201D338
:10456000701C00B916B9032001901EE0E08E0028EF
:10457000C7D1E08F0028C4D13A463146204601F029
:10458000ADFA20B101200190202060650DE0A06807
:1045900050B900BF002000902068C06800902068DB
:1045A0008068009000BF00BF00BF012084F8510068
:1045B00000BF002084F8500000BF0198FBE6704760
:1045C000704710B504460CB9012010BD94F83D00A9
:1045D00028B9002084F83C00204600F00CF80220A6
:1045E00084F83D00211D206801F0ECFB012084F8D7
:1045F0003D000020E9E7704701460868C06840F0C8
:1046000001000B68D8600868806800F00702062A7D
:1046100005D00868006840F001000B6818600020B1
:104620007047704710B5044620680069C0F3400029
:10463000D8B12068C068C0F34000B0B16FF002008C
:1046400021680861012020772068806900F003005C
:1046500018B12046FFF7E5FF05E0204600F0ADF871
:10466000204600F0ABF80020207720680069C0F3F6
:104670008000D8B12068C068C0F38000B0B16FF08E
:10468000040021680861022020772068806900F416
:10469000407018B12046FFF7C4FF05E0204600F047
:1046A0008CF8204600F08AF8002020772068006906
:1046B000C0F3C000D8B12068C068C0F3C000B0B17A
:1046C0006FF0080021680861042020772068C06925
:1046D00000F0030018B12046FFF7A3FF05E02046D5
:1046E00000F06BF8204600F069F800202077206881
:1046F0000069C0F30010D8B12068C068C0F3001092
:10470000B0B16FF0100021680861082020772068A0
:10471000C06900F4407018B12046FFF782FF05E041
:10472000204600F04AF8204600F048F800202077A4
:104730002068006900F0010058B12068C06800F0EE
:10474000010030B16FF0010021680861204600F0DF
:1047500037F820680069C0F3C01058B12068C068FD
:10476000C0F3C01030B16FF08000216808612046AE
:10477000FFF725FF20680069C0F3801058B120685A
:10478000C068C0F3801030B16FF04000216808614C
:10479000204600F021F820680069C0F3401058B1AD
:1047A0002068C068C0F3401030B16FF0200021686D
:1047B00008612046FFF704FF10BD704770470000F6
:1047C00010B5044603492068884201D1FFF744F838
:1047D00010BD0000000001407047704710B504464E
:1047E0000CB9012010BDA06900B100E000BF94F831
:1047F000390028B9002084F83800204600F028F855
:10480000242084F839002068C06820F40050216812
:10481000C860204601F0AEFB2068006920F490409B
:10482000216808612068406920F02A0021684861F9
:104830002068C06840F400502168C8600020E06330
:10484000202084F8390084F83A000020CAE70000EC
:1048500010B586B00446142101A8FCF7AFFA7149DF
:104860002068884230D100BF002000906E48006868
:1048700040F400206C4908600846006800F40020FD
:10488000009000BF00BF00BF0020009066481038B5
:10489000006840F00100644910390860084600686B
:1048A00000F00100009000BF00BF03200190022033
:1048B000029001200390032004900820059001A994
:1048C0005A48FEF7AFFEAAE05949206888424ED107
:1048D00000BF002000905448006840F0004052495A
:1048E00008600846006800F00040009000BF00BF6C
:1048F00000BF002000904C481038006840F01000C5
:104900004949103908600846006800F0100000901E
:1049100000BF00BF032001900220029001200390FD
:10492000032004900820059001A94248FEF77AFE72
:104930004148424908600005486000213F488160C5
:10494000C1604FF4806101610021416181614FF4D8
:104950008071C161002101624162FEF79DFD08B1D5
:10496000FDF78CFC00BF35486063846357E0344931
:104970002068884253D100BF002000902A48001DC3
:10498000006840F010002849091D086008460068CA
:1049900000F01000009000BF00BF00BF002000909A
:1049A00021481038006840F002001F4910390860A3
:1049B0000846006800F00200009000BF00BFC02061
:1049C0000190022002900020039003200490072011
:1049D000059001A91B48FEF725FE1B481B490860EE
:1049E0004FF000604860002118488160C1604FF4BA
:1049F000806101610021416181614FF48071C16179
:104A00004FF44031016200214162FEF745FD08B1DB
:104A1000FDF734FC00BF0D486063846300BF06B03F
:104A200010BD0000004C0040403802400000024031
:104A3000007C004000100240A06002402C060020D4
:104A40000010014000040240406402408C06002037
:104A500077B581B00446154694F83A00202850D125
:104A6000029800B115B9012004B070BD00BF94F8E0
:104A70003800012801D10220F6E7012084F838002F
:104A800000BF0298A062A5850020E063222084F880
:104A90003A001D48616BC8631C48616B08641C4880
:104AA000616BC8640020616B086502AE32682368E0
:104AB000191D2B46606BFEF765FD00BF00200090BE
:104AC00020680068009020684068009000BF00BF28
:104AD00000BF002084F8380000BF2068C06840F4A0
:104AE00080702168C8602068406940F0010021683A
:104AF00048612068406940F040002168486100201A
:104B0000B2E70220B0E70000ED5E0008335F000866
:104B10009D5E00087047704700BFFEE7F0B5054690
:104B2000059C00207FE093ED030A00EB4006404F18
:104B300007EB8606D6ED000A20EE200AD3ED040A24
:104B400000EB400607EB860696ED011A00EE810A9F
:104B5000D3ED050A00EB400607EB860696ED021A38
:104B600000EE810A334E06EB8006D6ED000A30EEE9
:104B7000200A05EB800686ED000A93ED000A00EBA3
:104B800040062D4F07EB8606D6ED000A20EE200AE0
:104B9000D3ED010A00EB400607EB860696ED011AFD
:104BA00000EE810AD3ED020A00EB400607EB860611
:104BB00096ED021A00EE810A204E06EB8006D6ED35
:104BC000000A30EE200A01EB800686ED000A94ED23
:104BD000000A00EB40061A4F07EB8606D6ED000AE6
:104BE00020EE200AD4ED010A00EB400607EB860612
:104BF00096ED011A00EE810AD4ED020A00EB4006A0
:104C000007EB860696ED021A00EE810A0D4E06EBC2
:104C10008006D6ED000A30EE200A02EB800686ED13
:104C2000000A461CF0B20328FFF67DAFF0BD00007D
:104C3000A00000208C440020C400002098440020E4
:104C4000E8000020A44400201548D0F8480190ED69
:104C5000070ADFED140A20EE200A134880ED000A4F
:104C60000F480068407A00EE100AB8EE400A0F487C
:104C700080ED000A0A4890ED300ADFED0D0A20EEC3
:104C8000200A0C4880ED000A054890ED310ADFED5E
:104C9000050A20EE200A084880ED000A704700004F
:104CA000084700200000C8425001002054010020A5
:104CB00000007A44580100205C010020064890ED75
:104CC000070A064880ED000A034890ED080A0448E8
:104CD00080ED000A70470000284B00205802002099
:104CE0005402002001223C210B48FEF7A9FD00BF21
:104CF00000224FF400610948FEF7A2FD4FF4FA705C
:104D000002F0B0FD0122D1020448FEF799FD4FF4F4
:104D1000FA7002F0A7FDEBE7001C02400010024011
:104D200010B55D480078A0BB5C4A5D495D48FCF762
:104D3000AFFB5D4B1A1F111F5A4802F049FA584841
:104D400090ED000A594880ED000A594880ED000AAC
:104D5000584880ED000A524890ED010A534880ED12
:104D6000010A534880ED010A524880ED010A4C487F
:104D700090ED020A4D4880ED020A4D4880ED020A8E
:104D80004C4880ED020A44480078401C42490870B3
:104D900080E0FFE7464890ED000A464880ED000AB3
:104DA000424890ED000A424880ED000A90ED000A6A
:104DB0004148D0ED000A20EE200A3E48D0ED000A1E
:104DC0003D4890ED011A00EE810A3548D0ED000A09
:104DD000394890ED021A00EE810A344880ED000A4D
:104DE000334890ED010A334880ED010A2F4890EDD9
:104DF000010A2F4880ED010A90ED010A2E48D0EDFE
:104E0000000A20EE200A2B48D0ED010A2A4890ED36
:104E1000011A00EE810A2248D0ED010A264890EDE1
:104E2000021A00EE810A214880ED010A204890ED27
:104E3000020A204880ED020A1C4890ED020A1C4834
:104E400080ED020A90ED020A1B48D0ED000A20EE28
:104E5000200A1848D0ED020A174890ED011A00EE1A
:104E6000810A0F48D0ED020A134890ED021A00EEB5
:104E7000810A0E4880ED020A084B02460F499FED59
:104E8000100A0848FCF77CFC074B1A1F111F054845
:104E900002F09EF910BD00000C010020C844002063
:104EA000BC440020E0440020DC44002044450020B5
:104EB000384500202C450020648A0008B0440020BA
:104EC0006F12833A00B52DED028B87B0002008EEFB
:104ED000100A152201A93B2000F000F99DF80500F9
:104EE0009DF8041040EA012000B208EE100AB8EE66
:104EF000C80ADFED4F0A20EE200A4E4880ED000A76
:104F00009DF807009DF8061040EA012000B208EE67
:104F1000100AB8EEC80ADFED460A20EE200A45481E
:104F200080ED010A9DF809009DF8081040EA012073
:104F300000B208EE100AB8EEC80ADFED3D0A20EE16
:104F4000200A3C4880ED020A9DF80D009DF80C10E7
:104F500040EA012000B208EE100AB8EEC80ADFED00
:104F6000360A20EE200A334880ED030A9DF80F0030
:104F70009DF80E1040EA012000B208EE100AB8EECB
:104F8000C80ADFED2D0A20EE200A2A4880ED040A27
:104F90009DF811009DF8101040EA012000B208EEC3
:104FA000100AB8EEC80ADFED240A20EE200A2148D4
:104FB00080ED050A9DF81200012835D19DF81300F7
:104FC0009DF8141040EA012000B208EE100AB8EE75
:104FD000C80ADFED1A0A20EE200A194880ED000AFF
:104FE0009DF815009DF8161040EA012000B208EE69
:104FF000100AB8EEC80ADFED110A20EE200A1048A8
:1050000080ED010A9DF817009DF8181040EA012074
:1050100000B208EE100AB8EEC80ADFED080A20EE6A
:10502000200A074880ED020A07B0BDEC028B00BDE4
:10503000CDCC1C3BF044002058A08B3A9A99993E65
:105040002045002010B586B000241422104901A884
:10505000FBF79BFE642002F005FC752000F01CF8B5
:105060000C49087000BF0DE001AA02EB4402517820
:1050700001AA12F8140000F05BF8012002F0F2FB24
:10508000601CC4B20A2CEFDB002006B010BD00008B
:10509000508A00089C00002038B5044602F0D8FB76
:1050A00044F080000A49087037200123094A009023
:1050B0000948FFF76FF937200123064A0449009099
:1050C0000548FFF767F902F0B9FB0248007838BDE0
:1050D000710200207002002014050020F8B5064679
:1050E0000C46154602F0B4FB46F080000C490870EF
:1050F000084600780B490870372001230A4A0849FE
:1051000000900A48FFF746F937202B46224605490A
:1051100000900648FFF73EF902F090FB0020F8BD32
:105120007302002074020020720200201405002087
:1051300038B505460C4602F08BFB05F07F000B49A5
:105140000870372001230A4A00900A48FFF722F925
:105150000648047037200123054A04490090054899
:10516000FFF718F902F06AFB002038BD5F0200204B
:105170005E02002014050020F8B504460E461546D0
:1051800002F066FB04F07F000A4908703720012313
:10519000094A00900948FFF7FDF837202B46084AD6
:1051A000314600900548FFF7F5F802F047FB002074
:1051B000F8BD0000610200206002002014050020FC
:1051C0006202002010B50E480E49086005204860B4
:1051D00000210C488160C1604FF400310161490138
:1051E000416101210176002141768176C176017706
:1051F00001214177FDF7E6FE08B1FDF73FF810BD4C
:10520000006400409802002008B500BF0020009014
:105210001648006840F48000144908600846006899
:1052200000F48000009000BF00BF00BF002000908D
:105230000846006840F4001008600846006800F462
:105240000010009000BF00BF002205211120FEF7D2
:10525000FAFB1120FEF7E7FB002205213A20FEF7BA
:10526000F2FB3A20FEF7DFFB08BD000030380240B9
:1052700000B5B1B01C222A492AA8FBF786FD0021FF
:105280002AA802F00EFB274908601C2224491C3181
:1052900023A8FBF77AFD002123A802F002FB224994
:1052A00008601C221E4938311CA8FBF76EFD002146
:1052B0001CA802F0F6FA1D4908601C221849543156
:1052C00015A8FBF762FD002115A802F0EAFA1849BB
:1052D00008601C22124970310EA8FBF756FD002110
:1052E0000EA802F0DEFA134908601C220C498C312A
:1052F00007A8FBF74AFD002107A802F0D2FA0E49E1
:1053000008601C220649A8316846FBF73EFD0021D3
:10531000684602F0C6FA0949086031B000BD0000D5
:105320006C89000800000020040000200800002014
:105330000C000020100000201400002018000020A5
:1053400000B587B0142102A8FBF738FD00BF00208C
:1053500001905148006840F010004F49086008462D
:10536000006800F01000019000BF00BF00BF0020E7
:1053700001900846006840F0020008600846006896
:1053800000F00200019000BF00BF00BF00200190AC
:105390000846006840F0080008600846006800F011
:1053A0000800019000BF00BF00BF00200190084628
:1053B000006840F0800008600846006800F0800047
:1053C000019000BF00BF00BF0020019008460068A8
:1053D00040F0200008600846006800F020000190BE
:1053E00000BF00BF00BF002001900846006840F0E9
:1053F000010008600846006800F00100019000BF4D
:1054000000BF002240F604012448FEF719FA0022EA
:105410003C212348FEF714FA002244F240012148BF
:10542000FEF70EFA0820029000200390049002A9D3
:105430001A48FEF7F7F840F60400029001200390A6
:1054400000200490059002A91448FEF7EBF83C20D8
:1054500002900120039000200490059002A91048BA
:10546000FEF7E0F840200290012003900020049015
:105470000220059002A90B48FEF7D4F84FF48040B3
:1054800002900120039000200490059002A9054895
:10549000FEF7C8F807B000BD3038024000100240E7
:1054A000001C02400014024010B50E480E4908606E
:1054B0004FF48270486000210B488160C160016137
:1054C00041614FF4007181610021C161016241625B
:1054D00081620A21C162FEF7D3FE08B1FCF7CEFE5D
:1054E00010BD0000005001401405002010B50B480D
:1054F0000B4908604FF4165048600021084881604D
:10550000C16001610C21416100218161C161FFF72E
:1055100065F908B1FCF7B2FE10BD0000004C004078
:105520006C05002010B50B480B4908604FF4E130C2
:105530004860002108488160C16001610C2141611F
:1055400000218161C161FFF749F908B1FCF796FEBE
:1055500010BD0000007C0040AC05002010B50B48D9
:105560000B4908600B484860002109488160C16010
:1055700001610C21416100218161C161002211465C
:10558000FEF704FA08B1FCF779FE10BD00100140E7
:10559000EC050020A086010000BFFEE730EE601A97
:1055A000B0EE410A9FED0D1AB4EEC10AF1EE10FA09
:1055B00005DD9FED0B1A30EE411AB0EE410A9FED6A
:1055C000091AB4EEC10AF1EE10FA05D29FED041AE1
:1055D00030EE011AB0EE410A70470000DB0F49407F
:1055E000DB0FC940DB0F49C00246501AB0F5805F9F
:1055F00002DDA0F5005004E010F5805F01DA00F54F
:10560000005000EE100AB8EEC00ADFED020A20EEEC
:10561000200A7047DB0F493A704700000F4890EDB1
:10562000030A0F48D0ED030A30EE600A0B4880ED04
:10563000030A90ED040A0A48D0ED040A30EE600A2D
:10564000064880ED040A90ED050A0548D0ED050AEC
:1056500030EE600A014880ED050A7047F0440020F2
:105660000845002010B542F2107441E0FFF72AFC13
:10567000474890ED000A4748D0ED000A30EE200A76
:10568000434880ED000A90ED010A4248D0ED010A3E
:1056900030EE200A3E4880ED010A90ED020A3D48B6
:1056A000D0ED020A30EE200A394880ED020A90ED72
:1056B000030A3848D0ED030A30EE200A344880ED62
:1056C000030A90ED040A3348D0ED040A30EE200AB4
:1056D0002F4880ED040A90ED050A2E48D0ED050A0A
:1056E00030EE200A2A4880ED050A012002F0BAF8BF
:1056F000201EA4F101018CB2B8D1254890ED000A1A
:10570000DFED250A80EE201A80ED001A90ED010AE7
:10571000DFED210A80EE201A80ED011A90ED020AD9
:10572000DFED1D0A80EE201A80ED021A90ED030ACB
:10573000DFED190A80EE201A80ED031A90ED040ABD
:10574000DFED150A80EE201A80ED041A90ED050AAF
:10575000DFED110A80EE201A80ED051A9FED0F0A89
:105760000C4880ED000A9FED0D0A80ED010A9FEDC7
:105770000B0A80ED020A9FED090A80ED030A9FEDF6
:10578000070A80ED040A9FED050A80ED050A10BDA9
:1057900008450020F044002000401C4600000000A6
:1057A000B0EE401A10B99FED6D0A704790ED070AF0
:1057B00080ED080A90ED060A80ED070AC0ED040AA4
:1057C00080ED051A30EEC10A80ED060A0178E9BBCA
:1057D00090ED010AD0ED061A20EE210A80ED090AAB
:1057E00090ED0A0AD0ED021A90ED062A01EE820A27
:1057F00080ED0A0A90ED060AD0ED071A30EE610A34
:10580000D0ED031A20EE210A80ED0B0A90ED0A0A72
:10581000D0ED0D1AB4EEE10AF1EE10FA04DD90EDD0
:105820000D0A80ED0A0A10E090ED0A0AD0ED0D1A7B
:10583000F1EE611AB4EEE10AF1EE10FA05D290ED44
:105840000D0AB1EE400A80ED0A0A00E02BE090ED6F
:10585000090AD0ED0A1A30EE210AD0ED0B1A30EE0B
:10586000210A80ED0C0A90ED0C0AD0ED0E1AB4EE70
:10587000E10AF1EE10FA04DD90ED0E0A80ED0C0A5B
:1058800069E090ED0C0AD0ED0E1AF1EE611AB4EE5B
:10589000E10AF1EE10FA5ED290ED0E0AB1EE400A86
:1058A00080ED0C0A57E00178012954D190ED060AE9
:1058B000D0ED071A30EE610AD0ED011A20EE210A70
:1058C00080ED090A90ED020AD0ED061A20EE210AB9
:1058D00080ED0A0A90ED060AD0ED071AB0EE002A14
:1058E00002EE610AD0ED081A30EE210AD0ED031A5B
:1058F00020EE210A80ED0B0A90ED090AD0ED0A1A7C
:1059000030EE210AD0ED0B1A30EE210AD0ED0C1A40
:1059100030EE210A80ED0C0A90ED0C0AD0ED0E1A43
:10592000B4EEE10AF1EE10FA04DD90ED0E0A80ED1E
:105930000C0A10E090ED0C0AD0ED0E1AF1EE611A8F
:10594000B4EEE10AF1EE10FA05D290ED0E0AB1EED6
:10595000400A80ED0C0A90ED0C0A26E700000000DA
:1059600000B970470170C0ED0D0A80ED0E0A80EDA0
:10597000011A80ED032AC0ED021ADFED052AC0ED01
:10598000082AC0ED072AC0ED062A00BFE9E700009B
:10599000000000000146002901DD0846704748422A
:1059A00000B2FBE710B52349B1F90000FFF7F2FFA1
:1059B000B0F52F7F00DD24E01E49B1F90200FFF7AA
:1059C000E9FFB0F52F7F00DD1BE01A49B1F90400B3
:1059D000FFF7E0FFB0F52F7F00DD12E01549B1F9C8
:1059E0000600FFF7D7FFB0F52F7F00DD09E0114873
:1059F000007A00B905E00F48407A00B901E00020C4
:105A000010BD00200B49088048808880C880022093
:105A10000872487200204881002106488181C181B6
:105A200001744174002003494882002101488182A9
:105A30000120E5E7584400200278437842EA032237
:105A4000C2F30A020A804278D210837842EA4312F3
:105A5000C2F30A024A8082789211C37842EA830232
:105A6000037942EA8322C2F30A028A800279521041
:105A7000437942EAC312C2F30A02CA804279C2F3EE
:105A800001120A724279121192084A728279C3791C
:105A900042EA032212B24A81027A437A42EA03229C
:105AA00013B201F10A028B81827AC37A42EA03229D
:105AB00013B201F10A02CB81037B0B74437B4B745D
:105AC000827BC37B42EA03224A82027C437C42EA15
:105AD000032301F112028B82704700007CB504465B
