:020000040800F2
:100000003849002081020008392C0008E924000842
:10001000052C0008470900082536000800000000EC
:10002000000000000000000000000000C101000806
:10003000DD0A0008000000001D020008DD30000895
:100040009B0200089B0200089B0200089B0200081C
:100050009B0200089B0200089B0200089B0200080C
:100060009B0200089B0200089B0200089B020008FC
:100070009B0200089B0200089B0200089B020008EC
:100080009B0200089B0200089B0200080D0A000862
:10009000E10900089B0200089B0200089B0200087F
:1000A0009B020008E53100089B0200089B02000843
:1000B0009B0200089B0200089B0200089B020008AC
:1000C0009B0200089B0200089B0200089B0200089C
:1000D0009B0200089B0200089B0200089B0200088C
:1000E0009B0200089B0200089B0200089B0200087C
:1000F0009B0200089B0200089B0200089B0200086C
:100100009B0200089B0200089B0200089B0200085B
:100110009B0200089B0200089B0200089B0200084B
:100120009B0200089B020008190A00089B020008B5
:100130009B0200089B0200089B0200089B0200082B
:100140009B0200089B0200089B0200089B0200081B
:100150009B0200089B0200089B0200089B0200080B
:100160009B0200089B0200089B0200089B020008FB
:100170009B0200089B0200089B0200080000000090
:100180009B0200089B0200089B0200089B020008DB
:100190009B0200089B0200089B0200089B020008CB
:1001A00000000000000000009B020008DFF80CD0F7
:1001B00000F062F900480047194200083849002061
:1001C0002C4B19680868B0E8F04F80F30988BFF33A
:1001D0006F8F4FF0000080F311887047000000001F
:1001E00008480068006880F308884FF0000080F33A
:1001F000148862B661B6BFF34F8FBFF36F8F00DF15
:1002000000BF00BF08ED00E0DFF80C00016841F41A
:1002100070010160704700BF88ED00E0EFF30980D6
:10022000BFF36F8F134B1A681EF0100F08BF20ED3D
:10023000108A20E9F04F106009B44FF0500080F3AD
:100240001188BFF34F8FBFF36F8F04F089FC4FF01D
:10025000000080F3118809BC19680868B0E8F04F05
:100260001EF0100F08BFB0EC108A80F30988BFF3AE
:100270006F8F704730000020EFF30580704700005B
:100280000648804706480047FEE7FEE7FEE7FEE730
:10029000FEE7FEE7FEE7FEE7FEE7FEE79131000836
:1002A000AD0100089FED1A1AF5EE000A40EE010AB2
:1002B000BDEEE00AF5EEC00A10EE100AF1EE10FAFB
:1002C00038BF401E00EE100A1349F7EE001AB8EED0
:1002D000C00A30EEC00ADFED0F0A20EE200AFCEE65
:1002E000C00A10EE900AC0F3080000EE900A01EB7D
:1002F0008000F8EE600A90ED011A70EE600A90ED51
:10030000000A71EEE01A21EE800A00EE810A7047C1
:1003100083F9223E00000044EC4F0008DFED190A8B
:10032000B5EEC00A60EE200ABDEEE01A11EE100A2A
:10033000F1EE10FA38BF401E00EE100A1349F7EE36
:10034000001AB8EEC00A30EEC00ADFED0F0A60EE08
:10035000200ABCEEE00A10EE100AC0F3080000EE1E
:10036000100A01EB8000B8EE400A90ED011A70EE21
:10037000C00A90ED000A71EEE01A21EE800A00EE4C
:10038000810A704783F9223E00000044EC4F0008C8
:100390002DE9F05F0546002092469B4688460646BA
:1003A000814640241BE0284641464746224600F04D
:1003B00053F853465A46C01A914110D31146184675
:1003C000224600F03AF82D1A67EB01084F46224604
:1003D0000120002100F031F817EB00094E41201EEA
:1003E000A4F10104DFDC484631462A464346BDE815
:1003F000F09F40EA01039B0703D009E008C9121FE0
:1004000008C0042AFAD203E011F8013B00F8013BCE
:10041000521EF9D27047D2B201E000F8012B491EFA
:10042000FBD270470022F6E710B513460A46044691
:100430001946FFF7F0FF204610BD202A04DB203AC2
:1004400000FA02F1002070479140C2F1200320FA27
:1004500003F3194390407047202A04DB203A21FA25
:1004600002F00021704721FA02F3D040C2F12002CD
:100470009140084319467047064C074D06E0E06876
:1004800040F0010394E8070098471034AC42F6D3DB
:10049000FFF790FE3C5800085C58000870B58C18B7
:1004A00010F8015B15F0070301D110F8013B2A1188
:1004B00006D110F8012B03E010F8016B01F8016B75
:1004C0005B1EF9D12B0705D40023521E0DD401F871
:1004D000013BFAE710F8013BCB1A921C03E013F83A
:1004E000015B01F8015B521EF9D5A142D8D300206F
:1004F00070BD03F0BBB803F04FB9FFF7D3BEF0EE09
:10050000400AF5EEC00AF1EE10FA02DDB0EE600A24
:100510007047B1EE600AFBE7002803D09FED020AA6
:1005200080ED000A7047000000000000002803D0A2
:100530009FED020A80ED000A70470000DF8FB44192
:1005400070B52DED0C8B84B006460C4615469FED1C
:10055000990AF0EE408A9FED970AB0EE409A9FED1F
:10056000950AF0EE40BA9FED930AF0EE409A9FEDA7
:10057000910AB0EE40AA0EB104B11DB904B0BDECB1
:100580000C8B70BD8C48FFF7C7FF8C48FFF7CEFF80
:100590008A48D0ED000A9FED8A1A60EE810AB0EE1B
:1005A000600A00F031F9F0EE408A28EEA80AF0EE79
:1005B000408A8248D0ED000AB0EE001A60EE810A4F
:1005C0009FED7F1A60EE810AB0EE600A00F01CF920
:1005D000B0EE409A29EE090AB0EE409ADFED790AB2
:1005E000B7EE000A00EEA80ADFED770A00EEC90AAE
:1005F000DFED760A20EE200A754880ED000A6E488D
:1006000090ED000ADFED730A80EE201AB7EE000AC3
:1006100031EE000A20EE000A6D48D0ED000A80EEAF
:10062000801A6D4880ED001A94ED000AB5EEC00AFC
:10063000F1EE10FA0DD194ED010AB5EEC00AF1EE1B
:1006400010FA06D194ED020AB5EEC00AF1EE10FAE6
:1006500046D09FED580AB0EE408A002001900290EB
:100660000390D4ED000A60EEA00A94ED011AD4EDD7
:10067000011A41EE210A94ED021AD4ED021A41EE5C
:10068000210AB0EE600A00F0A9F8B0EE408A94EDBD
:10069000000A20EE080A8DED010A94ED010A20EE11
:1006A000080A8DED020A94ED020A20EE080A8DED8B
:1006B000030ADDED010AF1EE600AB0EE600AFFF711
:1006C00018FFF0EE409A9DED031AF0EE410A9DED01
:1006D000021AB0EE410AFFF70EFFB0EE40AA07E0A3
:1006E0009FED340AF0EE409A9FED320AB0EE40AA38
:1006F00095ED000AB5EEC00AF1EE10FA0DD195EDB8
:10070000010AB5EEC00AF1EE10FA06D195ED020A23
:10071000B5EEC00AF1EE10FA3CD0B0EE690A00F076
:1007200073F8B0EE408AB0EE690AFFF7E6FEB0EE6D
:1007300040DAB0EE4A0A00F067F8F0EE40AAB0EEF8
:100740004A0AFFF7DAFEB0EE40BA28EE2A0AD5EDE3
:10075000010A20EE200AD5ED000A0DEE200A68EE0F
:100760000B0A95ED021A00EE810AB0EE40CA95ED33
:10077000010A20EE0B0AD5ED020A0AEEE00AF0EEBD
:1007800040CAF0EE6C0AB0EE4C0AFFF7B4FEF0EE91
:1007900040BA03E09FED070AF0EE40BAB0EE4A1A05
:1007A000F0EE690AB0EE6B0A304603F0F7FA00BFCC
:1007B000E4E6000000000000600100206401002069
:1007C00035FA8E3CC1BFAD3B9DF8C5362F7C1C4130
:1007D00068010020506CC24A6C01002010EE100A23
:1007E000F6EE000A074960EE200AA1EB600000EE79
:1007F000100A20EE801AF7EE080A41EE400A20EEB9
:10080000800A7047DF59375FFFF788BD2DE9F04157
:100810002DED028B9AB00546B0EE408A0E46174683
:1008200098460020179018901990149015901690E3
:100830004DB146B13FB1B8F1000F04D0B5EEC08A5A
:10084000F1EE10FA05D100201AB0BDEC028BBDE824
:10085000F08196ED000A8DED170A96ED010A8DEDF7
:10086000180A96ED020A8DED190A97ED000A8DED32
:10087000140A97ED010A8DED150A97ED020A8DED28
:10088000160A17AA14A9284603F0DAF8402104A88A
:10089000FFF7C8FD00200090019002900390002413
:1008A00017A904A803F0B1FF00BF30E004A800EBD3
:1008B000041090ED000AD5ED000A20EE200A04A8ED
:1008C00000EB0410D0ED010A95ED011A00EE810A4B
:1008D00004A800EB0410D0ED020A95ED021A00EE18
:1008E000810A04A800EB0410D0ED030A95ED031A69
:1008F00000EE810A20EE080AF0EE000A80EE201ACF
:10090000684600EB840080ED001A601CC4B2042C21
:10091000CCDB002410E005EB840090ED000A684673
:1009200000EB8400D0ED000A30EE200A05EB8400D5
:1009300080ED000A601CC4B2042CECDB284603F0F6
:1009400003FF012080E7FEE710B50068134BA0F21B
:10095000012006280AD2DFE800F0131313130A035C
:100960000F4803F05FFB0E480088D86010BD0C48AC
:100970000A3003F057FB0A480A300088986010BD1F
:10098000C0B2074C187000EB80001E3404EB40002E
:1009900003F048FB6089186110BD000014010020BD
:1009A0008043002000B58BB000200121CDE9060175
:1009B00003900891049000900E21019002900991FB
:1009C00005906946054800F007F90221034800F048
:1009D000F1F8024800F0D0FB0BB000BD740100201C
:1009E00010B5074B074A0021074800F07CF904497D
:1009F0000448FFF7A9FFBDE81040034800F0E7B93D
:100A000018000020E043002074010020014800F09D
:100A1000DEB900007401002010B5044800F0E0FBCE
:100A2000BDE810400249034802F018BAC80400208B
:100A300094420020AA42002001681823CAB2103A4A
:100A4000B2FBF3F2054B6FF30901032A9B5CC3650C
:100A500000D9091D8165084670470000A04F0008B5
:100A600010B5014600208B698A6A4FF0C07453B1FB
:100A7000B3F5005F15D072B1012A0CD0022A0AD05A
:100A8000032A09D104E01AB1012A06D0022A03D1AF
:100A9000C96AC90100D5012010BDC96AA142FAD0B6
:100AA00010BD002AF7D0012AF2D0022AF3D0032A7F
:100AB000F3D010BD30B50468256825F48025256085
:100AC000046863608368402B036803D09960006802
:100AD000C26030BD9A600068C16030BD7047704729
:100AE00010B504462DED048B03F020FAE06003F00E
:100AF00021FAC4F8A40003F011FA606003F012FABE
:100B0000A06003F09DFA9FED278ADFED278A9FED15
:100B1000279ADFED279A2060B0EE482AF3EE041AF8
:100B2000B0EE681AF0EE490AB0EE690A002104F14D
:100B3000C00002F07DF9B0EE482AF3EE041AB0EEE0
:100B4000681AF0EE490AB0EE690A002104F1FC00CF
:100B500002F06EF9B0EE482AF3EE041AB0EE681A0D
:100B6000F0EE490AB0EE690A002104F1280002F013
:100B70005FF9B0EE482AF3EE041AB0EE681AF0EE10
:100B8000490AB0EE690A002104F1640002F050F94C
:100B90004FF47A70A4F8A000A4F83801BDEC048BDF
:100BA00010BD0000000000000080094500409C4589
:100BB0000060EA4690F82020012A07D0022A05D0DA
:100BC000416A41F480214162012070470068426916
:100BD0000A4342610020704710B590F82020012A96
:100BE00007D0022A05D0416A41F4802141620120E8
:100BF00010BD3B48D0F8002242F00102C0F80022AC
:100C0000D0F8002222F47C52C0F80022D0F8002252
:100C10004B6A42EA0322C0F800220A7D02F01F0359
:100C200001229A40D0F81C329343C0F81C32CB69A1
:100C3000B3B9D0F80C329343C0F80C328C894B68AE
:100C400064F31F434C6900EBC404C4F840320C89C0
:100C50000B6864F31F434C6900EBC404C4F84432CE
:100C6000CB69012B16D1D0F80C321343C0F80C32EB
:100C70000C884B6864F31F434C6900EBC404C4F850
:100C800040320C89CB6864F31F434C6900EBC40409
:100C9000C4F844328B69002BD0F804320ED01343D1
:100CA000C0F804320B69002BD0F8143208D013437B
:100CB000C0F81432096A012904D008E09343EFE731
:100CC0009343F5E7D0F81C121143C0F81C12D0F87A
:100CD000001221F00101C0F80012002010BD000038
:100CE00000640040704730B590F82040012C05D0DA
:100CF000022C03D0416A41F480215DE004680029A0
:100D000055D02469A40754D04FF4D874056804EB77
:100D100001142D5915F00405956005682D594ED024
:100D2000ED08556005682C59C4F34004D4604FF4B5
:100D3000DA74056804EB01142D5905F00F051561EF
:100D400005682D59C5F30725956105682C59240CB4
:100D500054614FF4DC72046802EB0112A4581C7059
:100D60000468A458240A5C700468A458240C9C707D
:100D70000468A258120EDA704FF4DE72046802EBB7
:100D80000112A4581C710468A458240A5C710468F8
:100D9000A458240C9C710468A258120EDA710068E1
:100DA00081B1016941F020010161002030BDE4689A
:100DB000A8E7416A41F400114162012030BD6D0D88
:100DC0001560AFE7C16841F02001C160EDE72DE992
:100DD000F05F0546006800244669D0F804908768F3
:100DE000D0F80CB0D0F810A0D0F81880F10748D097
:100DF000F90714D001218160B80703D5284600F017
:100E0000E8F90CE0780702D54FF4006407E03807F2
:100E100002D54FF4805402E0284600F0D9F9F805D5
:100E200016D529684FF480708860B80503D5284628
:100E300000F0D1F90CE0780502D544F4005407E045
:100E4000380502D544F4804402E0284600F0C2F997
:100E5000F80316D529684FF480308860B80303D5AD
:100E6000284600F0BAF90CE0780302D544F40044B7
:100E700007E0380302D544F4803402E0284600F04D
:100E8000ABF9300707D55FEACB6004D5296810209D
:100E900044F40074C86070074FF0080707D55FEA94
:100EA0000B7004D52868C760284600F05FF9B007CA
:100EB00006D52868C068800702D0284600F057F998
:100EC000700607D55FEACA6004D52968102044F48B
:100ED00080640861B00607D55FEA0A7004D5286807
:100EE0000761284600F044F9F00606D52868006935
:100EF000800702D0284600F03CF9B00308D55FEA2D
:100F0000C96005D5296810204860284600F032F9EC
:100F1000F00307D55FEA097004D5286847602846C2
:100F200000F05CF9300446D55FEA497040D5F00521
:100F300004D55FEAC87001D044F00104B00504D5BF
:100F40005FEA887001D544F00204700504D55FEAB9
:100F5000487001D544F00404300529D518F0700F0D
:100F600026D008F07000402815D006DC102809D0E3
:100F700020280AD0302816D10AE050280ED0602848
:100F800011D10EE044F008040DE044F010040AE032
:100F900044F0200407E044F0400404E044F08004FE
:100FA00001E044F480742868816921F07001816156
:100FB000296804204860002C05D0686A20436862D4
:100FC0002846FFF78FFEBDE8F09F70B5040003D000
:100FD00094F8200010B104E0012070BD204600F01C
:100FE00081F82068016821F00201016000F05AFBDD
:100FF0000546052604E000F055FB401B0A2811D8E1
:10100000206840688007F6D42068016841F001013B
:10101000016000F047FB05460BE000F043FB401B7E
:101020000A2806D9606A40F40030606284F82060C3
:10103000D2E720684068C007EFD0207E01282068F2
:1010400001683DD021F080010160607E01282068A8
:10105000016838D021F040010160A07E012820689D
:10106000016833D021F020010160E07E0128206872
:1010700001682ED041F010010160207F0128206816
:10108000016829D021F008010160607F01282068F3
:10109000016824D021F004010160D4E90201084371
:1010A000D4E90412114308436168491E08432168CA
:1010B000C86100206062012084F82000002070BD1B
:1010C00041F08001C0E741F04001C5E741F0200157
:1010D000CAE721F01001CFE741F00801D4E741F061
:1010E0000401D9E710B586B0044614216846FFF71D
:1010F00099F91B49206888422FD11A4800210268BB
:1011000042F000720260006800F00070059015481F
:101110001038026842F0080202600068022200F003
:10112000080005900320CDE90210CDE90002092056
:10113000049069460C4800F0C9F9002205211320EB
:1011400000F082FB132000F072FB0022012114202A
:1011500000F07AFB142000F06AFB06B010BD00001E
:101160000064004040380240000C02407047704765
:10117000704770477047000070B5044690F8200033
:10118000012804D0606A40F40020606218E0022068
:1011900084F820002068016821F00101016000F05E
:1011A00081FA05460EE000BF00F07CFA401B0A28D9
:1011B00008D9606A40F400306062052084F820009D
:1011C000012070BD20684068C007EDD1606270BD2D
:1011D000704770477047704770477047704700000E
:1011E0002DE9F84304464FF00009CDF8009063481C
:1011F0004FF41651A56D0068B0FBF1F72E6894F816
:101200005C10082000FA01F131420FD021680A6811
:1012100052070BD50A6822F004020A6094F85C10A9
:101220008840A860606D40F00100606594F85C1033
:101230004FF0010808FA01F0304208D021684969EE
:10124000090604D5A860606D40F00200606594F85E
:101250005C1004208840304208D021680968890762
:1012600004D5A860606D40F00400606594F85C10DF
:1012700010208840304218D021680968090714D529
:10128000A86020680168490304D50068000308D5F8
:10129000A16C07E00168C90503D4016821F00801C9
:1012A0000160216C09B12046884794F85C10202029
:1012B0008840304231D021680968C9062DD5A86020
:1012C00094F8350005282068016806D0490347D501
:1012D000006800031DD4616C1CE021F01601016060
:1012E0002068416921F080014161206C08B9A06C3F
:1012F00020B12068016821F00801016094F85C10B9
:101300003F208840A86084F8349084F83580216DAF
:101310001FE0E16B09B120468847606D00282BD0A3
:10132000606DC00714D0052084F83500206801687E
:1013300021F0010101600098401C0090B84203D8E0
:1013400020680068C007F6D184F8349084F83580AE
:10135000E16C002910D001B02046BDE8F0430847F9
:101360000168C905D5D4016821F01001016084F835
:10137000349084F83580CCE7BDE8F8832C00002059
:101380002DE9F041044600F08DF906465CB10025D8
:1013900084F83450022084F835002068016821F078
:1013A000010101600DE00120BDE8F08100F07AF953
:1013B000801B052805D920206065032084F83500AE
:1013C000F2E720680068C007F0D122681168204861
:1013D0000140D4E901031843D4E9033633431843E9
:1013E00063691843A3691843E3691843236A1843E0
:1013F0000843616A042903D1D4E90B131943084354
:10140000106020684069666A20F0070130460E438C
:10141000012704280CD1A06A0643E06A40B12046A7
:10142000FFF71EFB20B14020606584F83570BAE7F5
:10143000206846612046FFF7FFFA94F85C203F21C0
:1014400091408160656584F835700020ACE700004C
:101450003F8010F02DE9F0410446866D90F834008D
:10146000002501280DD0012084F8340094F835704F
:101470000020012F07D084F8340002252846BDE85B
:10148000F0810220FBE7022784F835706065204672
:10149000FFF710FB94F85C103F208840B060206894
:1014A000016841F0160101602068416941F0800146
:1014B0004161206C20B12068016841F008010160A1
:1014C0002068016841F001010160D7E72DE9F84F7C
:1014D000DFF890B100224FF001084FF0030A4FF0FF
:1014E0000F090BF1040E00BF0B6808FA02F4234049
:1014F000A3426ED14D68022D01D0122D0ED1D50818
:1015000000EB850CDCF820505607F70E09FA07F6B9
:10151000B5430E69BE402E43CCF8206006685500E6
:101520000F790AFA05FC07F0030726EA0C06AF401C
:10153000374307604E68012E05D0022E03D0112ECE
:1015400001D0122E0ED18768CE6827EA0C07AE4074
:101550003E4386604668A6430C79C4F30014944069
:1015600034434460C4688E6824EA0C04AE402643C9
:10157000C6604C68E4006FD53B4C256845F4804557
:101580002560246822F0030504F480440094374C5D
:101590002E19D6F8084895072F0F09FA07F5AC431E
:1015A000334DA84201D100252EE0324DA84201D191
:1015B000012529E0304DA84201D1022524E02F4D1C
:1015C000A84201D103251FE02D4DA84202D10425D8
:1015D0001AE041E02B4DA84201D1052514E02A4D27
:1015E000A84201D106250FE0284DA84201D10725C8
:1015F0000AE0274DA84201D1082505E0254DA84263
:1016000001D1092500E00A25BD402543C6F8085848
:10161000DBF800405D464E689C43F60300D51C4352
:101620002C60DEF8004075464E689C43B60300D53A
:101630001C432C600B4D08352C684E689C43F60209
:1016400000D51C432C60074D0C352C684E689C431C
:10165000B60200D51C432C60521C102AFFF444AF84
:10166000BDE8F88F003C01404438024000300140A2
:10167000000002400004024000080240000C02404A
:10168000001002400014024000180240001C0240FA
:1016900000200240002402400AB181617047090421
:1016A000FBE7000001488068704700002000002030
:1016B0000248816802781144816070472000002050
:1016C0000B4810B5016841F400710160016841F4F4
:1016D00080610160016841F480710160032000F0C5
:1016E000D3F8002000F006F800F03EF8002010BD0E
:1016F000003C024010B5014688B00022192000F0DD
:10170000A3F8192000F093F813480024016841F071
:1017100001010160006805A900F00100069068461B
:1017200000F094F900F0C2F90C494000B0FBF1F16F
:101730000C480B4A491E026040F2E732C0E903241C
:10174000C0E9011400F0EBFC10B1012008B010BD9D
:10175000044800F000FDF9E74438024040420F0021
:1017600000000140280500200C4882B0016841F4C7
:1017700080410160006800F4804000900748001F2D
:10178000016841F0805101600068002200F0805043
:1017900000900F21901E02B000F056B8443802406D
:1017A0002DE9F04116460F46040004D094F83900A4
:1017B000002518B107E00120BDE8F08184F8385019
:1017C000204600F0CDFD242084F839002068C1684F
:1017D00021F40051C160204601F0CEFD206801696E
:1017E00021F4904101612068416921F02A014161A1
:1017F0002068016921F00F01016120680169394306
:1018000001612068C16821F40061C1602068C1687D
:101810003143C1602068C16841F40051C160E56393
:10182000202084F8390084F83A000020C4E700281A
:1018300009DB00F01F02012191404009800000F106
:10184000E020C0F800117047F0B40E4B1B680C4646
:10185000C3F30223C3F10705042D00D90425191D84
:10186000072901D2002300E0DB1E012606FA05F15C
:10187000491E214099409E40761E16403143F0BCDF
:1018800001F0E4BE0CED00E0064900F00702086834
:101890004FF6FF03184040EA0220034A1043086055
:1018A000704700000CED00E00000FA052DE9F84358
:1018B0001748016841F0805101600068154F00F041
:1018C0008050012600903E64FFF7ECFE05464FF481
:1018D0007A78114C05E000BFFFF7E4FE401B40455D
:1018E0000DD86068C003F7D57E64FFF7DBFE0546C0
:1018F000464607E0FFF7D6FE401BB04202D9032060
:10190000BDE8F88360688003F4D50020F8E70000A4
:101910004038024000000E42007000402DE9F047C0
:101920000E46050065D0DFF81481D8F80000F7B244
:1019300000F00F00B04207D288F80070D8F800001D
:1019400000F00F00B04254D128683D4C810712D5F9
:10195000400703D5206840F4E05020602878000755
:1019600003D5206840F4604020602068A96820F01A
:10197000F000084320602878C0072DD030496868FF
:101980000839012812D0022813D0032811D0096881
:10199000890700292DDA216821F003010143216024
:1019A000FFF780FE814641F2883A0EE0096889031C
:1019B000EFE709688901ECE7FFF774FEA0EB090186
:1019C000514502D90320BDE8F0872068696800F01E
:1019D0000C00B0EB810FEFD1D8F80010404601F0B9
:1019E0000F01B14207D90770006800F00F00B04244
:1019F00001D00120E7E72878400705D52068E9688D
:101A000020F4E050084320602878000706D52068BD
:101A1000296920F4604040EAC100206000F056F8D7
:101A20002168084AC1F30311515CC84006490860A7
:101A30000020FFF75FFE0020C5E70000003C0240E9
:101A400008380240A84F00082C0000200F22026036
:101A50000C4A136803F003034360136803F0F003B8
:101A60008360136803F4E053C36012684FF4E053DB
:101A700003EAD20202610448006800F00F00086027
:101A80007047000008380240003C02400448054905
:101A900000680968044AC1F38221515CC84070475C
:101AA0002C00002008380240B84F000804480549BF
:101AB00000680968044AC1F34231515CC84070476C
:101AC0002C00002008380240B84F0008154810B517
:101AD000006810F00C02144813D01449042A0FD0E7
:101AE000082A0ED10F4C241F2268236802F03F02FF
:101AF0005B0207D52068C0F38810A0FB010106E057
:101B0000084610BD2168C1F38811A1FB0001002324
:101B1000FEF73EFC2168C1F30141491C4900B0FBBE
:101B2000F1F010BD083802400024F400001BB7009B
:101B30002DE9F84F050076D02878DFF8F8B2BE4CD2
:101B4000C00749D0DBF800105846C1F381010129D4
:101B500008D00068C0F3810002280AD1201D006867
:101B6000400206D52068800336D568680028E2D098
:101B700032E06868B0F5803F10D0B0F5A02F206843
:101B800010D020F480302060206820F48020206075
:101B90006868A0B1FFF786FD06460CE0206840F4B7
:101BA0008030F4E740F480202060F7E7FFF77AFD0B
:101BB000801B642873D820688003F7D50CE0FFF7FA
:101BC00071FD064605E000BFFFF76CFD801B642831
:101BD000F0D820688003F7D42878DFF86082800787
:101BE0004FF000093ED5DBF80010584611F00C0FFD
:101BF00009D00068C0F3810002280BD18D48001F76
:101C00000068400206D42068800715D5E8680128DE
:101C100009D111E0E868B8B10120C8F80000FFF769
:101C200041FD064605E002E1FFF73CFD801B02286E
:101C3000C0D820688007F7D52068296920F0F8000F
:101C400040EAC10020600DE0C8F80090FFF72AFDCF
:101C5000064604E0FFF726FD801B02281FD82068F7
:101C60008007F7D42878000722D5724E7448696936
:101C70006C3671B101210160FFF714FD074604E0E5
:101C8000FFF710FDC01B022809D830688007F7D580
:101C90000EE0C0F80090FFF705FD074605E083E081
:101CA000FFF700FDC01B02287ED830688007F7D4FC
:101CB0002878400768D5DFF87CA100270AF1380AA8
:101CC000DAF80000C0000BD4DAF8001041F08051BF
:101CD000CAF80010DAF80000012700F080500090E8
:101CE000584E3068C00510D4306840F480703060C1
:101CF000FFF7D8FC009005E0FFF7D4FC0099401AEC
:101D0000022851D83068C005F6D54A4EA868683612
:101D100001280FD00528306810D020F00100306075
:101D2000306820F004003060A868B8B1FFF7BAFC52
:101D300000900FE0306840F00100F4E740F004004C
:101D40003060F7E7FFF7AEFC0099411A41F28830A6
:101D5000814264D830688007F4D50EE0FFF7A2FC1A
:101D6000009007E0FFF79EFC0099411A41F288308D
:101D7000814254D830688007F4D42FB1DAF80010CB
:101D800021F08051CAF80010A869C0B3DBF8001038
:101D9000C1F3810102294AD00228484607D0C8F879
:101DA0006000FFF77FFC00E039E005463AE0474677
:101DB000C8F86000FFF776FC064604E0FFF772FC07
:101DC000801B02282BD820688001F7D4D5E90701B1
:101DD0000843A96A1C4A490802EB01416A6A41EAC0
:101DE0008211084395F82C1040EA01611148001F48
:101DF000016001203866FFF755FC054605E014E058
:101E0000FFF750FC401B022809D820688001F7D555
:101E10000BE000BFFFF746FC401B022802D903205D
:101E2000BDE8F88F20688001F4D40020F8E7012095
:101E3000F6E7000008380240003802400000474240
:101E4000800E4742007000400000FFFF70B50400A4
:101E500005D00025A56294F8510010B106E00120DC
:101E600070BD84F85050204600F030F8022084F80D
:101E700051002068016821F040010160D4E90101AE
:101E80000843D4E903121143084361690843218BD5
:101E900001F400710843E1690843216A0843A16A1B
:101EA000084321680860A069042101EA1040616AC2
:101EB0000843216848602068C16921F40061C1615C
:101EC0006565012084F85100002070BD10B586B012
:101ED000044614216846FEF7A5FA14492068884292
:101EE00021D113480021026842F480120260006888
:101EF00000F4801005900E481438026842F0200269
:101F00000260006800F0200005904FF460700090BF
:101F10000220CDE9010103200390052004906946C9
:101F20000448FFF7D3FA06B010BD0000005001408E
:101F300044380240001402402DE9F84F044690F85E
:101F4000500000270A9E1D4692468B464FF001091D
:101F500001280ED0012084F85000FFF7A3FB804633
:101F600094F85100616801280CD0B1F5827F07D147
:101F700002E00220BDE8F88FA16809B9042801D069
:101F80000227C2E0BBF1000F27D0BAF1000F24D026
:101F90001DB394F85100042802D0052084F85100A4
:101FA00000206065C4F838A0E587A587C4F830B084
:101FB000E586A5862064606420680168490603D42C
:101FC000016841F040010160E068B0F5006F6068B1
:101FD00005D0E8B3012D46D07FE0012795E008B198
:101FE000012D39D1206B21680088C860206B801CCE
:101FF0002063E08E401EE0862EE02068816889071D
:102000000FD5E18E69B1B9F1010F0AD1216B0988B1
:10201000C160206B801C2063E08E401EE0864FF084
:10202000000920688168C9070CD0E18F51B1C068F0
:10203000A16B0880A06B801CA063E08F401EE0872E
:102040004FF00109FFF72EFBA0EB0800B04200E0C3
:1020500009E001D3701C50D1E08E0028CDD1E08F73
:102060000028CAD13FE0206B216800780873206BFC
:10207000401C2063E08E401EE0862EE020688168D0
:1020800089070FD5E18E69B1B9F1010F0AD1216B32
:1020900009780173206B401C2063E08E401EE086AF
:1020A0004FF0000920688168C9070CD0E18F51B159
:1020B000C068A16B0870A06B401CA063E08F401E3D
:1020C000E0874FF00109FFF7EDFAA0EB0800B042FE
:1020D00002D3701C01D010E07EB1E08E0028CDD17B
:1020E000E08F0028CAD142463146204600F0F0FE7B
:1020F00028B101272020606507E0032705E0A068DC
:1021000018B92068C16880680090012084F85100E7
:10211000002084F8500038462CE77047704710B50F
:10212000040003D094F83D0010B107E0012010BD79
:10213000002084F83C00204600F00CF8022084F8CF
:102140003D00211D206801F053F8012084F83D0076
:10215000002010BD70470168CA6842F00102CA60E1
:102160000068816801F00701062903D0016841F089
:102170000101016000207047704770B50446006897
:1021800001694FF00005C943890715D4C168C943E7
:10219000890711D4E91E0161012020772068806938
:1021A0008007204602D0FFF7E7FF04E000F098F830
:1021B000204600F096F8257720680169C943490751
:1021C00017D4C168C943490713D46FF004010161F2
:1021D000022020772068806910F4407F204602D0DA
:1021E000FFF7CAFF04E000F07BF8204600F079F822
:1021F000257720680169C943090716D4C168C94316
:10220000090712D46FF008010161042020772068CB
:10221000C0698007204602D0FFF7AEFF04E000F05F
:102220005FF8204600F05DF8257720680169C94312
:10223000C90617D4C168C943C90613D46FF0100189
:102240000161082020772068C06910F4407F204693
:1022500002D0FFF791FF04E000F042F8204600F0C2
:1022600040F8257720680169C943C90708D1C168CA
:10227000C943C90704D1891E0161204600F032F824
:1022800020680169C943090609D4C168C943090620
:1022900005D46FF0800101612046FFF73EFF206802
:1022A0000169C943490609D4C168C943490605D42F
:1022B0006FF040010161204600F01EF820680169BE
:1022C000C94389060BD4C168C943890607D46FF096
:1022D000200101612046BDE87040FFF71FBF70BDBF
:1022E0007047704700680349884201D1FFF7E0B9A1
:1022F00070470000000001407047704770B504004F
:1023000004D094F83900002510B106E0012070BD1A
:1023100084F83850204600F023F8242084F839004F
:102320002068C16821F40051C160204601F024F802
:102330002068016921F4904101612068416921F020
:102340002A0141612068C16841F40051C160E56320
:10235000202084F8390084F83A00002070BD000085
:1023600070B586B0064614216846FEF75BF8304C1F
:10237000306800252F4903220223A0421ED12D4898
:102380001030046844F400240460006800F4002065
:102390000590086840F0010008600868694600F090
:1023A000010005900120CDE9020208200490CDE94A
:1023B00000232148FFF78AF806B070BD1F4CA042E9
:1023C000FAD11C481430046844F01004046000681A
:1023D00000F010000590086840F0020008600868EE
:1023E000694600F002000590C0208DE82900072012
:1023F000CDE903201248FFF769F8134C114820601B
:102400004FF00060C4E901054014C4E90350801096
:102410006561C4E906504FF44030C4E90805204620
:10242000FEF7AEFF08B1FEF75AFB7463A663C3E77D
:10243000004C0040303802400000024000100140D3
:102440000004024040640240C8040020F8B504467D
:1024500090F83A0020283CD1C1B3BAB394F83800C0
:10246000012836D0012084F83800A162A285002519
:10247000E563222084F83A00636B1748D863636BE6
:1024800016481864636B1648D864606B134605657C
:102490000846666B216802463046091DFEF7DAFFE2
:1024A000206801684168009184F83850C16841F49F
:1024B0008071C1602068416941F00101416120687B
:1024C000416941F0400141610020F8BDFFE7012072
:1024D000FBE70220F9E70000033300083F33000860
:1024E000B932000870477047FEE700002DE9F04F51
:1024F000DFF8DCC0DFF8DCA00CF12408099F002421
:102500000AF10C0B08F124090AF1180E04EB440639
:102510000CEB860593ED030AD5ED000A95ED011A43
:1025200020EE200AD3ED040A00EE810AD3ED050A5D
:1025300095ED021A0AEB840500EE810AD5ED000A3A
:1025400000EB840530EE200A85ED000A08EB8605D5
:1025500093ED000AD5ED000A95ED011A20EE200A50
:10256000D3ED010A00EE810AD3ED020A95ED021ABD
:102570000BEB840500EE810AD5ED000A01EB840522
:1025800030EE200A85ED000A09EB860597ED000A7A
:10259000D5ED000A95ED011A20EE200AD7ED010ACB
:1025A00000EE810AD7ED020A95ED021A0EEB8405C2
:1025B00000EE810AD5ED000A02EB8405641CE4B24A
:1025C000032C30EE200A85ED000A9FD3BDE8F08F82
:1025D000A8000020BC4200200A4C4FF400664FF4D3
:1025E000FA75002231462046FFF756F8284601F0DA
:1025F00049FE012231462046FFF74EF8284601F0F9
:1026000041FEEEE7001002402DE9F047DFF820819F
:10261000DFF818A108F1180606F134059AF8010050
:10262000A5F10C0406F10807A4F10C09F0B394ED30
:10263000001A89ED001AD5ED000AC4ED000A9FEDDD
:102640003D0A98ED002AA4F1340360EE801ADFED14
:102650003A0A41EE201A9FED391A42EE011AC5EDF1
:10266000001A94ED012A89ED012AD5ED011AC4ED75
:10267000011A61EE801A42EE201A98ED012A42EE0C
:10268000011AC5ED011A94ED022A89ED022AD5ED51
:10269000021AC4ED021A21EE800A02EE200AD8EDD9
:1026A000020A00EE810A85ED020A00E00FE02A46E8
:1026B000A2F158019FED220A381DFEF7A7F8321D3E
:1026C0003B463146381DBDE8F04701F037BC184A9B
:1026D00017490C3201F12400FDF732FF14493B4643
:1026E0001831321D01F10C0001F028FC98ED000AB0
:1026F00085ED000A84ED000A89ED000A98ED010AD3
:1027000085ED010A84ED010A89ED010A98ED020ABE
:1027100085ED020A84ED020A89ED020A9AF8011099
:10272000491C8AF80110BDE8F087000094000020E1
:10273000EC4200205AF8F63F5D896EBFD5A9183BE0
:102740006F12833A00B587B0152269463B2000F02E
:102750009DF8BDF8000040BA00B200EE100A3848FB
:10276000F8EEC00A9FED350A60EE800AC0ED000A5F
:10277000BDF8021049BA09B200EE901AF8EEE00A6C
:1027800060EE800AC0ED010ABDF8041049BA09B232
:1027900000EE901AF8EEE00A20EE800A80ED020AC0
:1027A000BDF8081049BA09B200EE101AF8EEC00AD6
:1027B0009FED240A60EE800AC0ED030ABDF80A10FE
:1027C00049BA09B200EE901AF8EEE00A60EE800A0B
:1027D000C0ED040ABDF80C1049BA09B200EE901A17
:1027E000F8EEE00A20EE800A80ED050A9DF80E0062
:1027F000012821D1BDF90F0000EE100A1048F8EEB3
:10280000C00A9FED110A303060EE800AC0ED000A68
:10281000BDF9111000EE901AF8EEE00A60EE800AA1
:10282000C0ED010ABDF9131000EE901AF8EEE00AAF
:1028300020EE800A80ED020A07B000BDCDCC1C3B23
:102840004443002058A08B3A9A99993E38B50446E3
:1028500001F010FD44F080000A4C3725221D607104
:102860000123511C08480095FFF766FB221D012338
:10287000511C05480095FFF75FFB01F0F3FC207940
:1028800038BD00003A010020F0030020F8B51446DE
:102890000D46064601F0EEFC0D4946F08000372655
:1028A000C8711631A1F11002087001230F390948CF
:1028B0000096FFF741FB064923462A461631054894
:1028C0000096FFF739FB01F0CDFC0020F8BD0000B9
:1028D0003A010020F0030020F8B50D46044601F04F
:1028E000C9FC04F07F000B4C3726224660700123A0
:1028F000511C09480096FFF71FFB65702246012313
:10290000511C05480096FFF717FB01F0ABFC0020B7
:10291000F8BD00003A010020F0030020F8B514468D
:102920000E46054601F0A6FC0B4905F07F00372551
:10293000C8708A1C0123C91C08480095FFF7FCFADF
:10294000054A23460832314604480095FFF7F4FA59
:1029500001F088FC0020F8BD3A010020F0030020BF
:102960000F4810B50D4901600521416000214FF469
:1029700000328160C0E903125201426101220276F5
:1029800041768176C17601774277FEF71EFB0028FB
:1029900003D0BDE81040FEF7A2B810BD00640040AF
:1029A00074010020094808B5016841F48001016004
:1029B0000068002200F48000009005213A20FEF714
:1029C00043FFBDE808403A20FEF731BF30380240EF
:1029D00010B5AAB01C2221496846FDF70AFD002166
:1029E000684601F062FC1E4C1C491C2220601C3110
:1029F00007A8FDF7FEFC002107A801F056FC1749C7
:102A000060601C2238310EA8FDF7F3FC00210EA8EF
:102A100001F04BFC1149A0601C22543115A8FDF7B0
:102A2000E8FC002115A801F040FC0C49E0601C22E4
:102A300070311CA8FDF7DDFC00211CA801F035FC5D
:102A4000064920611C228C3123A8FDF7D2FC00210D
:102A500023A801F02AFC60612AB010BDF84E0008DE
:102A600000000020F0B587B014216846FDF7DAFCBD
:102A700033480024016841F010010160016801F051
:102A800010010591016841F002010160016801F047
:102A900002010591016841F008010160016801F03F
:102AA00008010591016841F080010160016801F0B1
:102AB00080010591016841F020010160016801F089
:102AC00020010591016841F00101016000681D4E7F
:102AD00000F0010040F6040505900022294630462A
:102AE000FEF7DAFD184F002244F240013846FEF7A7
:102AF000D3FD0820CDE90004694630460294FEF774
:102B0000E5FC00950125CDE9015469463046039462
:102B1000FEF7DCFC4020CDE900050220CDE90240B3
:102B200069463846FEF7D2FCA8030090CDE901546F
:102B3000694638460394FEF7C9FC07B0F0BD0000B3
:102B40003038024000100240001402400F4810B517
:102B50000D4901604FF48271416000218160C160C4
:102B60004FF400720161C0E90512C1610162416266
:102B700081620A21C162FFF769F9002803D0BDE82C
:102B80001040FDF7ACBF10BD00500140F003002025
:102B90000C4810B50A4901604FF4165141600021FC
:102BA00081600C22C160C0E904128161C161FFF73C
:102BB000A5FB002803D0BDE81040FDF790BF10BD75
:102BC000004C0040480400200C4810B50A49016040
:102BD0000B494160002181600C22C160C0E90412F0
:102BE00081610A46C161FEF7DBFD002803D0BDE824
:102BF0001040FDF774BF10BD001001408804002094
:102C0000A0860100FEE70000401AB0F5805F02DDFB
:102C1000A0F5005004E010F5805F01DA00F50050E7
:102C200000EE100ADFED030AB8EEC00A20EE200A1B
:102C300070470000DB0F493A7047000070B53A4D0D
:102C400042F21076A5F1180435E000BFFFF77AFDD7
:102C500095ED000AD4ED000A012030EE200A85ED42
:102C6000000A95ED010AD4ED010A30EE200A85ED47
:102C7000010A95ED020AD4ED020A30EE200A85ED34
:102C8000020A95ED030AD4ED030A30EE200A85ED21
:102C9000030A95ED040AD4ED040A30EE200A85ED0E
:102CA000040A95ED050AD4ED050A30EE200A85EDFB
:102CB000050A01F0E7FA761EB6B2C7D2D5ED000AD2
:102CC0009FED1A0A80EE801A85ED001AD5ED010AF3
:102CD00080EE801A85ED011AD5ED020A80EE801A89
:102CE00085ED021AD5ED030A80EE801A85ED031AF0
:102CF000D5ED040A80EE801A85ED041AD5ED050A9B
:102D000080EE801A9FED0A0A85ED051A84ED000A0F
:102D100084ED010A84ED020A84ED030A84ED040ABD
:102D200084ED050A70BD00005C43002000401C4695
:102D300000000000A0B190ED071A80ED081AD0ED58
:102D4000060AC0ED070A90ED040AD0ED051A30EE30
:102D5000610A80ED060A017829B101292FD062E0CD
:102D60009FED320A704790ED011A61EE001AC0ED36
:102D7000091A90ED0A1A90ED022A02EE001A30EEBE
:102D8000600A80ED0A1AD0ED030A60EE200AC0ED59
:102D90000B0A90ED0D0AB4EEC01AF1EE10FA09DC40
:102DA000B1EE400AB4EEC01AF1EE10FA02D390ED83
:102DB0000A0A01E080ED0A0A31EE800A1FE070EE97
:102DC000601A90ED012AF0EE002A21EE822A80EDB1
:102DD000092AD0ED021A61EE801A00EEE20AC0ED77
:102DE0000A1AD0ED030A30EE010A20EE200A72EE34
:102DF000210A80ED0B0A30EE800AD0ED0C0A30EE8D
:102E0000200A80ED0C0AD0ED0E0AB4EEE00AF1EED5
:102E100010FA06DCF1EE600AB4EEE00AF1EE10FA08
:102E200001D2C0ED0C0A90ED0C0A704700000000C2
:102E300000280FD00170C0ED0D0A80ED0E0A9FED45
:102E4000060A80ED080A80ED070A80ED060A001DDB
:102E500080EC031A704700000000000010B50288E3
:102E6000C2F30A020A8042788378D20842EA431207
:102E7000C2F30A024A808378C4789B0943EA840338
:102E8000047943EA8423C3F30A038B8003794479EA
:102E90005B0843EAC413C3F30A03CB804379C3F34B
:102EA00001130B7243799B094B72C3884B810389D1
:102EB0008B814389CB81037B0B74437B4B74C38928
:102EC0004B82008A88820148026010BD9000002079
:102ED00038B504461248134B0068B0FBF3F04FF4CA
:102EE0007A73584300906068B0F5827F0DD10B462D
:102EF000009200228021204600F016F870B1606D2B
:102F000040F020006065032038BD009830B1401EBD
:102F1000009020688068C0430006F6D5002038BDC8
:102F20002C00002000366E012DE9F0411D461746A9
:102F30000E460446DDF8188008E0681C06D0FEF74F
:102F4000B1FBA0EB0800A8420BD255B12068806805
:102F500036EA000030D00020B842EED10020BDE8B3
:102F6000F0812068416821F0E00141606068B0F5BF
:102F7000827F0BD1A068B0F5004F02D0B0F5806F12
:102F800004D12068016821F040010160A06AB0F519
:102F9000005F09D12068016821F4005101602068B8
:102FA000016841F400510160012084F851000020C3
:102FB00084F850000320D2E70120CDE72DED028BED
:102FC00088B0072001F05EF9002514223D496846CB
:102FD000FDF70FFA642001F055F97520FFF736FC74
:102FE000394C4FEA0D06207006EB4500417816F883
:102FF0001500FFF771FC012001F044F96D1CEDB2E2
:103000000A2DF1D301F0B6F80028FBD1FFF716FE28
:1030100001F0A6FE2D4D9FED2E8A4FF47A7905F131
:10302000180605F13008A5F1400705906068401CBE
:103030006060484501D100206060FFF783FB95ED9B
:10304000030AD6ED030A214B30EE600AA3F14C02CD
:10305000A2F10C0185ED030A95ED040AD6ED040AF0
:10306000A1F10C0030EE600A85ED040A95ED050A29
:10307000D6ED050A30EE600A85ED050ACDF8008030
:10308000FFF734FAFFF7C0FA97ED000A012105A80F
:1030900020EE080ABDEEC00A84ED020A97ED010A8F
:1030A00020EE080ABDEEC00A84ED030A97ED020A7D
:1030B00020EE080ABDEEC00A84ED040A01F0E9F82A
:1030C000B4E70000C04F00089400002044430020F3
:1030D00000007A44012001F0D5F8FBE710B550203C
:1030E00080F31188BFF34F8FBFF36F8F01F03EFE67
:1030F00018B104494FF080500860002080F3118817
:1031000010BD000004ED00E030B593B030216846FA
:10311000FDF788F914210CA8FDF784F91A48002559
:10312000016841F080510160006800F0805011900A
:103130001648016841F4404101600068022400F42F
:103140004040119001200090000401908001CDE9E1
:10315000064006200890B420CDE9090404200B9015
:103160006846FEF7E5FCFEF7A1FB0CA90F2081E8FD
:1031700031004FF4A0500F90E002109005210CA8F0
:10318000FEF7CCFB13B030BD403802400070004069
:103190001048016841F4700101600F48016841F076
:1031A000010101600C4A00210832116002680B4BDA
:1031B0001A400260031D0A4A1A60026822F4802243
:1031C000026005480C3001600249580680390860E9
:1031D0007047000088ED00E000380240FFFFF6FE77
:1031E000103000240148FEF7C8BF00002805002069
:1031F000F0B50268254C264D264E274F274B4FF041
:10320000804CA04209D0604507D0A84205D0B0420A
:1032100003D0B84201D0984204D122F0700E4A681F
:1032200042EA0E02A0421BD0604519D0A84217D036
:10323000B04215D0B84213D0984211D0184DA842D0
:103240000ED0184DA8420BD0174DA84208D0174DEC
:10325000A84205D0164DA84202D0164DA84203D16F
:1032600022F44075CA682A434D6922F080022A433D
:1032700002608A68C2620A688262A04201D09842F3
:1032800001D10969016301214161F0BD00000140E4
:103290000004004000080040000C00400004014011
:1032A0000040014000440140004801400018004037
:1032B000001C00400020004070B5846B206840690D
:1032C00094F83910C0F3C0100025212904D118B199
:1032D000E584204600F046F82068406994F83A10EA
:1032E000C0F38010222904D118B1E585204600F0F2
:1032F0002BF8E06B40F01000E0632046FEF7FDFF86
:1033000070BD10B50146806B09680968C90513D402
:103310000021C1850168CA6822F48072CA60016810
:103320004A6922F001024A6101684A6922F04002BA
:103330004A61202180F83A10FFF7D4F810BD10B58B
:10334000806BFFF7D0F810BD0168CA6822F4907254
:10335000CA6001684A6922F001024A61202180F8AE
:103360003A1070470168CA6822F0C002CA60202182
:1033700080F83910704700002DE9F04104460068DC
:103380000169E26821F44051114301612169A0689B
:10339000E26908436169114322680843D16849F230
:1033A0000C6399430143D16020684169A26921F40B
:1033B000407111434161E2696425B2F5004F9748BD
:1033C000974922684FF032083FD08A4201D08242AA
:1033D0007CD1FEF76BFB00EBC00101EB00106168D4
:1033E0008900B0FBF1F6FEF761FB00EBC00101EBD9
:1033F000001061688900B0FBF1F0B0FBF5F06FF0F0
:103400001801484306EB800108EB0110B0FBF5F012
:1034100000F0F006FEF74AFB00EBC00101EB0010E4
:1034200061688900B0FBF1F0B0FBF5F006EB001627
:10343000FEF73CFB00EBC00101EB00106168890066
:10344000B0FBF1F7FEF732FBD2E08A4201D08242B4
:103450003DD1FEF72BFB00EBC00101EB00106168D2
:103460004900B0FBF1F0B0FBF5F00601FEF71EFBE2
:1034700000EBC00101EB001061684900B0FBF1F7FF
:10348000FEF714FB00EBC00101EB0010616849007E
:10349000B0FBF1F0B0FBF5F06FF01801484307EB1B
:1034A000800108EBC100B0FBF5F000F0F80006EB7E
:1034B0004006FEF7FBFA00EBC00101EB001061686B
:1034C0004900B0FBF1F7FEF7F1FA3CE055E0FEF7FA
:1034D000DDFA00EBC00101EB001061684900B0FBB0
:1034E000F1F0B0FBF5F00601FEF7D0FA00EBC001F9
:1034F00001EB001061684900B0FBF1F7FEF7C6FA76
:1035000000EBC00101EB001061684900B0FBF1F075
:10351000B0FBF5F06FF01801484307EB800108EBB2
:10352000C100B0FBF5F000F0F80006EB4006FEF736
:10353000ADFA00EBC00101EB001061684900B0FB7F
:10354000F1F7FEF7A3FA00EBC00101EB0010616890
:103550004900B0FBF1F0B0FBF5F06FF01801484303
:1035600007EB800108EBC100B0FBF5F000F00700AD
:10357000216830448860BDE8F081FEF787FA00EBEF
:10358000C00101EB001061688900B0FBF1F6FEF7A5
:103590007DFA00EBC00101EB001061688900B0FB0F
:1035A000F1F0B0FBF5F06FF01801484306EB800135
:1035B00008EB0110B0FBF5F000F0F006FEF766FA3C
:1035C00000EBC00101EB001061688900B0FBF1F075
:1035D000B0FBF5F006EB0016FEF758FA00EBC00161
:1035E00001EB001061688900B0FBF1F7FEF74EFABD
:1035F00000EBC00101EB001061688900B0FBF1F045
:10360000B0FBF5F06FF01801484307EB800108EBC1
:103610000110B0FBF5F000F00F00A9E70014014025
:1036200000100140FEE74100080218BF04200A0E06
:1036300018BF40F001004FF07F4232EA010108BF9D
:1036400040F00200012808BF052070470907090E55
:10365000002804DB00F1E02080F80014704700F03F
:103660000F0000F1E02080F8141D704710B54FF0F6
:103670000E402DED028BB0EE408A18EE104A00EBA2
:103680004400B0F1506F4AD84FF0FC40B0EB440F0B
:1036900022D2B0EEC80AF7EE000A30EEC00AF6EE0B
:1036A000000A60EE208A18EE900A01F08FF801EE11
:1036B000100A14F0004F1DBFDFED2D0A9FED2D0AFB
:1036C000B1EE411ADFED2C0A08BF9FED2C0AF8EE8F
:1036D000001A21EE218A05E0DFED290A68EE088A4A
:1036E000B0EE600A9FED271ADFED271A30EE080AC8
:1036F00048EE811A9FED251A08EEA11ADFED241A73
:1037000048EE811A9FED231A08EEA11A68EE281AD6
:10371000BDEC028B01EE810A30EE200A10BD4FF0A5
:10372000E440B0EB440F0CD918EE100AFFF77BFF12
:10373000042808BF00F066F9B0EE480ABDEC028B21
:1037400010BD4FF07F40B0EB440F07D2B0EE480AF7
:10375000BDEC028BBDE8104000F046B9012000F03E
:1037600069F9BDEC028BBDE8104000F043B90000E0
:103770000000C9BF22AAFDB90000C93F22AAFD3935
:103780000000000024FE1C3DC78AD83C1E67383D5F
:103790001B93993DAFAA2A3E10EE100A10B510EE09
:1037A000901A4FF0684202EB40032DED028BB3F10B
:1037B000654F3CBF02EB4102B2F1654F7CD200BFC6
:1037C000C0F3C753C1F3C7529A1A1B2A09DD10F080
:1037D000004F14BF9FED6E0A9FED6E0ABDEC028B89
:1037E00010BD12F11A0F1BDA11F0004F09D010F0C2
:1037F000004F0CBF9FED680A9FED680ABDEC028B7D
:1038000010BD80EE208A18EE100AFFF70CFF042886
:1038100008BF00F0F7F8B0EE480ABDEC028B10BD0F
:103820004200B2EB410F37D910F0004F19BFDFED66
:103830005C1A9FED5C1ADFED5C1A9FED5C1AB0EE2E
:10384000602A0A46F1EE400A80F00041B0EE420ADA
:1038500010460A1A5200B2F1807F34D2484010F06C
:10386000004FDFED532A9FED533A1DBFBEEE002AF5
:1038700071EEE21A31EE431AB6EE002A04BF71EE81
:10388000A21A31EE031AF0EE402A42EE602A40EE10
:10389000020A82EEA02A18E011F0004F04BF9FED4B
:1038A000461AF0EE411AD4D010F0004F1CBFDFEDE5
:1038B000431A9FED431A00E026E004BFDFED411AF2
:1038C0009FED411AC5E780EE202A22EE020ADFEDC5
:1038D0003F0ADFED3F2ABDEC028B40EE202ADFEDF0
:1038E0003D0A40EE220ADFED3C2A40EE202ADFEDC1
:1038F0003B0A40EE220A22EE000A00EE201A31EEC8
:10390000020A30EE210A10BD4FF07F42B2EB400FA9
:1039100028BFB2EB410F05D2BDEC028BBDE81040D1
:1039200000F065B840EA01035B0008BF41F0FF41C9
:103930000BD0B2EB400F08BFB2EB410F08D120F023
:10394000804000EE100A21F0804100EE901A37E727
:10395000B2EB400F12BF5FEA410240F0FF4001F0BE
:1039600000413FF42DAF4A0092EA40033FF528AFF3
:10397000002AACBF9FED1A1A9FED1A1A20EE010A19
:1039800060EE810A10EE100A10EE901A18E700009F
:10399000DB0FC9BFDB0FC93FDB0F4940DB0F49C05D
:1039A0000000C9BF22AAFDB90000C93F22AAFD3903
:1039B0000060ED3EC30ACE3700000000000049C0A1
:1039C00022AA7DBA0000494022AA7D3A2DAD65BDEC
:1039D0008FB8D53D0FB511BE61C84C3EA8AAAABE8E
:1039E0000000804F0000802F30EE000A704730EE5C
:1039F000200A7047DFED020A80EEA00A704700003F
:103A0000000000009FED020A20EE000A704700004F
:103A10000000001002E008C8121F08C1002AFAD1F5
:103A200070477047002001E001C1121F002AFBD13E
:103A300070470000014908607047000070010020D5
:103A400070B52DED028B8AB005460C4616460DB1B9
:103A500004B11EB90AB0BDEC028B70BD94ED000A32
:103A6000B5EEC00AF1EE10FA0DD194ED010AB5EEF3
:103A7000C00AF1EE10FA06D194ED020AB5EEC00AC2
:103A8000F1EE10FA7DD09FED600AB0EE408A002082
:103A90000790089009900490059006905B4A07CA29
:103AA00001AB07C395ED010AD5ED030A20EE200A0C
:103AB000D5ED000A95ED021A00EEC10AF0EE000AFB
:103AC00020EE200A8DED070A95ED000AD5ED010ADA
:103AD00020EE200AD5ED020A95ED031A00EE810AC8
:103AE000F0EE000A20EE200A8DED080A95ED000A9E
:103AF00020EE000AD5ED030A95ED031A00EE810AC7
:103B0000F7EE000AB0EE001A51EE000ACDED090AF8
:103B100001AB22463146284600F07AF8D4ED000A7F
:103B200060EEA00A94ED011AD4ED011A41EE210ACB
:103B300094ED021AD4ED021A41EE210AB0EE600AA9
:103B4000FCF74CFEB0EE408A94ED000A20EE080A25
:103B500084ED000A94ED010A20EE080A84ED010AC2
:103B600094ED020A20EE080A84ED020A94ED010A9F
:103B7000DDED090A20EE200AD4ED020A9DED081AB7
:103B800000E03EE000EEC10A8DED040A94ED020A69
:103B9000DDED070A20EE200AD4ED000A9DED091A9A
:103BA00000EEC10A8DED050A94ED000ADDED080A6C
:103BB00020EE200AD4ED010A9DED071A00EEC10A9D
:103BC0008DED060A96ED000ADDED010A9DED041A61
:103BD00000EE810A86ED000A96ED010ADDED020A8B
:103BE0009DED051A00EE810A86ED010A96ED020AA6
:103BF000DDED030A9DED061A00EE810A86ED020A4C
:103C000000BF00BF26E7000000000000E04F0008F2
:103C10002DE9F0412DED048B07460D4614461E4656
:103C20009FED580AB0EE409A9FED560AB0EE408ADA
:103C30009FED540AF0EE408AD4ED000A60EEA00A2F
:103C400094ED011AD4ED011A41EE210A94ED021A05
:103C5000D4ED021A41EE210AB0EE600AFCF7BEFD77
:103C6000F7EE000A80EE801AB0EE419AD5ED000A18
:103C7000B0EE600AFCF743FCF0EE409AD5ED010A85
:103C8000B0EE600AFCF73BFC79EE809AD5ED020AB3
:103C9000B0EE600AFCF733FC39EE800AF0EE408AA1
:103CA0003948D0ED000A79EE600AB0EE600AFCF700
:103CB00026FCB0EE408A9FED350AB4EEC08AF1EEE4
:103CC00010FA06DC9FED320AF4EEC08AF1EE10FA2B
:103CD00053DD9FED2C2AB0EE420A9FED2A2AF0EE2A
:103CE000421AB7EE002AF0EE420A9FED262AB0EE05
:103CF000421AB5EEC08AF1EE10FA05DD9FED232AD7
:103D0000C2EE082AB0EE620A9FED222AB4EEC20A81
:103D1000F1EE10FA03D29FED1B2AB0EE420AF5EE47
:103D2000C08AF1EE10FA05DD9FED192AC2EE282AAD
:103D3000F0EE621AB7EE002AB4EEC20AF1EE10FA03
:103D400003D220EE802AF0EE420AB7EE002AF4EE0B
:103D5000C21AF1EE10FA03D220EEA12AF0EE420AC6
:103D60009FED0D2A20EE822AB0EE421A86ED001A4F
:103D700086ED011A86ED021A00BFBDEC048BBDE88A
:103D8000F0810000000000006C010020CDCCCC3D93
:103D90008FC2F53D9A99993ECDCC4C3E10B52DED94
:103DA000048B86B00446B0EE408AF0EE608AB0EE36
:103DB000419A002003900490059000900190029099
:103DC000B0EE000AC8EE000AF0EE609AB0EE690AA2
:103DD000FCF793FB8DED030AB0EE000AC8EE800AF3
:103DE000F0EE609AB0EE690AFCF787FB8DED040AED
:103DF000B0EE000AC9EE000AF0EE609AB0EE690A71
:103E0000FCF77BFB8DED050AB0EE000AC8EE000A58
:103E1000F0EE609AB0EE690AFCF7F6FC8DED000A50
:103E2000B0EE000AC8EE800AF0EE609AB0EE690AC1
:103E3000FCF7EAFC8DED010AB0EE000AC9EE000ABB
:103E4000F0EE609AB0EE690AFCF7DEFC8DED020A36
:103E50009DED050ADDED040A20EE200ADDED030AE2
:103E600020EE200ADDED020A9DED011A60EE810AC6
:103E70009DED001A00EE810A84ED000A9DED020A14
:103E8000DDED040A20EE200ADDED030A20EE200A13
:103E9000DDED050A9DED011A60EE810A9DED001A27
:103EA00000EEC10A84ED010A9DED050ADDED010A6F
:103EB00020EE200ADDED030A20EE200ADDED020AE5
:103EC0009DED041A60EE810A9DED001A00EE810A54
:103ED00084ED020A9DED050ADDED040A20EE200ABC
:103EE000DDED000A20EE200ADDED020A9DED011A4B
:103EF00060EE810A9DED031A00EEC10A84ED030A0B
:103F000006B0BDEC048B10BD4FF4FA74204600F0EF
:103F1000B9F9FBE7642000F0B5F9FBE7004870470A
:103F20000443002000487047E042002000487047EA
:103F30008A43002000487047804300202DE9F0416B
:103F400004460D4616461F4614B10DB106B10FB911
:103F5000BDE8F081D4ED010A94ED031A60EE810A08
:103F600094ED001AD4ED021A41EE610AB8EE001A7F
:103F700060EE810AB0EE600AFCF7BBFA86ED000A3B
:103F800094ED001A21EE011AD4ED011A94ED012AE4
:103F900001EE821AF7EE001AB0EE002A52EE011A74
:103FA000F0EE610A94ED001AD4ED031A21EE211A05
:103FB000D4ED011A94ED022A01EE821AF0EE001AF5
:103FC00021EE211AB0EE410AFCF795FA85ED000AC0
:103FD00094ED001A21EE011AD4ED031A94ED032A90
:103FE00001EE821AF7EE001AB0EE002A52EE011A24
:103FF000F0EE610A94ED001AD4ED011A21EE211AB7
:10400000D4ED021A94ED032A01EE821AF0EE001AA2
:1040100021EE211AB0EE410AFCF76DFA87ED000A95
:1040200000BF95E7028802810A8852BA02804A8856
:1040300052BA42808A8852BA8280897981717047E7
:1040400000487047944200202DED028B82B0274833
:10405000FCF746FD00F084FE244D9FED258A05F116
:10406000280705F1C0060090204CA06890ED000ADA
:1040700084ED040A90ED020A84ED2A0A606890ED4E
:10408000020A84ED060A90ED000A84ED2C0AE0682D
:10409000B4F8A0100088FEF7B7FD84ED080AD4F844
:1040A000A400B4F838110088FEF7AEFD84ED2E0AA6
:1040B00085ED058A85ED2B8A84ED0E8A94ED040A40
:1040C000384684ED0F0AFEF735FE94ED2B0A304694
:1040D00084ED340A94ED2A0A84ED350AFEF72AFEAF
:1040E0000121684600F0D5F8BEE70000FC4300203F
:1040F0000000C84208B508A10322096800918DF8A4
:10410000010069462520FEF709FC022000F0BAF8FC
:104110004920FEF79BFB08BD8E00810008B506A272
:10412000126800928DF801008DF802100422694691
:104130003120FEF7F3FB08BD0E00008001220421B0
:104140000148FDF7A9BA0000001002400022042136
:104150000148FDF7A1BA00000010024008B504A014
:1041600003220068009069462520FEF7D7FB08BDB2
:104170008E028D002DE9F0470025FFF7E7FF322082
:1041800000F080F8322000F07DF8FFF7D7FF002024
:10419000FFF7B0FF1E4C1028207002D04020BDE871
:1041A000F087DFF870804FF0000900BF05EB45068F
:1041B00006EB080718F806007978FFF7AFFF4846C6
:1041C00084F80190C0B2401CC0B260709628F9D348
:1041D00018F80600FFF78EFF2070494684F801901A
:1041E000C9B2491CC9B261709629F9D37978814264
:1041F00005D005EB450101EB08008078CFE76D1C89
:10420000EDB2042DD2D3FFF7A9FF0020C7E70000CD
:1042100038010020D44F0008FDF752FAFEF774FF72
:10422000FEF720FCFEF7BEFBFEF790FCFEF7CCFC91
:10423000FEF796FBFEF7ACFCFCF7B4FB1222044938
:104240000448FEF703F9FEF7C3FB00F029F8FEE788
:10425000AA4200208804002001460020842900D0C2
:10426000C81C7047012240210148FDF715BA000023
:1042700000140240002240210148FDF70DBA000061
:104280000014024010B500B9012000F0BFFB00206F
:1042900010BD10B501B9012100F0DEFB002010BDFA
:1042A00010B500F01FFC002010BD7FB50D46044680
:1042B0004169B0F9080081B1A16971B1FFF7CCFF84
:1042C000D4E905128DE80700D4E900102B462269D5
:1042D00000F01BFD039004B070BDFFF7BDFF03A904
:1042E000CDE90001208A2B4682B2D4E9001000F00B
:1042F000DFFC012801D00020EDE70398EBE7000088
:104300002DE9F041184C0F46054666692068001DEE
:1043100000F0B8FA38B9206890F82C1001208840D5
:10432000A1698143A161681C07D137B12168BDE84B
:10433000F0410E48091D00F0E9BA20683544B54245
:104340004560216805D2A068BDE8F041091D00F074
:10435000C5BA6068091D00F0C1FA206B854200D221
:104360002563BDE8F08100003000002080060020B9
:104370002DE9F041054600F0D5FA2D4C2069401C8E
:10438000206120682B4F10B1E06938B32CE0256024
:104390002069012828D1002606EB860007EB800063
:1043A00000F08EFA761C0A2EF6D32248C83000F0B0
:1043B00087FA2048DC3000F083FA1E48F03000F025
:1043C0007FFA1D4800F07CFA1B48143000F078FAA0
:1043D00019483C3860601430A06005E02068E96A44
:1043E000C06A884200D82560E06A401CE062E96A41
:1043F0000120A26988401043A06101EB810007EB16
:104400008000291D00F082FA00F0ACFAE069002873
:104410000CD02068E96AC06A884207D207494FF089
:1044200080500860BFF34F8FBFF36F8FBDE8F081FE
:1044300030000020680500206C06002004ED00E03C
:1044400010B5044690F8510058B101280CD002284C
:104450000FD0502080F31188BFF34F8FBFF36F8FC1
:10446000FEE7206B00F092FA2046BDE8104000F015
:104470008DBA10BD10484FF47051420706D0C01DD0
:104480000D4920F00700411AC1F570510B4A002375
:104490000144C2E900030839103A21F00701116014
:1044A0004B600B600B1AC0E9001393604FF00040A3
:1044B0005360D06070470000940600207C0000200C
:1044C000144E154CA6F582774FF08058DFF84C90CB
:1044D00012E000BF00F026FAF068C568281D00F061
:1044E000D1F92069401E2061E068401EE06000F0C4
:1044F00039FA2846FFF7A4FFE0680028EAD13868B7
:104500000128F9D9C9F80080BFF34F8FBFF36F8F2F
:10451000F2E700006C0600203000002004ED00E00F
:104520002DE9F0479A46DDE9098481466FF00303DF
:10453000206B03EB82021044089D20F007067007F1
:1045400007D0502080F31188BFF34F8FBFF36F8FD8
:10455000FEE723180A5C83F834200A5C12B1401C81
:104560001028F6D3002784F843700A2D00D30925BC
:10457000E562C4E91157201D00F0ADF904F11800FF
:1045800000F0A9F92461C5F10A006462A061E76442
:1045900084F8507052464946304600F0BFF820601B
:1045A000B8F1000F01D0C8F80040BDE8F087000066
:1045B00030B5114900E011460A688242FBD34B68CE
:1045C0005C18844203D14068184448600846436838
:1045D0001C18944209D1084C103C2468A24209D00E
:1045E00052681A4442600A6812680260814200D030
:1045F000086030BD0460F9E77C000020064841688F
:10460000096829B14168C968C96849680163704788
:104610004FF0FF31FAE70000300000200848406802
:10462000401C4FF0500080F3118804D0BFF34F8F2F
:10463000BFF36F8FFEE7BFF34F8FBFF36F8FFEE7C0
:10464000840000202DE9F0410546002700F080FAA3
:10465000314E306808B9FFF70DFFF06805424BD1C5
:10466000C5B3083568070ED005F00700C0F1080093
:104670000544680707D0502080F31188BFF34F8F9F
:10468000BFF36F8FFEE72DB37068854234D82248A0
:10469000103001460C6801E020460C466168A942D2
:1046A00002D221680029F7D131688C4224D00768F2
:1046B0002168016060680837411B10290FD9601913
:1046C000420708D0502080F31188BFF34F8FBFF30B
:1046D0006F8FFEE710E041606560FFF769FF61687A
:1046E0007068401A7060B268904200D2B060F068A2
:1046F00001430020C4E9000100F09CFB780707D0CB
:10470000502080F31188BFF34F8FBFF36F8FFEE708
:104710003846BDE8F08100006C00002010B5031F92
:104720004FF080741C601B1F21F001011960191FDC
:10473000044B0B6014390A60091F6FF00202443801
:104740000A6010BD1D46000810B52DED028B044611
:104750009FED1D0AB0EE408AD4ED000A60EEA00A7B
:1047600094ED011AD4ED011A41EE210A94ED021ADA
:10477000D4ED021A41EE210A94ED031AD4ED031A86
:1047800041EE210AB0EE600AFCF728F8B0EE408A4C
:1047900094ED000A20EE080A84ED000A94ED010A67
:1047A00020EE080A84ED010A94ED020A20EE080AC0
:1047B00084ED020A94ED030A20EE080A84ED030A50
:1047C000BDEC028B10BD00000000000010B500EE33
:1047D000100A2DED028BB1EEC08A18EE100A20F0FF
:1047E0000040C0F1FF40C00F0AD010EE100A20F0C8
:1047F0000040C0F1FF40C00F04BF0120FFF71AF9CD
:1048000018EE100ABDEC028B10BD91ED000AB1EE5E
:10481000400A80ED010A91ED010AB1EE400A80EDF7
:10482000020A91ED020AB1EE400A80ED030A91ED11
:10483000000A80ED040A91ED020A80ED060A91ED6E
:10484000010AB1EE400A80ED070A91ED010A80ED00
:10485000080A91ED020AB1EE400A80ED090A91EDD5
:10486000000A80ED0B0A91ED020A80ED0C0A91ED31
:10487000010A80ED0D0A91ED000AB1EE400A80EDCB
:104880000E0A7047D0E9013201699A60D0E901232C
:104890005A604A68824201D182684A6000220261FD
:1048A0000868401E0860086870470000034B0360FA
:1048B00003F1540008608020106070479C010020C4
:1048C00000F108014FF0FF32C0E90112C16001613F
:1048D00000210160704700210161704730B50B680D
:1048E0005A1C02D000F1080202E0026904E02246EC
:1048F000546825689D42FAD953684B6099608A6074
:10490000516008610168491C016030BD42684A601D
:1049100093688B6093685960916008610168491CD5
:1049200001607047502080F31188BFF34F8FBFF3B1
:104930006F8F0A494868401C486001280CD108481C
:10494000006810F0FF0F07D0502080F31188BFF3EC
:104950004F8FBFF36F8FFEE7704700008400002089
:1049600004ED00E00849486828B1401E486001D1C4
:1049700080F311887047502080F31188BFF34F8F68
:10498000BFF36F8FFEE700008400002070B50028A1
:1049900027D0144DA0F108046168E868014207D1EE
:1049A000502080F31188BFF34F8FBFF36F8FFEE766
:1049B00022683AB1502080F31188BFF34F8FBFF3C4
:1049C0006F8FFEE78143616000F0C2F8606869683C
:1049D000084468602046FFF7EBFDBDE8704000F03A
:1049E00029BA70BD6C0000204FF0E0200021016169
:1049F000816105494FF47A720968B1FBF2F1491EF1
:104A000041610721016170472C00002010B50200B0
:104A100014D00F48806B38B1502080F31188BFF359
:104A20004F8FBFF36F8FFEE700F092F80021104622
:104A3000FFF766FC00F0FEF9002807D105494FF0AA
:104A400080500860BFF34F8FBFF36F8F10BD000021
:104A50003000002004ED00E070B50D4604000BD0DE
:104A600095B11E4A906BB8B1502080F31188BFF306
:104A70004F8FBFF36F8FFEE7502080F31188BFF395
:104A80004F8FBFF36F8FFEE7502080F31188BFF385
:104A90004F8FBFF36F8FFEE700F05AF8526923681B
:104AA0005919934204D98B420AD9914202D807E09E
:104AB0008B42FAD9881A21600021FFF721FC00E01F
:104AC000216000F0B7F9002807D105494FF0805068
:104AD0000860BFF34F8FBFF36F8F70BD30000020B1
:104AE00004ED00E010B586B00024039405AA04A9E3
:104AF00003A80494FFF7DAFEDDE903010094CDE991
:104B0000011000230EA11048059A00F0FEF80F498D
:104B10000028486311D0502080F31188BFF34F8FD5
:104B2000BFF36F8F4FF0FF3008630120C8614C6105
:104B300006B0BDE8104000F041B806B010BD00005E
:104B400049444C4500000000C144000830000020EA
:104B50000248816B491C81637047000030000020CF
:104B60001448816B11B101214162704700214162FB
:104B70008169B1FA81F1C1F11F0101EB81020E4996
:104B800051F822306BB101EB820101F108034A6850
:104B900052684A609A4201D152684A60D168016005
:104BA0007047502080F31188BFF34F8FBFF36F8F92
:104BB000FEE7000030000020680500201CB53748E3
:104BC0000168374A914207D1502080F31188BFF322
:104BD0004F8FBFF36F8FFEE700683149491E88424F
:104BE00007D1502080F31188BFF34F8FBFF36F8F31
:104BF000FEE72C4908780190FF20087008788DF8AE
:104C000000009DF800009DF8002000F0F0009042A8
:104C100007D0502080F31188BFF34F8FBFF36F8F01
:104C2000FEE79DF80000204B00F0500018700720B0
:104C3000986005E09DF8002052008DF80020401E8D
:104C40009DF800201206F5D49860032807D0502064
:104C500080F31188BFF34F8FBFF36F8FFEE74FF4E0
:104C600040709860019808700C482030016841F449
:104C700070010160016841F070410160FFF7B4FE0E
:104C800000205860FBF7C0FA0848016841F0404135
:104C90000160FBF7A5FA00201CBD000000ED00E05C
:104CA00071C20F4100E400E08400002034EF00E016
:104CB0002DE9FF5F8346DDE90E87994616468A4651
:104CC0009000FFF7BFFC05001CD05420FFF7BAFC92
:104CD000040014D00020256384F85100CDE902407F
:104CE000CDE900874B46324651465846FFF718FC3F
:104CF0002046FFF73DFB012004B0BDE8F09F2846A9
:104D0000FFF744FE4FF0FF30F6E7F0B585B0DDE980
:104D10000B640A9DA6B1DCB15427009726630226D6
:104D200084F85160002604AFCDE90246CDE9005772
:104D3000FFF7F6FB2046FFF71BFB049805B0F0BD1C
:104D4000502080F31188BFF34F8FBFF36F8FFEE7C2
:104D5000502080F31188BFF34F8FBFF36F8FFEE7B2
:104D60000148406970470000300000202DE9F04103
:104D70002E4C0027A06B40B1206A401C2062606A64
:104D800000B101273846BDE8F0816669761C66618E
:104D900013D16068006838B1502080F31188BFF3E8
:104DA0004F8FBFF36F8FFEE76068A1686160A060FE
:104DB000A06A401CA062FFF721FC206BDFF8708026
:104DC000864209D36068006880B16068C068C568C1
:104DD000686886420DD220632068C06A00EB8001BB
:104DE00058F821000128CAD90127C8E74FF0FF3041
:104DF000F1E7281DFFF746FDA86A18B105F1180074
:104E0000FFF740FDE86A0121A26981401143A161D9
:104E100000EB800108EB8100291DFFF777FDE86AB0
:104E20002168C96A8842CDD30127CBE73000002032
:104E3000680500202DE9F0472C4D00242746A86B7B
:104E400038B1FFF76FFDA86B401EA863A86B40B197
:104E500046E0502080F31188BFF34F8FBFF36F8F70
:104E6000FEE72969224E0120D1B3A6F1F009804660
:104E70003068E8B1F068C46804F11800FFF702FD7B
:104E8000201DFFF7FFFCE06AAA6908FA00F1114350
:104E9000A96100EB800109EB8100211DFFF736FDC0
:104EA000E06A2968C96A8842E2D3C5F82480DFE74E
:104EB0000CB1FFF7A3FB2C6A44B14646FFF756FF3F
:104EC00000B16E62641EF9D100202862686A38B1B0
:104ED0000849012738070860BFF34F8FBFF36F8F72
:104EE000FFF740FD3846BDE8F087000030000020A5
:104EF0005806002004ED00E000580008D5300008F6
:104F00000000000000000000800000000000000021
:104F100000000000F0570008D9250008FEFF00003F
:104F20000000000080000000000000000000000001
:104F300030580008153F0008FEFF00000000000088
:104F40008000000000000000000000001858000869
:104F5000BD2F0008000000000000000080000000DD
:104F600000000000000000000C5800084940000844
:104F7000FEFF0000000000008000000000000000B4
:104F80000000000024580008093F0008FEFF000050
:104F90000000000080000000000000000000000091
:104FA00000061016000610160000000000000000A9
:104FB00001020304060708090000000001020304BF
:104FC0006B806B036C001A021B181C101D026A20F8
:104FD000000000000B080141090242C0030A0B0354
:104FE000CDCC4C3ECDCC4C3ECDCC4C3E0000000058
:104FF000920E493CB10AC93C2BC3163D2EFB483DDD
:10500000752B7B3D04A9963D80B6AF3D36BDC83DAE
:105010002FBCE13D73B2FA3D87CF093E8340163E77
:10502000B5AB223EA2102F3ECF6E3B3EC2C5473EDF
:105030000115543E135C603E7F9A6C3ECCCF783EA7
:10504000C07D823E938E883E229A8E3E32A0943E50
:1050500086A09A3EE59AA03E128FA63ED47CAC3E36
:10506000EF63B23E2A44B83E491DBE3E15EFC33E33
:1050700053B9C93ECA7BCF3E4136D53E80E8DA3EC1
:105080004F92E03E7533E63EBBCBEB3EEA5AF13E33
:10509000CBE0F63E275DFC3EE4E7003F3D9C033F4E
:1050A000824B063F9BF5083F6B9A0B3FDA390E3F68
:1050B000CDD3103F2A68133FD9F6153FC07F183F64
:1050C000C6021B3FD17F1D3FCBF61F3F9967223F92
:1050D00025D2243F5636273F1594293F4AEB2B3FD4
:1050E000DE3B2E3FBB85303FC9C8323FF304353F1E
:1050F000233A373F4268393F3B8F3B3FF9AE3D3F54
:1051000067C73F3F70D8413F01E2433F03E4453F5B
:1051100065DE473F12D1493FF8BB4B3F029F4D3FF1
:10512000207A4F3F3D4D513F4918533F31DB543FAB
:10513000E595563F5348583F6AF2593F1A945B3FF2
:10514000532D5D3F05BE5E3F2146603F97C5613FE1
:105150005A3C633F59AA643F880F663FD86B673F4C
:105160003CBF683FA7096A3F0C4B6B3F5E836C3FB7
:1051700093B26D3F9ED86E3F73F56F3F0809713F44
:105180005213723F4714733FDD0B743F0BFA743FA9
:10519000C6DE753F07BA763FC58B773FF853783F39
:1051A0009812793F9DC7793F02737A3FBE147B3FC7
:1051B000CDAC7B3F283B7C3FC9BF7C3FAC3A7D3FB9
:1051C000CCAB7D3F23137E3FB0707E3F6DC47E3FEE
:1051D000580E7F3F6D4E7F3FAB847F3F0FB17F3FC7
:1051E00097D37F3F43EC7F3F11FB7F3F0000803F21
:1051F00011FB7F3F43EC7F3F97D37F3F0FB17F3F52
:10520000AB847F3F6D4E7F3F580E7F3F6DC47E3F26
:10521000B0707E3F23137E3FCCAB7D3FAC3A7D3FE9
:10522000C9BF7C3F283B7C3FCDAC7B3FBE147B3F5E
:1052300002737A3F9DC7793F9812793FF853783FC0
:10524000C58B773F07BA763FC6DE753F0BFA743FD2
:10525000DD0B743F4714733F5213723F0809713FCF
:1052600073F56F3F9ED86E3F93B26D3F5E836C3F88
:105270000C4B6B3FA7096A3F3CBF683FD86B673F49
:10528000880F663F59AA643F5A3C633F97C5613F08
:105290002146603F05BE5E3F532D5D3F1A945B3F44
:1052A0006AF2593F5348583FE595563F31DB543F2A
:1052B0004918533F3D4D513F207A4F3F029F4D3F8C
:1052C000F8BB4B3F12D1493F65DE473F03E4453F02
:1052D00001E2433F70D8413F67C73F3FF9AE3D3FD2
:1052E0003B8F3B3F4268393F233A373FF304353F1A
:1052F000C9C8323FBB85303FDE3B2E3F4AEB2B3FD8
:105300001594293F5636273F25D2243F9967223FDF
:10531000CBF61F3FD17F1D3FC6021B3FC07F183F0A
:10532000D9F6153F2A68133FCDD3103FDA390E3F27
:105330006B9A0B3F9BF5083F824B063F3D9C033F1A
:10534000E4E7003F275DFC3ECBE0F63EEA5AF13E43
:10535000BBCBEB3E7533E63E4F92E03E80E8DA3E53
:105360004136D53ECA7BCF3E53B9C93E15EFC33E49
:10537000491DBE3E2A44B83EEF63B23ED47CAC3EEB
:10538000128FA63EE59AA03E86A09A3E32A0943E99
:10539000229A8E3E938E883EC07D823ECCCF783E50
:1053A0007F9A6C3E135C603E0115543EC2C5473E79
:1053B000CF6E3B3EA2102F3EB5AB223E8340163E41
:1053C00087CF093E73B2FA3D2FBCE13D36BDC83DE3
:1053D00080B6AF3D04A9963D752B7B3D2EFB483D25
:1053E0002BC3163DB10AC93C920E493C0000000097
:1053F000920E49BCB10AC9BC2BC316BD2EFB48BDD9
:10540000752B7BBD04A996BD80B6AFBD36BDC8BDAA
:105410002FBCE1BD73B2FABD87CF09BE834016BE73
:10542000B5AB22BEA2102FBECF6E3BBEC2C547BEDB
:10543000011554BE135C60BE7F9A6CBECCCF78BEA3
:10544000C07D82BE938E88BE229A8EBE32A094BE4C
:1054500086A09ABEE59AA0BE128FA6BED47CACBE32
:10546000EF63B2BE2A44B8BE491DBEBE15EFC3BE2F
:1054700053B9C9BECA7BCFBE4136D5BE80E8DABEBD
:105480004F92E0BE7533E6BEBBCBEBBEEA5AF1BE2F
:10549000CBE0F6BE275DFCBEE4E700BF3D9C03BF4A
:1054A000824B06BF9BF508BF6B9A0BBFDA390EBF64
:1054B000CDD310BF2A6813BFD9F615BFC07F18BF60
:1054C000C6021BBFD17F1DBFCBF61FBF996722BF8E
:1054D00025D224BF563627BF159429BF4AEB2BBFD0
:1054E000DE3B2EBFBB8530BFC9C832BFF30435BF1A
:1054F000233A37BF426839BF3B8F3BBFF9AE3DBF50
:1055000067C73FBF70D841BF01E243BF03E445BF57
:1055100065DE47BF12D149BFF8BB4BBF029F4DBFED
:10552000207A4FBF3D4D51BF491853BF31DB54BFA7
:10553000E59556BF534858BF6AF259BF1A945BBFEE
:10554000532D5DBF05BE5EBF214660BF97C561BFDD
:105550005A3C63BF59AA64BF880F66BFD86B67BF48
:105560003CBF68BFA7096ABF0C4B6BBF5E836CBFB3
:1055700093B26DBF9ED86EBF73F56FBF080971BF40
:10558000521372BF471473BFDD0B74BF0BFA74BFA5
:10559000C6DE75BF07BA76BFC58B77BFF85378BF35
:1055A000981279BF9DC779BF02737ABFBE147BBFC3
:1055B000CDAC7BBF283B7CBFC9BF7CBFAC3A7DBFB5
:1055C000CCAB7DBF23137EBFB0707EBF6DC47EBFEA
:1055D000580E7FBF6D4E7FBFAB847FBF0FB17FBFC3
:1055E00097D37FBF43EC7FBF11FB7FBF000080BF1D
:1055F00011FB7FBF43EC7FBF97D37FBF0FB17FBF4E
:10560000AB847FBF6D4E7FBF580E7FBF6DC47EBF22
:10561000B0707EBF23137EBFCCAB7DBFAC3A7DBFE5
:10562000C9BF7CBF283B7CBFCDAC7BBFBE147BBF5A
:1056300002737ABF9DC779BF981279BFF85378BFBC
:10564000C58B77BF07BA76BFC6DE75BF0BFA74BFCE
:10565000DD0B74BF471473BF521372BF080971BFCB
:1056600073F56FBF9ED86EBF93B26DBF5E836CBF84
:105670000C4B6BBFA7096ABF3CBF68BFD86B67BF45
:10568000880F66BF59AA64BF5A3C63BF97C561BF04
:10569000214660BF05BE5EBF532D5DBF1A945BBF40
:1056A0006AF259BF534858BFE59556BF31DB54BF26
:1056B000491853BF3D4D51BF207A4FBF029F4DBF88
:1056C000F8BB4BBF12D149BF65DE47BF03E445BFFE
:1056D00001E243BF70D841BF67C73FBFF9AE3DBFCE
:1056E0003B8F3BBF426839BF233A37BFF30435BF16
:1056F000C9C832BFBB8530BFDE3B2EBF4AEB2BBFD4
:10570000159429BF563627BF25D224BF996722BFDB
:10571000CBF61FBFD17F1DBFC6021BBFC07F18BF06
:10572000D9F615BF2A6813BFCDD310BFDA390EBF23
:105730006B9A0BBF9BF508BF824B06BF3D9C03BF16
:10574000E4E700BF275DFCBECBE0F6BEEA5AF1BE3F
:10575000BBCBEBBE7533E6BE4F92E0BE80E8DABE4F
:105760004136D5BECA7BCFBE53B9C9BE15EFC3BE45
:10577000491DBEBE2A44B8BEEF63B2BED47CACBEE7
:10578000128FA6BEE59AA0BE86A09ABE32A094BE95
:10579000229A8EBE938E88BEC07D82BECCCF78BE4C
:1057A0007F9A6CBE135C60BE011554BEC2C547BE75
:1057B000CF6E3BBEA2102FBEB5AB22BE834016BE3D
:1057C00087CF09BE73B2FABD2FBCE1BD36BDC8BDDF
:1057D00080B6AFBD04A996BD752B7BBD2EFB48BD21
:1057E0002BC316BDB10AC9BC920E49BC0000008093
:1057F0004C4544466C6173685461736B0000000053
:1058000064656661756C745461736B0067696D6281
:10581000616C7461736B000053656E736F727461B9
:10582000736B0000636861737369737461736B00F9
:105830006465746563747461736B00005C58000880
:1058400000000020740100009C0400088C5800082F
:1058500074010020C4470000243A000801203201EE
:105860008210035924F41AAA0101225B803F080A1E
:1058700019BF1C091D246920E93809161001200AE6
:0C58800019FF0EA12DCDCC1C41044100ED
:04000005080001AD41
:00000001FF
