:020000040800F2
:10000000D846002081020008AF240008D31D000854
:10001000AD240008470900087D2D000800000000FD
:10002000000000000000000000000000C101000806
:100030000D0A0008000000001D020008D12700087A
:100040009B0200089B0200089B0200089B0200081C
:100050009B0200089B0200089B0200089B0200080C
:100060009B0200089B0200089B0200089B020008FC
:100070009B0200089B0200089B0200089B020008EC
:100080009B0200089B0200089B0200089B020008DC
:100090009B0200089B0200089B0200089B020008CC
:1000A0009B0200089B0200089B0200089B020008BC
:1000B0009B0200089B020008D92800089B02000848
:1000C0009B0200089B0200089B0200089B0200089C
:1000D0009B0200089B0200089B0200089B0200088C
:1000E0009B0200089B0200089B0200089B0200087C
:1000F0009B0200089B0200089B0200089B0200086C
:100100009B0200089B0200089B0200089B0200085B
:100110009B0200089B0200089B0200089B0200084B
:100120009B0200089B020008490900089B02000886
:100130009B0200089B0200089B0200089B0200082B
:100140009B0200089B0200089B0200089B0200081B
:100150009B0200089B0200089B0200089B0200080B
:100160009B0200089B0200089B0200089B020008FB
:100170009B0200089B0200089B0200080000000090
:100180009B0200089B0200089B0200089B020008DB
:100190009B0200089B0200089B0200089B020008CB
:1001A00000000000000000009B020008DFF80CD0F7
:1001B00000F062F9004800477D380008D84600206A
:1001C0002C4B19680868B0E8F04F80F30988BFF33A
:1001D0006F8F4FF0000080F311887047000000001F
:1001E00008480068006880F308884FF0000080F33A
:1001F000148862B661B6BFF34F8FBFF36F8F00DF15
:1002000000BF00BF08ED00E0DFF80C00016841F41A
:1002100070010160704700BF88ED00E0EFF30980D6
:10022000BFF36F8F134B1A681EF0100F08BF20ED3D
:10023000108A20E9F04F106009B44FF0500080F3AD
:100240001188BFF34F8FBFF36F8F03F0C5FF4FF0DF
:10025000000080F3118809BC19680868B0E8F04F05
:100260001EF0100F08BFB0EC108A80F30988BFF3AE
:100270006F8F704720000020EFF30580704700006B
:100280000648804706480047FEE7FEE7FEE7FEE730
:10029000FEE7FEE7FEE7FEE7FEE7FEE7852800084B
:1002A000AD0100089FED1A1AF5EE000A40EE010AB2
:1002B000BDEEE00AF5EEC00A10EE100AF1EE10FAFB
:1002C00038BF401E00EE100A1349F7EE001AB8EED0
:1002D000C00A30EEC00ADFED0F0A20EE200AFCEE65
:1002E000C00A10EE900AC0F3080000EE900A01EB7D
:1002F0008000F8EE600A90ED011A70EE600A90ED51
:10030000000A71EEE01A21EE800A00EE810A7047C1
:1003100083F9223E000000443C460008DFED190A44
:10032000B5EEC00A60EE200ABDEEE01A11EE100A2A
:10033000F1EE10FA38BF401E00EE100A1349F7EE36
:10034000001AB8EEC00A30EEC00ADFED0F0A60EE08
:10035000200ABCEEE00A10EE100AC0F3080000EE1E
:10036000100A01EB8000B8EE400A90ED011A70EE21
:10037000C00A90ED000A71EEE01A21EE800A00EE4C
:10038000810A704783F9223E000000443C46000881
:100390002DE9F05F0546002092469B4688460646BA
:1003A000814640241BE0284641464746224600F04D
:1003B00053F853465A46C01A914110D31146184675
:1003C000224600F03AF82D1A67EB01084F46224604
:1003D0000120002100F031F817EB00094E41201EEA
:1003E000A4F10104DFDC484631462A464346BDE815
:1003F000F09F40EA01039B0703D009E008C9121FE0
:1004000008C0042AFAD203E011F8013B00F8013BCE
:10041000521EF9D27047D2B201E000F8012B491EFA
:10042000FBD270470022F6E710B513460A46044691
:100430001946FFF7F0FF204610BD202A04DB203AC2
:1004400000FA02F1002070479140C2F1200320FA27
:1004500003F3194390407047202A04DB203A21FA25
:1004600002F00021704721FA02F3D040C2F12002CD
:100470009140084319467047064C074D06E0E06876
:1004800040F0010394E8070098471034AC42F6D3DB
:10049000FFF790FE744E0008944E000870B58C185B
:1004A00010F8015B15F0070301D110F8013B2A1188
:1004B00006D110F8012B03E010F8016B01F8016B75
:1004C0005B1EF9D12B0705D40023521E0DD401F871
:1004D000013BFAE710F8013BCB1A921C03E013F83A
:1004E000015B01F8015B521EF9D5A142D8D300206F
:1004F00070BD02F067BC02F0FBBCFFF7D3BEF0EEAC
:10050000400AF5EEC00AF1EE10FA02DDB0EE600A24
:100510007047B1EE600AFBE7002803D09FED020AA6
:1005200080ED000A7047000000000000002803D0A2
:100530009FED020A80ED000A70470000DF8FB44192
:1005400070B52DED0C8B84B006460C4615469FED1C
:10055000990AF0EE408A9FED970AB0EE409A9FED1F
:10056000950AF0EE40BA9FED930AF0EE409A9FEDA7
:10057000910AB0EE40AA0EB104B11DB904B0BDECB1
:100580000C8B70BD8C48FFF7C7FF8C48FFF7CEFF80
:100590008A48D0ED000A9FED8A1A60EE810AB0EE1B
:1005A000600A00F031F9F0EE408A28EEA80AF0EE79
:1005B000408A8248D0ED000AB0EE001A60EE810A4F
:1005C0009FED7F1A60EE810AB0EE600A00F01CF920
:1005D000B0EE409A29EE090AB0EE409ADFED790AB2
:1005E000B7EE000A00EEA80ADFED770A00EEC90AAE
:1005F000DFED760A20EE200A754880ED000A6E488D
:1006000090ED000ADFED730A80EE201AB7EE000AC3
:1006100031EE000A20EE000A6D48D0ED000A80EEAF
:10062000801A6D4880ED001A94ED000AB5EEC00AFC
:10063000F1EE10FA0DD194ED010AB5EEC00AF1EE1B
:1006400010FA06D194ED020AB5EEC00AF1EE10FAE6
:1006500046D09FED580AB0EE408A002001900290EB
:100660000390D4ED000A60EEA00A94ED011AD4EDD7
:10067000011A41EE210A94ED021AD4ED021A41EE5C
:10068000210AB0EE600A00F0A9F8B0EE408A94EDBD
:10069000000A20EE080A8DED010A94ED010A20EE11
:1006A000080A8DED020A94ED020A20EE080A8DED8B
:1006B000030ADDED010AF1EE600AB0EE600AFFF711
:1006C00018FFF0EE409A9DED031AF0EE410A9DED01
:1006D000021AB0EE410AFFF70EFFB0EE40AA07E0A3
:1006E0009FED340AF0EE409A9FED320AB0EE40AA38
:1006F00095ED000AB5EEC00AF1EE10FA0DD195EDB8
:10070000010AB5EEC00AF1EE10FA06D195ED020A23
:10071000B5EEC00AF1EE10FA3CD0B0EE690A00F076
:1007200073F8B0EE408AB0EE690AFFF7E6FEB0EE6D
:1007300040DAB0EE4A0A00F067F8F0EE40AAB0EEF8
:100740004A0AFFF7DAFEB0EE40BA28EE2A0AD5EDE3
:10075000010A20EE200AD5ED000A0DEE200A68EE0F
:100760000B0A95ED021A00EE810AB0EE40CA95ED33
:10077000010A20EE0B0AD5ED020A0AEEE00AF0EEBD
:1007800040CAF0EE6C0AB0EE4C0AFFF7B4FEF0EE91
:1007900040BA03E09FED070AF0EE40BAB0EE4A1A05
:1007A000F0EE690AB0EE6B0A304602F0A3FE00BF1D
:1007B000E4E6000000000000180100201C010020F9
:1007C00035FA8E3CC1BFAD3B9DF8C5362F7C1C4130
:1007D00020010020506CC24A2401002010EE100AB3
:1007E000F6EE000A074960EE200AA1EB600000EE79
:1007F000100A20EE801AF7EE080A41EE400A20EEB9
:10080000800A7047DF59375FFFF788BD2DE9F04157
:100810002DED028B9AB00546B0EE408A0E46174683
:1008200098460020179018901990149015901690E3
:100830004DB146B13FB1B8F1000F04D0B5EEC08A5A
:10084000F1EE10FA05D100201AB0BDEC028BBDE824
:10085000F08196ED000A8DED170A96ED010A8DEDF7
:10086000180A96ED020A8DED190A97ED000A8DED32
:10087000140A97ED010A8DED150A97ED020A8DED28
:10088000160A17AA14A9284602F086FC402104A8DB
:10089000FFF7C8FD00200090019002900390002413
:1008A00017A904A803F009FB00BF30E004A800EB7F
:1008B000041090ED000AD5ED000A20EE200A04A8ED
:1008C00000EB0410D0ED010A95ED011A00EE810A4B
:1008D00004A800EB0410D0ED020A95ED021A00EE18
:1008E000810A04A800EB0410D0ED030A95ED031A69
:1008F00000EE810A20EE080AF0EE000A80EE201ACF
:10090000684600EB840080ED001A601CC4B2042C21
:10091000CCDB002410E005EB840090ED000A684673
:1009200000EB8400D0ED000A30EE200A05EB8400D5
:1009300080ED000A601CC4B2042CECDB284603F0F6
:1009400037FA012080E7FEE710B5044800F060F8B0
:10095000BDE810400249034801F044BE580400209D
:10096000E8410020FE41002001681823CAB2103A75
:10097000B2FBF3F2054B6FF30901032A9B5CC365DD
:1009800000D9091D8165084670470000F045000840
:1009900010B5014600208B698A6A4FF0C07453B1CC
:1009A000B3F5005F15D072B1012A0CD0022A0AD02B
:1009B000032A09D104E01AB1012A06D0022A03D180
:1009C000C96AC90100D5012010BDC96AA142FAD087
:1009D00010BD002AF7D0012AF2D0022AF3D0032A50
:1009E000F3D010BD30B50468256825F48025256056
:1009F000046863608368402B036803D099600068D3
:100A0000C26030BD9A600068C16030BD70477047F9
:100A10002DE9F84304464FF00009CDF800906348F3
:100A20004FF41651A56D0068B0FBF1F72E6894F8ED
:100A30005C10082000FA01F131420FD021680A68E9
:100A400052070BD50A6822F004020A6094F85C1081
:100A50008840A860606D40F00100606594F85C100B
:100A60004FF0010808FA01F0304208D021684969C6
:100A7000090604D5A860606D40F00200606594F836
:100A80005C1004208840304208D02168096889073A
:100A900004D5A860606D40F00400606594F85C10B7
:100AA00010208840304218D021680968090714D501
:100AB000A86020680168490304D50068000308D5D0
:100AC000A16C07E00168C90503D4016821F00801A1
:100AD0000160216C09B12046884794F85C10202001
:100AE0008840304231D021680968C9062DD5A860F8
:100AF00094F8350005282068016806D0490347D5D9
:100B0000006800031DD4616C1CE021F01601016037
:100B10002068416921F080014161206C08B9A06C16
:100B200020B12068016821F00801016094F85C1090
:100B30003F208840A86084F8349084F83580216D87
:100B40001FE0E16B09B120468847606D00282BD07B
:100B5000606DC00714D0052084F835002068016856
:100B600021F0010101600098401C0090B84203D8B8
:100B700020680068C007F6D184F8349084F8358086
:100B8000E16C002910D001B02046BDE8F0430847D1
:100B90000168C905D5D4016821F01001016084F80D
:100BA000349084F83580CCE7BDE8F8831C00002041
:100BB0002DE9F041044600F08DF906465CB10025B0
:100BC00084F83450022084F835002068016821F050
:100BD000010101600DE00120BDE8F08100F07AF92B
:100BE000801B052805D920206065032084F8350086
:100BF000F2E720680068C007F0D122681168204839
:100C00000140D4E901031843D4E9033633431843C0
:100C100063691843A3691843E3691843236A1843B7
:100C20000843616A042903D1D4E90B13194308432B
:100C3000106020684069666A20F0070130460E4364
:100C4000012704280CD1A06A0643E06A40B120467F
:100C5000FFF79EFE20B14020606584F83570BAE74A
:100C6000206846612046FFF77FFE94F85C203F2114
:100C700091408160656584F835700020ACE7000024
:100C80003F8010F02DE9F0410446866D90F8340065
:100C9000002501280DD0012084F8340094F8357027
:100CA0000020012F07D084F8340002252846BDE833
:100CB000F0810220FBE7022784F83570606520464A
:100CC000FFF790FE94F85C103F208840B0602068E9
:100CD000016841F0160101602068416941F080011E
:100CE0004161206C20B12068016841F00801016079
:100CF0002068016841F001010160D7E72DE9F84F54
:100D0000DFF890B100224FF001084FF0030A4FF0D6
:100D10000F090BF1040E00BF0B6808FA02F4234020
:100D2000A3426ED14D68022D01D0122D0ED1D508EF
:100D300000EB850CDCF820505607F70E09FA07F691
:100D4000B5430E69BE402E43CCF8206006685500BE
:100D50000F790AFA05FC07F0030726EA0C06AF40F4
:100D6000374307604E68012E05D0022E03D0112EA6
:100D700001D0122E0ED18768CE6827EA0C07AE404C
:100D80003E4386604668A6430C79C4F30014944041
:100D900034434460C4688E6824EA0C04AE402643A1
:100DA000C6604C68E4006FD53B4C256845F480452F
:100DB0002560246822F0030504F480440094374C35
:100DC0002E19D6F8084895072F0F09FA07F5AC43F6
:100DD000334DA84201D100252EE0324DA84201D169
:100DE000012529E0304DA84201D1022524E02F4DF4
:100DF000A84201D103251FE02D4DA84202D10425B0
:100E00001AE041E02B4DA84201D1052514E02A4DFE
:100E1000A84201D106250FE0284DA84201D107259F
:100E20000AE0274DA84201D1082505E0254DA8423A
:100E300001D1092500E00A25BD402543C6F8085820
:100E4000DBF800405D464E689C43F60300D51C432A
:100E50002C60DEF8004075464E689C43B60300D512
:100E60001C432C600B4D08352C684E689C43F602E1
:100E700000D51C432C60074D0C352C684E689C43F4
:100E8000B60200D51C432C60521C102AFFF444AF5C
:100E9000BDE8F88F003C014044380240003001407A
:100EA000000002400004024000080240000C024022
:100EB000001002400014024000180240001C0240D2
:100EC00000200240002402400AB1816170470904F9
:100ED000FBE7000001488068704700001000002018
:100EE0000248816802781144816070471000002038
:100EF0000B4810B5016841F400710160016841F4CC
:100F000080610160016841F480710160032000F09C
:100F1000D3F8002000F006F800F03EF8002010BDE5
:100F2000003C024010B5014688B000221E2000F0AF
:100F3000A3F81E2000F093F813480024016841F044
:100F400004010160006805A900F0040006906846ED
:100F500000F094F900F0B2F90C494000B0FBF1F157
:100F60000C480B4A491E026040F2E732C0E90324F4
:100F7000C0E9011400F0EBFC10B1012008B010BD75
:100F8000044800F000FDF9E74038024040420F00FD
:100F900000080040B80400200C4882B0016841F409
:100FA00080410160006800F4804000900748001F05
:100FB000016841F0805101600068002200F080501B
:100FC00000900F21901E02B000F056B84438024045
:100FD0002DE9F04116460F46040004D094F839007C
:100FE000002518B107E00120BDE8F08184F83850F1
:100FF000204600F0CDFD242084F839002068C16827
:1010000021F40051C160204601F030FD20680169E3
:1010100021F4904101612068416921F02A01416178
:101020002068016921F00F010161206801693943DD
:1010300001612068C16821F40061C1602068C16855
:101040003143C1602068C16841F40051C160E5636B
:10105000202084F8390084F83A000020C4E70028F2
:1010600009DB00F01F02012191404009800000F1DE
:10107000E020C0F800117047F0B40E4B1B680C461E
:10108000C3F30223C3F10705042D00D90425191D5C
:10109000072901D2002300E0DB1E012606FA05F134
:1010A000491E214099409E40761E16403143F0BCB7
:1010B00001F078BE0CED00E0064900F00702086878
:1010C0004FF6FF03184040EA0220034A104308602D
:1010D000704700000CED00E00000FA052DE9F84330
:1010E0001748016841F0805101600068154F00F019
:1010F0008050012600903E64FFF7ECFE05464FF459
:101100007A78114C05E000BFFFF7E4FE401B404534
:101110000DD86068C003F7D57E64FFF7DBFE054697
:10112000464607E0FFF7D6FE401BB04202D9032037
:10113000BDE8F88360688003F4D50020F8E700007C
:101140004038024000000E42007000402DE9F04798
:101150000E46050065D0DFF81481D8F80000F7B21C
:1011600000F00F00B04207D288F80070D8F80000F5
:1011700000F00F00B04254D128683D4C810712D5D1
:10118000400703D5206840F4E0502060287800072D
:1011900003D5206840F4604020602068A96820F0F2
:1011A000F000084320602878C0072DD030496868D7
:1011B0000839012812D0022813D0032811D0096859
:1011C000890700292DDA216821F0030101432160FC
:1011D000FFF780FE814641F2883A0EE009688903F4
:1011E000EFE709688901ECE7FFF774FEA0EB09015E
:1011F000514502D90320BDE8F0872068696800F0F6
:101200000C00B0EB810FEFD1D8F80010404601F090
:101210000F01B14207D90770006800F00F00B0421B
:1012200001D00120E7E72878400705D52068E96864
:1012300020F4E050084320602878000706D5206895
:10124000296920F4604040EAC100206000F056F8AF
:101250002168084AC1F30311515CC840064908607F
:101260000020FFF75FFE0020C5E70000003C0240C1
:1012700008380240F84500081C0000200F220260D8
:101280000C4A136803F003034360136803F0F00390
:101290008360136803F4E053C36012684FF4E053B3
:1012A00003EAD20202610448006800F00F000860FF
:1012B0007047000008380240003C024004480549DD
:1012C00000680968044AC1F38221515CC840704734
:1012D0001C00002008380240084600080448054960
:1012E00000680968044AC1F34231515CC840704744
:1012F0001C0000200838024008460008154810B5B8
:10130000006810F00C02144813D01449042A0FD0BE
:10131000082A0ED10F4C241F2268236802F03F02D6
:101320005B0207D52068C0F38810A0FB010106E02E
:10133000084610BD2168C1F38811A1FB00010023FC
:10134000FFF726F82168C1F30141491C4900B0FBB1
:10135000F1F010BD083802400024F40040787D010F
:101360002DE9F84F050076D02878DFF8F8B2BE4CAA
:10137000C00749D0DBF800105846C1F381010129AC
:1013800008D00068C0F3810002280AD1201D00683F
:10139000400206D52068800336D568680028E2D070
:1013A00032E06868B0F5803F10D0B0F5A02F20681B
:1013B00010D020F480302060206820F4802020604D
:1013C0006868A0B1FFF786FD06460CE0206840F48F
:1013D0008030F4E740F480202060F7E7FFF77AFDE3
:1013E000801B642873D820688003F7D50CE0FFF7D2
:1013F00071FD064605E000BFFFF76CFD801B642809
:10140000F0D820688003F7D42878DFF8608280075E
:101410004FF000093ED5DBF80010584611F00C0FD4
:1014200009D00068C0F3810002280BD18D48001F4D
:101430000068400206D42068800715D5E8680128B6
:1014400009D111E0E868B8B10120C8F80000FFF741
:1014500041FD064605E002E1FFF73CFD801B022846
:10146000C0D820688007F7D52068296920F0F800E7
:1014700040EAC10020600DE0C8F80090FFF72AFDA7
:10148000064604E0FFF726FD801B02281FD82068CF
:101490008007F7D42878000722D5724E744869690E
:1014A0006C3671B101210160FFF714FD074604E0BD
:1014B000FFF710FDC01B022809D830688007F7D558
:1014C0000EE0C0F80090FFF705FD074605E083E059
:1014D000FFF700FDC01B02287ED830688007F7D4D4
:1014E0002878400768D5DFF87CA100270AF1380A80
:1014F000DAF80000C0000BD4DAF8001041F0805197
:10150000CAF80010DAF80000012700F080500090BF
:10151000584E3068C00510D4306840F48070306098
:10152000FFF7D8FC009005E0FFF7D4FC0099401AC3
:10153000022851D83068C005F6D54A4EA8686836EA
:1015400001280FD00528306810D020F0010030604D
:10155000306820F004003060A868B8B1FFF7BAFC2A
:1015600000900FE0306840F00100F4E740F0040024
:101570003060F7E7FFF7AEFC0099411A41F288307E
:10158000814264D830688007F4D50EE0FFF7A2FCF2
:10159000009007E0FFF79EFC0099411A41F2883065
:1015A000814254D830688007F4D42FB1DAF80010A3
:1015B00021F08051CAF80010A869C0B3DBF8001010
:1015C000C1F3810102294AD00228484607D0C8F851
:1015D0006000FFF77FFC00E039E005463AE047464F
:1015E000C8F86000FFF776FC064604E0FFF772FCDF
:1015F000801B02282BD820688001F7D4D5E9070189
:101600000843A96A1C4A490802EB01416A6A41EA97
:101610008211084395F82C1040EA01611148001F1F
:10162000016001203866FFF755FC054605E014E02F
:10163000FFF750FC401B022809D820688001F7D52D
:101640000BE000BFFFF746FC401B022802D9032035
:10165000BDE8F88F20688001F4D40020F8E701206D
:10166000F6E7000008380240003802400000474218
:10167000800E4742007000400000FFFF70B504007C
:1016800005D00025A56294F8510010B106E00120B4
:1016900070BD84F85050204600F030F8022084F8E5
:1016A00051002068016821F040010160D4E9010186
:1016B0000843D4E903121143084361690843218BAD
:1016C00001F400710843E1690843216A0843A16AF3
:1016D000084321680860A069042101EA1040616A9A
:1016E0000843216848602068C16921F40061C16134
:1016F0006565012084F85100002070BD10B586B0EA
:10170000044614216846FEF78DFE1449206888427D
:1017100021D113480021026842F48012026000685F
:1017200000F4801005900E481438026842F0200240
:101730000260006800F0200005904FF46070009097
:101740000220CDE9010103200390052004906946A1
:101750000448FFF7D3FA06B010BD00000050014066
:1017600044380240001402402DE9F84F044690F836
:10177000500000270A9E1D4692468B464FF00109F5
:1017800001280ED0012084F85000FFF7A3FB80460B
:1017900094F85100616801280CD0B1F5827F07D11F
:1017A00002E00220BDE8F88FA16809B9042801D041
:1017B0000227C2E0BBF1000F27D0BAF1000F24D0FE
:1017C0001DB394F85100042802D0052084F851007C
:1017D00000206065C4F838A0E587A587C4F830B05C
:1017E000E586A5862064606420680168490603D404
:1017F000016841F040010160E068B0F5006F606889
:1018000005D0E8B3012D46D07FE0012795E008B16F
:10181000012D39D1206B21680088C860206B801CA5
:101820002063E08E401EE0862EE0206881688907F4
:101830000FD5E18E69B1B9F1010F0AD1216B098889
:10184000C160206B801C2063E08E401EE0864FF05C
:10185000000920688168C9070CD0E18F51B1C068C8
:10186000A16B0880A06B801CA063E08F401EE08706
:101870004FF00109FFF72EFBA0EB0800B04200E09B
:1018800009E001D3701C50D1E08E0028CDD1E08F4B
:101890000028CAD13FE0206B216800780873206BD4
:1018A000401C2063E08E401EE0862EE020688168A8
:1018B00089070FD5E18E69B1B9F1010F0AD1216B0A
:1018C00009780173206B401C2063E08E401EE08687
:1018D0004FF0000920688168C9070CD0E18F51B131
:1018E000C068A16B0870A06B401CA063E08F401E15
:1018F000E0874FF00109FFF7EDFAA0EB0800B042D6
:1019000002D3701C01D010E07EB1E08E0028CDD152
:10191000E08F0028CAD142463146204600F098FEAA
:1019200028B101272020606507E0032705E0A068B3
:1019300018B92068C16880680090012084F85100BF
:10194000002084F8500038462CE77047704710B5E7
:10195000040003D094F83D0010B107E0012010BD51
:10196000002084F83C00204600F00CF8022084F8A7
:101970003D00211D206800F0B5FF012084F83D00E6
:10198000002010BD70470168CA6842F00102CA60B9
:101990000068816801F00701062903D0016841F061
:1019A0000101016000207047704770B5044600686F
:1019B00001694FF00005C943890715D4C168C943BF
:1019C000890711D4E91E0161012020772068806910
:1019D0008007204602D0FFF7E7FF04E000F098F808
:1019E000204600F096F8257720680169C943490729
:1019F00017D4C168C943490713D46FF004010161CA
:101A0000022020772068806910F4407F204602D0B1
:101A1000FFF7CAFF04E000F07BF8204600F079F8F9
:101A2000257720680169C943090716D4C168C943ED
:101A3000090712D46FF008010161042020772068A3
:101A4000C0698007204602D0FFF7AEFF04E000F037
:101A50005FF8204600F05DF8257720680169C943EA
:101A6000C90617D4C168C943C90613D46FF0100161
:101A70000161082020772068C06910F4407F20466B
:101A800002D0FFF791FF04E000F042F8204600F09A
:101A900040F8257720680169C943C90708D1C168A2
:101AA000C943C90704D1891E0161204600F032F8FC
:101AB00020680169C943090609D4C168C9430906F8
:101AC00005D46FF0800101612046FFF73EFF2068DA
:101AD0000169C943490609D4C168C943490605D407
:101AE0006FF040010161204600F01EF82068016996
:101AF000C94389060BD4C168C943890607D46FF06E
:101B0000200101612046BDE87040FFF71FBF70BD96
:101B10007047704700680349884201D1FFF7E0B978
:101B200070470000000800407047704770B504001F
:101B300004D094F83900002510B106E0012070BDF2
:101B400084F83850204600F023F8242084F8390027
:101B50002068C16821F40051C160204600F086FF72
:101B60002068016921F4904101612068416921F0F8
:101B70002A0141612068C16841F40051C160E563F8
:101B8000202084F8390084F83A00002070BD00005D
:101B900070B586B0064614216846FEF743FC304C0B
:101BA000306800252F4903220223A0421ED12D4870
:101BB0001030046844F400240460006800F400203D
:101BC0000590086840F0010008600868694600F068
:101BD000010005900120CDE9020208200490CDE922
:101BE00000232148FFF78AF806B070BD1F4CA042C1
:101BF000FAD11C481430046844F0100404600068F2
:101C000000F010000590086840F0020008600868C5
:101C1000694600F002000590C0208DE829000720E9
:101C2000CDE903201248FFF769F8134C11482060F2
:101C30004FF00060C4E901054014C4E9035080106E
:101C40006561C4E906504FF44030C4E908052046F8
:101C5000FEF7AEFF08B1FEF7DAFE7463A663C3E7D2
:101C6000004C0040303802400000024000100140AB
:101C7000000402404064024058040020F8B50446C5
:101C800090F83A0020283CD1C1B3BAB394F8380098
:101C9000012836D0012084F83800A162A2850025F1
:101CA000E563222084F83A00636B1748D863636BBE
:101CB00016481864636B1648D864606B1346056554
:101CC0000846666B216802463046091DFEF7DAFFBA
:101CD000206801684168009184F83850C16841F477
:101CE0008071C1602068416941F001014161206853
:101CF000416941F0400141610020F8BDFFE701204A
:101D0000FBE70220F9E70000F7290008332A000862
:101D1000AD290008704770472DE9F843044690F854
:101D200039001F4616460D46202850D1A5B19EB158
:101D300094F8380001284AD0012084F838004FF088
:101D40000008C4F83C80212084F83900FFF7C2F86D
:101D5000A6848146E68426E00120BDE8F883E08C75
:101D6000401EE084A0684B46B0F5805F4FF0000253
:101D70004FF080012046009703D000F0CDFFE8B976
:101D80000DE000F0C9FFC8B928882168C0F3080039
:101D90004860206908B16D1C05E0AD1C03E02168B6
:101DA00015F8010B4860E08C0028D8D14B46002282
:101DB00040212046009700F0AFFF08B10320CCE798
:101DC000202084F8390084F838800020C5E70220FC
:101DD000C3E7FEE72DE9F04FDFF8DCC0DFF8DCA059
:101DE0000CF12408099F00240AF10C0B08F12409C6
:101DF0000AF1180E04EB44060CEB860593ED030A7A
:101E0000D5ED000A95ED011A20EE200AD3ED040A63
:101E100000EE810AD3ED050A95ED021A0AEB84055E
:101E200000EE810AD5ED000A00EB840530EE200AB1
:101E300085ED000A08EB860593ED000AD5ED000A52
:101E400095ED011A20EE200AD3ED010A00EE810A79
:101E5000D3ED020A95ED021A0BEB840500EE810A20
:101E6000D5ED000A01EB840530EE200A85ED000A6D
:101E700009EB860597ED000AD5ED000A95ED011AEC
:101E800020EE200AD7ED010A00EE810AD7ED020A02
:101E900095ED021A0EEB840500EE810AD5ED000ADD
:101EA00002EB8405641CE4B2032C30EE200A85EDBD
:101EB000000A9FD3BDE8F08F900000201042002060
:101EC0000A4C4FF400664FF4FA7500223146204662
:101ED000FEF7FAFF284601F003FD012231462046B5
:101EE000FEF7F2FF284601F0FBFCEEE7001002408F
:101EF0002DE9F047DFF82081DFF818A108F1180676
:101F000006F134059AF80900A5F10C0406F108075A
:101F1000A4F10C09F0B394ED001A89ED001AD5ED87
:101F2000000AC4ED000A9FED3D0A98ED002AA4F1D5
:101F3000340360EE801ADFED3A0A41EE201A9FED7D
:101F4000391A42EE011AC5ED001A94ED012A89ED05
:101F5000012AD5ED011AC4ED011A61EE801A42EE94
:101F6000201A98ED012A42EE011AC5ED011A94EDEE
:101F7000022A89ED022AD5ED021AC4ED021A21EED9
:101F8000800A02EE200AD8ED020A00EE810A85EDF1
:101F9000020A00E00FE02A46A2F158019FED220A52
:101FA000381DFEF733FC321D3B463146381DBDE877
:101FB000F04701F056BB184A17490C3201F12400D2
:101FC000FEF7BEFA14493B461831321D01F10C00F0
:101FD00001F047FB98ED000A85ED000A84ED000A48
:101FE00089ED000A98ED010A85ED010A84ED010AE8
:101FF00089ED010A98ED020A85ED020A84ED020AD4
:1020000089ED020A9AF80910491C8AF80910BDE8FE
:10201000F087000084000020404200205AF8F63F7C
:102020005D896EBFD5A9183B6F12833A00B587B0A2
:10203000152269463B2000F0C5F8BDF8000040BA03
:1020400000B200EE100A3848F8EEC00A9FED350ADB
:1020500060EE800AC0ED000ABDF8021049BA09B26C
:1020600000EE901AF8EEE00A60EE800AC0ED010A78
:10207000BDF8041049BA09B200EE901AF8EEE00A71
:1020800020EE800A80ED020ABDF8081049BA09B2B4
:1020900000EE101AF8EEC00A9FED240A60EE800AE6
:1020A000C0ED030ABDF80A1049BA09B200EE901A51
:1020B000F8EEE00A60EE800AC0ED040ABDF80C10EC
:1020C00049BA09B200EE901AF8EEE00A20EE800A52
:1020D00080ED050A9DF80E00012821D1BDF90F0001
:1020E00000EE100A1048F8EEC00A9FED110A3030D9
:1020F00060EE800AC0ED000ABDF9111000EE901AE2
:10210000F8EEE00A60EE800AC0ED010ABDF9131096
:1021100000EE901AF8EEE00A20EE800A80ED020A46
:1021200007B000BDCDCC1C3B9842002058A08B3A94
:102130009A99993E30B585B0002414220F4968461B
:10214000FEF757F9642001F0CBFB752000F01AF878
:102150000B494FEA0D05087005EB4400417815F86E
:10216000140000F055F8012001F0BAFB641CE4B241
:102170000A2CF1D305B0002030BD00001C46000839
:102180008400002038B5044601F0A2FB44F0800032
:102190000A4C3725621DA0710123511C0848009587
:1021A000FFF7E2FA621D0123511C05480095FFF775
:1021B000DBFA01F085FB607938BD00008400002067
:1021C00080030020F8B514460D46064601F080FB5A
:1021D0000D4946F08000372608728631A1F17F0252
:1021E000087001237E3909480096FFF7BDFA0649B9
:1021F00023462A46863105480096FFF7B5FA01F0D6
:102200005FFB0020F8BD0000840000208003002058
:10221000F8B50D46044601F05BFB04F07F000B4C63
:102220003726621CA0700123511C09480096FFF755
:102230009BFAA570621C0123511C05480096FFF70C
:1022400093FA01F03DFB0020F8BD0000840000205F
:1022500080030020F8B514460E46054601F038FB11
:102260000B4905F07F0037250871CA1C0123091DA1
:1022700008480095FFF778FA054A23467832314638
:1022800004480095FFF770FA01F01AFB0020F8BD32
:102290008400002080030020094808B5016841F44B
:1022A000800101600068002200F480000090052198
:1022B0003A20FEF7E1FEBDE808403A20FEF7CFBE27
:1022C0003038024010B59CB01C2216496846FEF713
:1022D00090F80021684601F01DFB134C11491C22A7
:1022E00020601C3107A8FEF784F8002107A801F040
:1022F00011FB0C4960601C2238310EA8FEF779F8FA
:1023000000210EA801F006FB0649A0601C225431F2
:1023100015A8FEF76EF8002115A801F0FBFAE060A1
:102320001CB010BD8045000800000020F0B587B04B
:1023300014216846FEF776F82B480024016841F026
:1023400010010160016801F010010591016841F080
:1023500002010160016801F002010591016841F08C
:1023600020010160016801F020010591016841F040
:102370000101016000681D4E00F0010040F60405F7
:102380000590002229463046FEF79EFD184F002298
:1023900044F240013846FEF797FD0820CDE90004DD
:1023A000694630460294FEF7A9FC00950125CDE967
:1023B0000154694630460394FEF7A0FC4020CDE965
:1023C00000050220CDE9024069463846FEF796FC3A
:1023D000A8030090CDE90154694638460394FEF7FE
:1023E0008DFC07B0F0BD0000303802400010024004
:1023F000001402400F4810B50D4901604FF482717E
:10240000416000218160C1604FF400720161C0E948
:102410000512C1610162416281620A21C162FFF756
:102420002DF9002803D0BDE81040FEF7F0BA10BD2A
:1024300000500140800300200C4810B50A4901609B
:102440004FF416514160002181600C22C160C0E947
:1024500004128161C161FFF769FB002803D0BDE868
:102460001040FEF7D4BA10BD004C0040D803002045
:102470000C4810B50A4901600B4941600021816098
:102480000C22C160C0E9041281610A46C161FEF7F5
:102490009FFD002803D0BDE81040FEF7B8BA10BD7C
:1024A0000010014018040020A0860100FEE77047DC
:1024B0000D4800F1180190ED030AD1ED030A30EE4A
:1024C000600A80ED030A90ED040AD1ED040A30EEB3
:1024D000600A80ED040A90ED050AD1ED050A30EEA0
:1024E000600A80ED050A70479842002070B53A4DA9
:1024F0004FF4FA66A5F1180435E000BFFFF796FD2A
:1025000095ED000AD4ED000A012030EE200A85ED99
:10251000000A95ED010AD4ED010A30EE200A85ED9E
:10252000010A95ED020AD4ED020A30EE200A85ED8B
:10253000020A95ED030AD4ED030A30EE200A85ED78
:10254000030A95ED040AD4ED040A30EE200A85ED65
:10255000040A95ED050AD4ED050A30EE200A85ED52
:10256000050A01F0BDF9761EB6B2C7D2D5ED000A54
:102570009FED1A0A80EE801A85ED001AD5ED010A4A
:1025800080EE801A85ED011AD5ED020A80EE801AE0
:1025900085ED021AD5ED030A80EE801A85ED031A47
:1025A000D5ED040A80EE801A85ED041AD5ED050AF2
:1025B00080EE801A9FED0A0A85ED051A84ED000A67
:1025C00084ED010A84ED020A84ED030A84ED040A15
:1025D00084ED050A70BD0000B04200200000FA44FE
:1025E000000000000288C2F30A020A804278837861
:1025F000D20842EA4312C2F30A024A808278C378C0
:10260000920942EA8302037942EA8322C2F30A0270
:102610008A8002794379520842EAC312C2F30A025D
:10262000CA804279C2F301120A72427992094A724F
:10263000C2884A8102898A814289CA81027B0A74DE
:10264000427B4A74C2894A82008A888270470000AD
:1026500038B504461248134B0068B0FBF3F04FF452
:102660007A73584300906068B0F5827F0DD10B46B5
:10267000009200228021204600F016F870B1606DB3
:1026800040F020006065032038BD009830B1401E46
:10269000009020688068C0430006F6D5002038BD51
:1026A0001C00002000366E012DE9F0411D46174642
:1026B0000E460446DDF8188008E0681C06D0FEF7D8
:1026C00009FCA0EB0800A8420BD255B12068806835
:1026D00036EA000030D00020B842EED10020BDE83C
:1026E000F0812068416821F0E00141606068B0F548
:1026F000827F0BD1A068B0F5004F02D0B0F5806F9B
:1027000004D12068016821F040010160A06AB0F5A1
:10271000005F09D12068016821F400510160206840
:10272000016841F400510160012084F8510000204B
:1027300084F850000320D2E70120CDE78AB00024BE
:10274000072001F0CDF8FFF7F5FC00BF01F044F8D9
:102750000028FBD1FFF7CAFE01F0D0F8144E154D4A
:102760000990012109A801F0C2F8FFF75FFCFFF70B
:102770009FFE114B114A124912480096FFF72AFB9F
:10278000FFF7B6FB641CE4B20A2CEAD195ED000A0F
:1027900000248DED010A95ED010A20218DED020A3C
:1027A00095ED020A01A88DED030A01F043FBD8E77D
:1027B000C842002058420020984200204C4200208D
:1027C0004042002034420020012001F089F8FBE75C
:1027D00010B5502080F31188BFF34F8FBFF36F8F78
:1027E00001F008FE18B104494FF080500860002045
:1027F00080F3118810BD000004ED00E030B593B007
:1028000030216846FDF70EFE14210CA8FDF70AFEE4
:102810001A480025016841F080510160006800F00D
:10282000805011901648016841F4404101600068F1
:10283000022400F4404011900120039010200490E5
:10284000009406940820CDE90750B420CDE909048E
:1028500004200B906846FEF783FDFEF73FFC0CA9B1
:102860000F2081E831004FF4A0500F90E00210904B
:1028700005210CA8FEF76AFC13B030BD40380240B9
:10288000007000401048016841F4700101600F4879
:10289000016841F0010101600C4A00210832116019
:1028A00002680B4B1A400260031D0A4A1A60026854
:1028B00022F48022026005480C300160024958066B
:1028C000803908607047000088ED00E00038024061
:1028D000FFFFF6FE103000240148FFF766B8000045
:1028E000B8040020F0B50268254C264D264E274F2F
:1028F000274B4FF0804CA04209D0604507D0A8423A
:1029000005D0B04203D0B84201D0984204D122F0A1
:10291000700E4A6842EA0E02A0421BD0604519D0F0
:10292000A84217D0B04215D0B84213D0984211D067
:10293000184DA8420ED0184DA8420BD0174DA842F2
:1029400008D0174DA84205D0164DA84202D0164D0A
:10295000A84203D122F44075CA682A434D6922F087
:1029600080022A4302608A68C2620A688262A042C8
:1029700001D0984201D10969016301214161F0BD93
:10298000000001400004004000080040000C00402E
:102990000004014000400140004401400048014063
:1029A00000180040001C00400020004070B5846BFF
:1029B0002068406994F83910C0F3C010002521291F
:1029C00004D118B1E584204600F046F8206840693B
:1029D00094F83A10C0F38010222904D118B1E5858B
:1029E000204600F02BF8E06B40F01000E06320463A
:1029F000FFF79BF870BD10B50146806B0968096848
:102A0000C90513D40021C1850168CA6822F4807207
:102A1000CA6001684A6922F001024A6101684A6994
:102A200022F040024A61202180F83A10FFF772F943
:102A300010BD10B5806BFFF76EF910BD0168CA6854
:102A400022F49072CA6001684A6922F001024A6168
:102A5000202180F83A1070470168CA6822F0C0024D
:102A6000CA60202180F83910704700002DE9F0413C
:102A7000044600680169E26821F440511143016194
:102A80002169A068E269084361691143226808432B
:102A9000D16849F20C6399430143D16020684169D0
:102AA000A26921F4407111434161E2696425B2F5E4
:102AB000004F9748974922684FF032083FD08A422A
:102AC00001D082427CD1FEF709FC00EBC00101EB92
:102AD000001061688900B0FBF1F6FEF7FFFB00EB28
:102AE000C00101EB001061688900B0FBF1F0B0FBA0
:102AF000F5F06FF01801484306EB800108EB011078
:102B0000B0FBF5F000F0F006FEF7E8FB00EBC001CB
:102B100001EB001061688900B0FBF1F0B0FBF5F04B
:102B200006EB0016FEF7DAFB00EBC00101EB00102C
:102B300061688900B0FBF1F7FEF7D0FBD2E08A4272
:102B400001D082423DD1FEF7C9FB00EBC00101EB91
:102B5000001061684900B0FBF1F0B0FBF5F0060130
:102B6000FEF7BCFB00EBC00101EB001061684900FF
:102B7000B0FBF1F7FEF7B2FB00EBC00101EB001078
:102B800061684900B0FBF1F0B0FBF5F06FF018019F
:102B9000484307EB800108EBC100B0FBF5F000F003
:102BA000F80006EB4006FEF799FB00EBC00101EBD5
:102BB000001061684900B0FBF1F7FEF78FFB3CE0C5
:102BC00055E0FEF77BFB00EBC00101EB00106168F4
:102BD0004900B0FBF1F0B0FBF5F00601FEF76EFB2B
:102BE00000EBC00101EB001061684900B0FBF1F798
:102BF000FEF764FB00EBC00101EB001061684900C7
:102C0000B0FBF1F0B0FBF5F06FF01801484307EBB3
:102C1000800108EBC100B0FBF5F000F0F80006EB16
:102C20004006FEF74BFB00EBC00101EB00106168B2
:102C30004900B0FBF1F7FEF741FB00EBC00101EBEF
:102C4000001061684900B0FBF1F0B0FBF5F06FF0E7
:102C50001801484307EB800108EBC100B0FBF5F019
:102C600000F00700216830448860BDE8F081FEF77D
:102C700025FB00EBC00101EB001061688900B0FB8F
:102C8000F1F6FEF71BFB00EBC00101EB00106168E1
:102C90008900B0FBF1F0B0FBF5F06FF0180148438C
:102CA00006EB800108EB0110B0FBF5F000F0F00638
:102CB000FEF704FB00EBC00101EB00106168890026
:102CC000B0FBF1F0B0FBF5F006EB0016FEF7F6FAFC
:102CD00000EBC00101EB001061688900B0FBF1F767
:102CE000FEF7ECFA00EBC00101EB0010616889000F
:102CF000B0FBF1F0B0FBF5F06FF01801484307EBC3
:102D0000800108EB0110B0FBF5F000F00F00A9E71F
:102D100000140140001001402DE9F041984617468B
:102D20000E460446069D1DE0681C1BD02DB1FEF723
:102D3000D1F8A0EB0800A84214D92068C16821F49A
:102D4000D071C1602068416921F0010141612020FA
:102D500084F8390084F83A00002084F83800032011
:102D6000BDE8F0812068006836EA000004D0002049
:102D7000B842D9D00020F3E70120F9E7FEE741008F
:102D8000080218BF04200A0E18BF40F001004FF0DF
:102D90007F4232EA010108BF40F00200012808BF6B
:102DA000052070470907090E002804DB00F1E02028
:102DB00080F80014704700F00F0000F1E02080F868
:102DC000141D704710B54FF00E402DED028BB0EE84
:102DD000408A18EE104A00EB4400B0F1506F4AD818
:102DE0004FF0FC40B0EB440F22D2B0EEC80AF7EE31
:102DF000000A30EEC00AF6EE000A60EE208A18EEF5
:102E0000900A01F03BF801EE100A14F0004F1DBFCC
:102E1000DFED2D0A9FED2D0AB1EE411ADFED2C0AF0
:102E200008BF9FED2C0AF8EE001A21EE218A05E07A
:102E3000DFED290A68EE088AB0EE600A9FED271AD6
:102E4000DFED271A30EE080A48EE811A9FED251AA9
:102E500008EEA11ADFED241A48EE811A9FED231A1D
:102E600008EEA11A68EE281ABDEC028B01EE810A69
:102E700030EE200A10BD4FF0E440B0EB440F0CD907
:102E800018EE100AFFF77BFF042808BF00F066F970
:102E9000B0EE480ABDEC028B10BD4FF07F40B0EBA6
:102EA000440F07D2B0EE480ABDEC028BBDE81040DB
:102EB00000F046B9012000F069F9BDEC028BBDE8D5
:102EC000104000F043B900000000C9BF22AAFDB9BC
:102ED0000000C93F22AAFD390000000024FE1C3D6D
:102EE000C78AD83C1E67383D1B93993DAFAA2A3E3E
:102EF00010EE100A10B510EE901A4FF0684202EB77
:102F000040032DED028BB3F1654F3CBF02EB410254
:102F1000B2F1654F7CD200BFC0F3C753C1F3C752B3
:102F20009A1A1B2A09DD10F0004F14BF9FED6E0A9C
:102F30009FED6E0ABDEC028B10BD12F11A0F1BDA69
:102F400011F0004F09D010F0004F0CBF9FED680A40
:102F50009FED680ABDEC028B10BD80EE208A18EE52
:102F6000100AFFF70CFF042808BF00F0F7F8B0EED6
:102F7000480ABDEC028B10BD4200B2EB410F37D9BD
:102F800010F0004F19BFDFED5C1A9FED5C1ADFED0A
:102F90005C1A9FED5C1AB0EE602A0A46F1EE400A18
:102FA00080F00041B0EE420A10460A1A5200B2F117
:102FB000807F34D2484010F0004FDFED532A9FED60
:102FC000533A1DBFBEEE002A71EEE21A31EE431AEB
:102FD000B6EE002A04BF71EEA21A31EE031AF0EE2B
:102FE000402A42EE602A40EE020A82EEA02A18E051
:102FF00011F0004F04BF9FED461AF0EE411AD4D0F5
:1030000010F0004F1CBFDFED431A9FED431A00E0A4
:1030100026E004BFDFED411A9FED411AC5E780EEBF
:10302000202A22EE020ADFED3F0ADFED3F2ABDEC47
:10303000028B40EE202ADFED3D0A40EE220ADFED52
:103040003C2A40EE202ADFED3B0A40EE220A22EE27
:10305000000A00EE201A31EE020A30EE210A10BDFD
:103060004FF07F42B2EB400F28BFB2EB410F05D2C9
:10307000BDEC028BBDE8104000F065B840EA0103EA
:103080005B0008BF41F0FF410BD0B2EB400F08BF1F
:10309000B2EB410F08D120F0804000EE100A21F081
:1030A000804100EE901A37E7B2EB400F12BF5FEAA3
:1030B000410240F0FF4001F000413FF42DAF4A00D3
:1030C00092EA40033FF528AF002AACBF9FED1A1AE1
:1030D0009FED1A1A20EE010A60EE810A10EE100A26
:1030E00010EE901A18E70000DB0FC9BFDB0FC93FD5
:1030F000DB0F4940DB0F49C00000C9BF22AAFDB960
:103100000000C93F22AAFD390060ED3EC30ACE3758
:1031100000000000000049C022AA7DBA000049401A
:1031200022AA7D3A2DAD65BD8FB8D53D0FB511BE34
:1031300061C84C3EA8AAAABE0000804F0000802FA4
:1031400030EE000A704730EE200A7047DFED020AC9
:1031500080EEA00A70470000000000009FED020A08
:1031600020EE000A704700000000001002E008C8CE
:10317000121F08C1002AFAD170477047002001E0F1
:1031800001C1121F002AFBD17047000001490860ED
:10319000704700002801002070B52DED028B8AB029
:1031A00005460C4616460DB104B11EB90AB0BDEC79
:1031B000028B70BD94ED000AB5EEC00AF1EE10FA74
:1031C0000DD194ED010AB5EEC00AF1EE10FA06D168
:1031D00094ED020AB5EEC00AF1EE10FA7DD09FED33
:1031E000600AB0EE408A0020079008900990049091
:1031F000059006905B4A07CA01AB07C395ED010A2B
:10320000D5ED030A20EE200AD5ED000A95ED021A4D
:1032100000EEC10AF0EE000A20EE200A8DED070A4A
:1032200095ED000AD5ED010A20EE200AD5ED020A3F
:1032300095ED031A00EE810AF0EE000A20EE200A56
:103240008DED080A95ED000A20EE000AD5ED030A7F
:1032500095ED031A00EE810AF7EE000AB0EE001AAF
:1032600051EE000ACDED090A01AB2246314628464F
:1032700000F07AF8D4ED000A60EEA00A94ED011A8D
:10328000D4ED011A41EE210A94ED021AD4ED021A8E
:1032900041EE210AB0EE600AFDF7A0FAB0EE408AD6
:1032A00094ED000A20EE080A84ED000A94ED010A6C
:1032B00020EE080A84ED010A94ED020A20EE080AC5
:1032C00084ED020A94ED010ADDED090A20EE200AE0
:1032D000D4ED020A9DED081A00E03EE000EEC10ABE
:1032E0008DED040A94ED020ADDED070A20EE200AB6
:1032F000D4ED000A9DED091A00EEC10A8DED050A14
:1033000094ED000ADDED080A20EE200AD4ED010A52
:103310009DED071A00EEC10A8DED060A96ED000A32
:10332000DDED010A9DED041A00EE810A86ED000A2A
:1033300096ED010ADDED020A9DED051A00EE810A07
:1033400086ED010A96ED020ADDED030A9DED061AEF
:1033500000EE810A86ED020A00BF00BF26E70000EA
:1033600000000000304600082DE9F0412DED048BEF
:1033700007460D4614461E469FED580AB0EE409A89
:103380009FED560AB0EE408A9FED540AF0EE408A57
:10339000D4ED000A60EEA00A94ED011AD4ED011AF2
:1033A00041EE210A94ED021AD4ED021A41EE210AEF
:1033B000B0EE600AFDF712FAF7EE000A80EE801A0E
:1033C000B0EE419AD5ED000AB0EE600AFDF797F82D
:1033D000F0EE409AD5ED010AB0EE600AFDF78FF8E5
:1033E00079EE809AD5ED020AB0EE600AFDF787F813
:1033F00039EE800AF0EE408A3948D0ED000A79EEC5
:10340000600AB0EE600AFDF77AF8B0EE408A9FEDF0
:10341000350AB4EEC08AF1EE10FA06DC9FED320AEE
:10342000F4EEC08AF1EE10FA53DD9FED2C2AB0EED7
:10343000420A9FED2A2AF0EE421AB7EE002AF0EE79
:10344000420A9FED262AB0EE421AB5EEC08AF1EE8E
:1034500010FA05DD9FED232AC2EE082AB0EE620ABB
:103460009FED222AB4EEC20AF1EE10FA03D29FEDCC
:103470001B2AB0EE420AF5EEC08AF1EE10FA05DD25
:103480009FED192AC2EE282AF0EE621AB7EE002A42
:10349000B4EEC20AF1EE10FA03D220EE802AF0EE6A
:1034A000420AB7EE002AF4EEC21AF1EE10FA03D285
:1034B00020EEA12AF0EE420A9FED0D2A20EE822A8C
:1034C000B0EE421A86ED001A86ED011A86ED021A58
:1034D00000BFBDEC048BBDE8F081000000000000DF
:1034E00024010020CDCCCC3D8FC2F53D9A99993E68
:1034F000CDCC4C3E10B52DED048B86B00446B0EE1D
:10350000408AF0EE608AB0EE419A00200390049069
:103510000590009001900290B0EE000AC8EE000AFB
:10352000F0EE609AB0EE690AFCF7E7FF8DED030A52
:10353000B0EE000AC8EE800AF0EE609AB0EE690ABA
:10354000FCF7DBFF8DED040AB0EE000AC9EE000ABD
:10355000F0EE609AB0EE690AFCF7CFFF8DED050A38
:10356000B0EE000AC8EE000AF0EE609AB0EE690A0A
:10357000FDF74AF98DED000AB0EE000AC8EE800AA8
:10358000F0EE609AB0EE690AFDF73EF98DED010AA2
:10359000B0EE000AC9EE000AF0EE609AB0EE690AD9
:1035A000FDF732F98DED020A9DED050ADDED040A05
:1035B00020EE200ADDED030A20EE200ADDED020AEE
:1035C0009DED011A60EE810A9DED001A00EE810A60
:1035D00084ED000A9DED020ADDED040A20EE200ACA
:1035E000DDED030A20EE200ADDED050A9DED011A4E
:1035F00060EE810A9DED001A00EEC10A84ED010A19
:103600009DED050ADDED010A20EE200ADDED030A3D
:1036100020EE200ADDED020A9DED041A60EE810A1B
:103620009DED001A00EE810A84ED020A9DED050A67
:10363000DDED040A20EE200ADDED000A20EE200A6E
:10364000DDED020A9DED011A60EE810A9DED031A7F
:1036500000EEC10A84ED030A06B0BDEC048B10BD78
:10366000FEE72DE9F04104460D4616461F4614B10B
:103670000DB106B10FB9BDE8F081D4ED010A94EDAA
:10368000031A60EE810A94ED001AD4ED021A41EE9D
:10369000610AB8EE001A60EE810AB0EE600AFCF72B
:1036A00028FF86ED000A94ED001A21EE011AD4EDF0
:1036B000011A94ED012A01EE821AF7EE001AB0EE1B
:1036C000002A52EE011AF0EE610A94ED001AD4EDD0
:1036D000031A21EE211AD4ED011A94ED022A01EE0B
:1036E000821AF0EE001A21EE211AB0EE410AFCF720
:1036F00002FF85ED000A94ED001A21EE011AD4EDC7
:10370000031A94ED032A01EE821AF7EE001AB0EEC6
:10371000002A52EE011AF0EE610A94ED001AD4ED7F
:10372000011A21EE211AD4ED021A94ED032A01EEBA
:10373000821AF0EE001A21EE211AB0EE410AFCF7CF
:10374000DAFE87ED000A00BF95E7EFF30580002859
:1037500000D001207047000008B508A103220968C5
:1037600000918DF8010069462520FEF773FD0220C7
:1037700000F0B6F84920FEF705FD08BD8E00810077
:1037800008B506A2126800928DF801008DF80210AB
:10379000042269463120FEF75DFD08BD0E00008061
:1037A000012204210148FDF78FBB000000100240F8
:1037B000002204210148FDF787BB000000100240F1
:1037C00008B504A003220068009069462520FEF792
:1037D00041FD08BD8E028D002DE9F0470025FFF761
:1037E000E7FF322000F07CF8322000F079F8FFF794
:1037F000D7FF0020FFF7B0FF1E4C1028207002D02A
:103800004020BDE8F087DFF870804FF0000900BF6E
:1038100005EB450606EB080718F806007978FFF770
:10382000AFFF484684F80190C0B2401CC0B260703F
:103830009628F9D318F80600FFF78EFF2070494646
:1038400084F80190C9B2491CC9B261709629F9D3B4
:103850007978814205D005EB450101EB08008078BD
:10386000CFE76D1CEDB2042DD2D3FFF7A9FF0020E6
:10387000C7E700008000002010460008FDF738FB75
:10388000FEF7BCFFFEF752FDFEF706FDFEF7B2FDA8
:10389000FEF7EEFDFEF7D0FD122204490448FEF7C4
:1038A000EDF9FEF70FFD00F024F8FEE7FE410020E1
:1038B0001804002001460020842900D0C81C70474D
:1038C000012240210148FDF7FFBA00000014024028
:1038D000002240210148FDF7F7BA00000014024021
:1038E00010B500B9012000F013FC002010BD8120AC
:1038F000704710B500F032FC002010BD10B5FFF786
:1039000024FF18B1BDE8104000F06CBDBDE81040C8
:1039100000F062BD7FB50D4604464169B0F908006C
:1039200081B1A16971B1FFF7C5FFD4E905128DE836
:103930000700D4E900102B46226900F022FD039015
:1039400004B070BDFFF7B6FF03A9CDE90001208ADE
:103950002B4682B2D4E9001000F0E6FC012801D029
:103960000020EDE70398EBE72DE9F041184C0F46F6
:10397000054666692068001D00F0DCFA38B9206849
:1039800090F82C1001208840A1698143A161681C36
:1039900007D137B12168BDE8F0410E48091D00F09C
:1039A0000DBB20683544B5424560216805D2A0684A
:1039B000BDE8F041091D00F0E9BA6068091D00F09A
:1039C000E5FA206B854200D22563BDE8F081000056
:1039D00020000020D40500202DE9F041054600F02C
:1039E000F9FA2E4C2069401C206120682C4F10B140
:1039F000E06940B32DE025602069012829D1002627
:103A000006EB860007EB800000F0B2FA761C072E6A
:103A1000F6D323488C3000F0ABFA2148A03000F0F8
:103A2000A7FA1F48B43000F0A3FA1D48C83000F0D0
:103A30009FFA1B48DC3000F09BFA19488C3060601C
:103A40001430A06005E02068E96AC06A884200D8A6
:103A50002560E06A401CE062E96A0120A2698840B2
:103A60001043A06101EB810007EB8000291D00F0ED
:103A7000A5FA00F0CFFAE06900280CD02068E96AC6
:103A8000C06A884207D207494FF080500860BFF3F0
:103A90004F8FBFF36F8FBDE8F08100002000002042
:103AA000F804002004ED00E010B5044690F8510041
:103AB00058B101280CD002280FD0502080F3118873
:103AC000BFF34F8FBFF36F8FFEE7206B00F0B6FAA6
:103AD0002046BDE8104000F0B1BA10BD10484FF4C8
:103AE0007051420706D0C01D0D4920F00700411A51
:103AF000C1F570510B4A00230144C2E900030839A3
:103B0000103A21F0070111604B600B600B1AC0E9FD
:103B1000001393604FF000405360D0607047000086
:103B2000E80500206C000020144E154CA6F1C807D3
:103B30004FF08058DFF84C9012E000BF00F04AFAD6
:103B4000F068C568281D00F0F5F92069401E206165
:103B5000E068401EE06000F05DFA2846FFF7A4FF31
:103B6000E0680028EAD138680128F9D9C9F800804E
:103B7000BFF34F8FBFF36F8FF2E70000C005002047
:103B80002000002004ED00E02DE9F0479A46DDE931
:103B9000098481466FF00303206B03EB820210441B
:103BA000089D20F00706700707D0502080F3118889
:103BB000BFF34F8FBFF36F8FFEE723180A5C83F8C4
:103BC00034200A5C12B1401C1028F6D3002784F878
:103BD0004370072D00D30625E562C4E91157201D67
:103BE00000F0D1F904F1180000F0CDF92461C5F11D
:103BF00007006462A061E76484F850705246494649
:103C0000304600F0BFF82060B8F1000F01D0C8F8CE
:103C10000040BDE8F087000030B5114900E01146D2
:103C20000A688242FBD34B685C18844203D1406827
:103C300018444860084643681C18944209D1084C4F
:103C4000103C2468A24209D052681A4442600A68B3
:103C500012680260814200D0086030BD0460F9E75C
:103C60006C00002006484168096829B14168C968AC
:103C7000C9684968016370474FF0FF31FAE70000F7
:103C80002000002008484068401C4FF0500080F39E
:103C9000118804D0BFF34F8FBFF36F8FFEE7BFF3E0
:103CA0004F8FBFF36F8FFEE7740000202DE9F041C6
:103CB0000546002700F088FA314E306808B9FFF752
:103CC0000DFFF06805424BD1C5B3083568070ED02B
:103CD00005F00700C0F108000544680707D0502030
:103CE00080F31188BFF34F8FBFF36F8FFEE72DB3C3
:103CF0007068854234D82248103001460C6801E0D3
:103D000020460C466168A94202D221680029F7D1F9
:103D100031688C4224D007682168016060680837E8
:103D2000411B10290FD96019420708D0502080F399
:103D30001188BFF34F8FBFF36F8FFEE710E0416034
:103D40006560FFF769FF61687068401A7060B2686B
:103D5000904200D2B060F06801430020C4E9000145
:103D600000F0ACFB780707D0502080F31188BFF338
:103D70004F8FBFF36F8FFEE73846BDE8F08100003C
:103D80005C00002010B5031F4FF080741C601B1FE7
:103D900021F001011960191F044B0B6014390A60EE
:103DA000091F6FF0020244380A6010BD853C00080C
:103DB00010B52DED028B04469FED1D0AB0EE408A32
:103DC000D4ED000A60EEA00A94ED011AD4ED011AB8
:103DD00041EE210A94ED021AD4ED021A41EE210AB5
:103DE00094ED031AD4ED031A41EE210AB0EE600AF5
:103DF000FCF7F4FCB0EE408A94ED000A20EE080ACD
:103E000084ED000A94ED010A20EE080A84ED010A0F
:103E100094ED020A20EE080A84ED020A94ED030AEA
:103E200020EE080A84ED030ABDEC028B10BD0000F1
:103E3000000000007CB504460DA00D46006800900F
:103E40000CA041F288360068019033460222694690
:103E50000948FDF761FFAAB2334621460648FDF73F
:103E60005BFF3346022201A90348FDF755FF7CBDE5
:103E700003FC0000FC030000D803002010B500EE96
:103E8000100A2DED028BB1EEC08A18EE100A20F058
:103E90000040C0F1FF40C00F0AD010EE100A20F021
:103EA0000040C0F1FF40C00F04BF0120FFF76EF9D2
:103EB00018EE100ABDEC028B10BD91ED000AB1EEB8
:103EC000400A80ED010A91ED010AB1EE400A80ED51
:103ED000020A91ED020AB1EE400A80ED030A91ED6B
:103EE000000A80ED040A91ED020A80ED060A91EDC8
:103EF000010AB1EE400A80ED070A91ED010A80ED5A
:103F0000080A91ED020AB1EE400A80ED090A91ED2E
:103F1000000A80ED0B0A91ED020A80ED0C0A91ED8A
:103F2000010A80ED0D0A91ED000AB1EE400A80ED24
:103F30000E0A7047D0E9013201699A60D0E9012385
:103F40005A604A68824201D182684A600022026156
:103F50000868401E0860086870470000034B036053
:103F600003F1540008608020106070472C0100208D
:103F700000F108014FF0FF32C0E90112C160016198
:103F800000210160704700210161704730B50B6866
:103F90005A1C02D000F1080202E0026904E0224645
:103FA000546825689D42FAD953684B6099608A60CD
:103FB000516008610168491C016030BD42684A6077
:103FC00093688B6093685960916008610168491C2F
:103FD00001607047502080F31188BFF34F8FBFF30B
:103FE0006F8F0A494868401C486001280CD1084876
:103FF000006810F0FF0F07D0502080F31188BFF346
:104000004F8FBFF36F8FFEE77047000074000020F2
:1040100004ED00E00849486828B1401E486001D11D
:1040200080F311887047502080F31188BFF34F8FC1
:10403000BFF36F8FFEE700007400002070B500280A
:1040400027D0144DA0F108046168E868014207D147
:10405000502080F31188BFF34F8FBFF36F8FFEE7BF
:1040600022683AB1502080F31188BFF34F8FBFF31D
:104070006F8FFEE78143616000F0A6F860686968B1
:10408000084468602046FFF7C7FDBDE8704000F0B7
:1040900015BA70BD5C0000204FF0E02000210161E6
:1040A000816105494FF47A720968B1FBF2F1491E4A
:1040B00041610721016170471C00002010B5FCF729
:1040C000DBF8114910280ED300F1E02090F8F0033E
:1040D0000A78904207D2502080F31188BFF34F8FA7
:1040E000BFF36F8FFEE709480068896800F4E0605D
:1040F000884207D9502080F31188BFF34F8FBFF358
:104100006F8FFEE710BD0000740000200CED00E092
:1041100010B5020014D00F48806B38B1502080F3E6
:104120001188BFF34F8FBFF36F8FFEE700F04CF89D
:1041300000211046FFF718FC00F0C0F9002807D155
:1041400005494FF080500860BFF34F8FBFF36F8F6A
:1041500010BD00002000002004ED00E010B586B086
:104160000024039405AA04A903A80494FFF7F6FE0B
:10417000DDE903010094CDE9011000230EA11048F0
:10418000059A00F0FEF80F490028486311D050202E
:1041900080F31188BFF34F8FBFF36F8F4FF0FF3065
:1041A00008630120C8614C6106B0BDE8104000F012
:1041B00041B806B010BD000049444C450000000065
:1041C000293B0008200000200248816B491C8163C4
:1041D00070470000200000201448816B11B10121BC
:1041E00041627047002141628169B1FA81F1C1F1F8
:1041F0001F0101EB81020E4951F822306BB101EB36
:10420000820101F108034A6852684A609A4201D16A
:1042100052684A60D16801607047502080F311886D
:10422000BFF34F8FBFF36F8FFEE700002000002029
:10423000F80400201CB537480168374A914207D17D
:10424000502080F31188BFF34F8FBFF36F8FFEE7CD
:1042500000683149491E884207D1502080F31188F7
:10426000BFF34F8FBFF36F8FFEE72C4908780190A3
:10427000FF20087008788DF800009DF800009DF878
:10428000002000F0F000904207D0502080F3118809
:10429000BFF34F8FBFF36F8FFEE79DF80000204BF9
:1042A00000F0500018700720986005E09DF800208D
:1042B00052008DF80020401E9DF800201206F5D413
:1042C0009860032807D0502080F31188BFF34F8FE8
:1042D000BFF36F8FFEE74FF440709860019808704D
:1042E0000C482030016841F470010160016841F020
:1042F00070410160FFF7D0FE00205860FBF784FF9B
:104300000848016841F040410160FBF769FF002067
:104310001CBD000000ED00E071C20F4100E400E0B0
:104320007400002034EF00E02DE9FF5F8346DDE9F3
:104330000E87994616468A469000FFF7B7FC05009F
:104340001CD05420FFF7B2FC040014D000202563D9
:1043500084F85100CDE90240CDE900874B46324652
:1043600051465846FFF710FC2046FFF735FB012069
:1043700004B0BDE8F09F2846FFF760FE4FF0FF3025
:10438000F6E7F0B585B0DDE90B640A9DA6B1DCB1B6
:10439000542700972663022684F85160002604AF54
:1043A000CDE90246CDE90057FFF7EEFB2046FFF7C7
:1043B00013FB049805B0F0BD502080F31188BFF3C3
:1043C0004F8FBFF36F8FFEE7502080F31188BFF34C
:1043D0004F8FBFF36F8FFEE70148406970470000C1
:1043E0002000002010B5FFF769FE0148406910BDAC
:1043F000200000202DE9F0412E4C0027A06B40B199
:10440000206A401C2062606A00B101273846BDE87E
:10441000F0816669761C666113D16068006838B106
:10442000502080F31188BFF34F8FBFF36F8FFEE7EB
:104430006068A1686160A060A06A401CA062FFF78C
:1044400011FC206BDFF87080864209D36068006839
:1044500080B16068C068C568686886420DD2206314
:104460002068C06A00EB800158F821000128CAD9F1
:104470000127C8E74FF0FF30F1E7281DFFF75AFD8D
:10448000A86A18B105F11800FFF754FDE86A012188
:10449000A26981401143A16100EB800108EB81001A
:1044A000291DFFF78BFDE86A2168C96A8842CDD3D0
:1044B0000127CBE720000020F80400202DE9F04779
:1044C0002C4D00242746A86B38B1FFF783FDA86B5D
:1044D000401EA863A86B40B146E0502080F31188CD
:1044E000BFF34F8FBFF36F8FFEE72969224E012084
:1044F000D1B3A6F1B40980463068E8B1F068C46869
:1045000004F11800FFF716FD201DFFF713FDE06A08
:10451000AA6908FA00F11143A96100EB800109EBD7
:104520008100211DFFF74AFDE06A2968C96A8842B7
:10453000E2D3C5F82480DFE70CB1FFF793FB2C6AC8
:1045400044B14646FFF756FF00B16E62641EF9D1D2
:1045500000202862686A38B10849012738070860D6
:10456000BFF34F8FBFF36F8FFFF754FD3846BDE8A1
:10457000F087000020000020AC05002004ED00E0E2
:10458000504E0008C927000800000000000000008D
:10459000800000000000000000000000404E000805
:1045A000C11E0008FEFF00000000000080000000A7
:1045B0000000000000000000684E0008613600089E
:1045C000FEFF00000000000080000000000000006E
:1045D000000000005C4E00083D27000800000000BD
:1045E000000000008000000000000000000000004B
:1045F0000006101600061016000000000000000063
:104600000102030406070809000000000102030478
:104610000B080141090242C0030A0B036B806B03C4
:104620006C001A021B181C101D026A2000000000FA
:10463000CDCC4C3ECDCC4C3ECDCC4C3E0000000011
:10464000920E493CB10AC93C2BC3163D2EFB483D96
:10465000752B7B3D04A9963D80B6AF3D36BDC83D68
:104660002FBCE13D73B2FA3D87CF093E8340163E31
:10467000B5AB223EA2102F3ECF6E3B3EC2C5473E99
:104680000115543E135C603E7F9A6C3ECCCF783E61
:10469000C07D823E938E883E229A8E3E32A0943E0A
:1046A00086A09A3EE59AA03E128FA63ED47CAC3EF0
:1046B000EF63B23E2A44B83E491DBE3E15EFC33EED
:1046C00053B9C93ECA7BCF3E4136D53E80E8DA3E7B
:1046D0004F92E03E7533E63EBBCBEB3EEA5AF13EED
:1046E000CBE0F63E275DFC3EE4E7003F3D9C033F08
:1046F000824B063F9BF5083F6B9A0B3FDA390E3F22
:10470000CDD3103F2A68133FD9F6153FC07F183F1D
:10471000C6021B3FD17F1D3FCBF61F3F9967223F4B
:1047200025D2243F5636273F1594293F4AEB2B3F8D
:10473000DE3B2E3FBB85303FC9C8323FF304353FD7
:10474000233A373F4268393F3B8F3B3FF9AE3D3F0D
:1047500067C73F3F70D8413F01E2433F03E4453F15
:1047600065DE473F12D1493FF8BB4B3F029F4D3FAB
:10477000207A4F3F3D4D513F4918533F31DB543F65
:10478000E595563F5348583F6AF2593F1A945B3FAC
:10479000532D5D3F05BE5E3F2146603F97C5613F9B
:1047A0005A3C633F59AA643F880F663FD86B673F06
:1047B0003CBF683FA7096A3F0C4B6B3F5E836C3F71
:1047C00093B26D3F9ED86E3F73F56F3F0809713FFE
:1047D0005213723F4714733FDD0B743F0BFA743F63
:1047E000C6DE753F07BA763FC58B773FF853783FF3
:1047F0009812793F9DC7793F02737A3FBE147B3F81
:10480000CDAC7B3F283B7C3FC9BF7C3FAC3A7D3F72
:10481000CCAB7D3F23137E3FB0707E3F6DC47E3FA7
:10482000580E7F3F6D4E7F3FAB847F3F0FB17F3F80
:1048300097D37F3F43EC7F3F11FB7F3F0000803FDA
:1048400011FB7F3F43EC7F3F97D37F3F0FB17F3F0B
:10485000AB847F3F6D4E7F3F580E7F3F6DC47E3FE0
:10486000B0707E3F23137E3FCCAB7D3FAC3A7D3FA3
:10487000C9BF7C3F283B7C3FCDAC7B3FBE147B3F18
:1048800002737A3F9DC7793F9812793FF853783F7A
:10489000C58B773F07BA763FC6DE753F0BFA743F8C
:1048A000DD0B743F4714733F5213723F0809713F89
:1048B00073F56F3F9ED86E3F93B26D3F5E836C3F42
:1048C0000C4B6B3FA7096A3F3CBF683FD86B673F03
:1048D000880F663F59AA643F5A3C633F97C5613FC2
:1048E0002146603F05BE5E3F532D5D3F1A945B3FFE
:1048F0006AF2593F5348583FE595563F31DB543FE4
:104900004918533F3D4D513F207A4F3F029F4D3F45
:10491000F8BB4B3F12D1493F65DE473F03E4453FBB
:1049200001E2433F70D8413F67C73F3FF9AE3D3F8B
:104930003B8F3B3F4268393F233A373FF304353FD3
:10494000C9C8323FBB85303FDE3B2E3F4AEB2B3F91
:104950001594293F5636273F25D2243F9967223F99
:10496000CBF61F3FD17F1D3FC6021B3FC07F183FC4
:10497000D9F6153F2A68133FCDD3103FDA390E3FE1
:104980006B9A0B3F9BF5083F824B063F3D9C033FD4
:10499000E4E7003F275DFC3ECBE0F63EEA5AF13EFD
:1049A000BBCBEB3E7533E63E4F92E03E80E8DA3E0D
:1049B0004136D53ECA7BCF3E53B9C93E15EFC33E03
:1049C000491DBE3E2A44B83EEF63B23ED47CAC3EA5
:1049D000128FA63EE59AA03E86A09A3E32A0943E53
:1049E000229A8E3E938E883EC07D823ECCCF783E0A
:1049F0007F9A6C3E135C603E0115543EC2C5473E33
:104A0000CF6E3B3EA2102F3EB5AB223E8340163EFA
:104A100087CF093E73B2FA3D2FBCE13D36BDC83D9C
:104A200080B6AF3D04A9963D752B7B3D2EFB483DDE
:104A30002BC3163DB10AC93C920E493C0000000050
:104A4000920E49BCB10AC9BC2BC316BD2EFB48BD92
:104A5000752B7BBD04A996BD80B6AFBD36BDC8BD64
:104A60002FBCE1BD73B2FABD87CF09BE834016BE2D
:104A7000B5AB22BEA2102FBECF6E3BBEC2C547BE95
:104A8000011554BE135C60BE7F9A6CBECCCF78BE5D
:104A9000C07D82BE938E88BE229A8EBE32A094BE06
:104AA00086A09ABEE59AA0BE128FA6BED47CACBEEC
:104AB000EF63B2BE2A44B8BE491DBEBE15EFC3BEE9
:104AC00053B9C9BECA7BCFBE4136D5BE80E8DABE77
:104AD0004F92E0BE7533E6BEBBCBEBBEEA5AF1BEE9
:104AE000CBE0F6BE275DFCBEE4E700BF3D9C03BF04
:104AF000824B06BF9BF508BF6B9A0BBFDA390EBF1E
:104B0000CDD310BF2A6813BFD9F615BFC07F18BF19
:104B1000C6021BBFD17F1DBFCBF61FBF996722BF47
:104B200025D224BF563627BF159429BF4AEB2BBF89
:104B3000DE3B2EBFBB8530BFC9C832BFF30435BFD3
:104B4000233A37BF426839BF3B8F3BBFF9AE3DBF09
:104B500067C73FBF70D841BF01E243BF03E445BF11
:104B600065DE47BF12D149BFF8BB4BBF029F4DBFA7
:104B7000207A4FBF3D4D51BF491853BF31DB54BF61
:104B8000E59556BF534858BF6AF259BF1A945BBFA8
:104B9000532D5DBF05BE5EBF214660BF97C561BF97
:104BA0005A3C63BF59AA64BF880F66BFD86B67BF02
:104BB0003CBF68BFA7096ABF0C4B6BBF5E836CBF6D
:104BC00093B26DBF9ED86EBF73F56FBF080971BFFA
:104BD000521372BF471473BFDD0B74BF0BFA74BF5F
:104BE000C6DE75BF07BA76BFC58B77BFF85378BFEF
:104BF000981279BF9DC779BF02737ABFBE147BBF7D
:104C0000CDAC7BBF283B7CBFC9BF7CBFAC3A7DBF6E
:104C1000CCAB7DBF23137EBFB0707EBF6DC47EBFA3
:104C2000580E7FBF6D4E7FBFAB847FBF0FB17FBF7C
:104C300097D37FBF43EC7FBF11FB7FBF000080BFD6
:104C400011FB7FBF43EC7FBF97D37FBF0FB17FBF07
:104C5000AB847FBF6D4E7FBF580E7FBF6DC47EBFDC
:104C6000B0707EBF23137EBFCCAB7DBFAC3A7DBF9F
:104C7000C9BF7CBF283B7CBFCDAC7BBFBE147BBF14
:104C800002737ABF9DC779BF981279BFF85378BF76
:104C9000C58B77BF07BA76BFC6DE75BF0BFA74BF88
:104CA000DD0B74BF471473BF521372BF080971BF85
:104CB00073F56FBF9ED86EBF93B26DBF5E836CBF3E
:104CC0000C4B6BBFA7096ABF3CBF68BFD86B67BFFF
:104CD000880F66BF59AA64BF5A3C63BF97C561BFBE
:104CE000214660BF05BE5EBF532D5DBF1A945BBFFA
:104CF0006AF259BF534858BFE59556BF31DB54BFE0
:104D0000491853BF3D4D51BF207A4FBF029F4DBF41
:104D1000F8BB4BBF12D149BF65DE47BF03E445BFB7
:104D200001E243BF70D841BF67C73FBFF9AE3DBF87
:104D30003B8F3BBF426839BF233A37BFF30435BFCF
:104D4000C9C832BFBB8530BFDE3B2EBF4AEB2BBF8D
:104D5000159429BF563627BF25D224BF996722BF95
:104D6000CBF61FBFD17F1DBFC6021BBFC07F18BFC0
:104D7000D9F615BF2A6813BFCDD310BFDA390EBFDD
:104D80006B9A0BBF9BF508BF824B06BF3D9C03BFD0
:104D9000E4E700BF275DFCBECBE0F6BEEA5AF1BEF9
:104DA000BBCBEBBE7533E6BE4F92E0BE80E8DABE09
:104DB0004136D5BECA7BCFBE53B9C9BE15EFC3BEFF
:104DC000491DBEBE2A44B8BEEF63B2BED47CACBEA1
:104DD000128FA6BEE59AA0BE86A09ABE32A094BE4F
:104DE000229A8EBE938E88BEC07D82BECCCF78BE06
:104DF0007F9A6CBE135C60BE011554BEC2C547BE2F
:104E0000CF6E3BBEA2102FBEB5AB22BE834016BEF6
:104E100087CF09BE73B2FABD2FBCE1BD36BDC8BD98
:104E200080B6AFBD04A996BD752B7BBD2EFB48BDDA
:104E30002BC316BDB10AC9BC920E49BC000000804C
:104E40004C4544466C6173685461736B000000000C
:104E500064656661756C745461736B0053656E7341
:104E60006F727461736B0000646574656374746160
:104E7000736B0000944E0008000000202C0100001D
:104E80009C040008C04E00082C010020AC45000026
:104E90007C310008011032018210035924F41AAA4F
:104EA00001011A5B803F080A19BF1C091D246920F3
:104EB000E9388910D2FFC90E812DCDCC1C410441A7
:04000005080001AD41
:00000001FF
